:020000040800F2
:1000000068040020DD0100081312000845110008F3
:100010001112000879040008811400080000000093
:100020000000000000000000000000003B1200087B
:10003000C104000800000000371200083D1200084B
:10004000F7010008F7010008F7010008F7010008B0
:10005000F701000839120008F7010008F70100084D
:10006000F7010008F7010008F7010008F701000890
:10007000F7010008F7010008F7010008F701000880
:10008000F7010008F7010008F7010008F701000870
:10009000F7010008F7010008F7010008F701000860
:1000A000F7010008F7010008F7010008F701000850
:1000B00041130008F7010008F7010008F7010008E4
:1000C000F7010008F7010008F7010008F701000830
:1000D000F7010008F7010008F7010008F701000820
:1000E000F7010008F7010008F7010008F701000810
:1000F000F7010008F7010008F7010008F701000800
:10010000F7010008F7010008F7010008F7010008EF
:10011000F7010008F7010008F7010008F7010008DF
:10012000F7010008F7010008F7010008F7010008CF
:10013000F7010008F7010008F7010008F7010008BF
:10014000F7010008F7010008F7010008F7010008AF
:10015000F7010008F7010008F7010008F70100089F
:10016000F7010008F7010008F7010008F70100088F
:10017000F7010008F7010008F7010008000000007F
:10018000F7010008F7010008F7010008F70100086F
:10019000F7010008F7010008F7010008F70100085F
:1001A000F7010008F7010008F7010008F70100084F
:1001B000F7010008F7010008F7010008F70100083F
:1001C000F7010008F7010008DFF80CD000F042F951
:1001D00000480047A1140008680400200648804732
:1001E00006480047FEE7FEE7FEE7FEE7FEE7FEE71C
:1001F000FEE7FEE7FEE7FEE7ED120008C901000892
:100200002DE9F05F0546002092469B46884606464B
:10021000814640241BE0284641464746224600F0DE
:10022000ABF853465A46C01A914110D311461846AE
:10023000224600F092F82D1A67EB01084F4622463D
:100240000120002100F089F817EB00094E41201E23
:10025000A4F10104DFDC484631462A464346BDE8A6
:10026000F09F2DE9F04D81EA030404F0004B21F0EA
:10027000004514464FF0000A23F0004150EA050201
:1002800020D054EA01021DD0C5F30A570246C5F337
:100290001303C1F31300C1F30A5640F4801543F46D
:1002A0008013A7EB0608101BD64608F2FD3873EB47
:1002B000050002D308F1010801E092185B41B8F192
:1002C000000F03DA00200146BDE8F08D00204FF456
:1002D0008011064684460EE0171B73EB050705D315
:1002E000121B63EB050306434CEA010C49084FEA75
:1002F000300092185B4150EA0107EDD152EA030049
:1003000012D082EA040083EA0501084305D0101BDD
:10031000AB4106D20122002306E000224FF0004349
:1003200002E06FF0010253101AEB06004CEB08518B
:1003300010EB0A0041EB0B01BDE8F04D00F02CB8CA
:100340000EB540F2334102910021CDE900110A4679
:100350000B4600F030F803B000BD202A04DB203A41
:1003600000FA02F1002070479140C2F1200320FA08
:1003700003F3194390407047202A04DB203A21FA06
:1003800002F00021704721FA02F3D040C2F12002AE
:10039000914008431946704710B5141E73F10004CC
:1003A00008DA401C41F1000192185B411A4301D167
:1003B00020F0010010BD2DE9F04D92469B4611B191
:1003C000B1FA81F202E0B0FA80F220329046FFF7F3
:1003D000C4FF04460F4640EA0A0041EA0B015346B7
:1003E0005A46084313D0114653EA010019D0C8F108
:1003F00040025046FFF7C0FF05460E46504659469C
:100400004246FFF7AAFF084305D0012004E020463A
:100410003946BDE8F08D0020054346EAE0762C43DE
:1004200037430A986305E40AA0EB08000022FD0A9E
:1004300044EA47540A3002D500200146E9E70105A5
:1004400010196941DDE9084500196941BDE8F04D21
:10045000A2E70000064C074D06E0E06840F001030B
:1004600094E8070098471034AC42F6D3FFF7B0FE8B
:10047000EC1400080C150008FEE700000E490F48B8
:100480000A6822F080720A600B68002243F08073D1
:100490000B60016821F001010160016841F0010178
:1004A0000160426000BF00BF00BF406808B100208B
:1004B0007047012070470000FCED00E0001000E0F4
:1004C00070470000F8B51E4E0A2401224021304634
:1004D00000F045F900941B4C656800F09DFA1A493C
:1004E000B0FBF1F000994843009060680099401B10
:1004F0008842FAD3002235464021304600F02FF9D9
:100500008021284600F026F90128F9D10F4C00205F
:1005100000E0401C20608021284600F01BF90028E4
:100520002068F6D16060FFF70BFF9FED091B53ECCD
:10053000112BFFF796FE41EC100B84ED020BF8BD7A
:1005400000140240001000E040420F0000000020B4
:100550000000000000C05C4070B5044600F004F9E3
:100560000546601C02D004480078044400F0FCF802
:10057000401BA042FAD370BD180000202DE9F84FAF
:10058000DFF89CE100224FF001084FF0030B4FF021
:100590000F0A00BF0B6808FA02F42340A34271D18E
:1005A0004D68022D01D0122D0FD1D5080E695707C5
:1005B00000EB8505A9462D6AFF0E0AFA07FCBE402E
:1005C00025EA0C052E43C9F820600F79550006680E
:1005D0000BFA05FC07F0030726EA0C06AF40374389
:1005E00007604E68012E05D0022E03D0112E01D0D7
:1005F000122E0ED18668CF6826EA0C06AF4037432C
:10060000876046680F79A643C7F3001797403743C2
:100610004760C4688E6824EA0C04AE402643C66076
:100620004C68E40075D53F4C256845F4804525604D
:10063000246822F00306950704F4804400943A4CA1
:100640002D0F2644D6F80848DFF8E0C00AFA05F76F
:10065000604524EA070401D100272EE0344FB84258
:1006600001D1012729E0334FB84201D1022724E00C
:10067000314FB84201D103271FE0304FB84202D1B9
:1006800004271AE045E02E4FB84201D1052714E0B7
:100690002C4FB84201D106270FE02B4FB84201D1B1
:1006A00007270AE0294FB84201D1082705E0284F63
:1006B000B84201D1092700E00A27AF402743754619
:1006C000C6F808784E68DEF80040F60324EA030412
:1006D00000D51C43124E2C60361D4D683468AD03A6
:1006E00024EA030400D51C430D4F346008374D68DD
:1006F0003C68ED0224EA030400D51C43084D3C602D
:100700000C354E682C68B60224EA030400D51C435D
:100710002C60521C102AFFF43DAFBDE8F88F00009A
:10072000003C0140443802400030014000000240DB
:100730000004024000080240000C02400010024089
:100740000014024000180240001C02400020024039
:10075000002402400069084000D0012070470AB11F
:10076000816170470904FBE7014880687047000019
:1007700018000020024881680278114481607047A7
:1007800018000020032010B500F09EF8002000F0B3
:1007900005F800F023F8002010BD000070B50D4DE5
:1007A00004464FF47A700C4A29781268B0FBF1F0D5
:1007B000B2FBF0F000F011FB48B9102C07D2002278
:1007C0002146501E00F060F800206C6070BD0120D2
:1007D00070BD00001800002024000020234808B548
:1007E000016841F080510160006800F08050009085
:1007F0001E48001D016841F480410160006800F45A
:1008000080400090032000F05FF800226FF00B00A2
:10081000114600F039F800226FF00A00114600F08E
:1008200033F800226FF00900114600F02DF8002285
:10083000501F114600F028F80022101F114600F04A
:1008400023F80022901E114600F01EF80022501ED0
:10085000114600F019F800220520114600F014F8A6
:10086000BDE80840052000F003B800004038024011
:10087000410900F01F028900012001F1E0219040B0
:10088000C1F80001704700000E4BF0B41B680D4624
:10089000C3F30223C3F10706042E00D90426191D51
:1008A000072901D2002300E0DB1E012404FA06F12F
:1008B0009C40491E2940641E994014402143F0BCCD
:1008C00000F0A8BC0CED00E0064900F0070210B5EE
:1008D0004FF6FF040868044B204040EA022018430A
:1008E000086010BD0CED00E00000FA052DE9F047AE
:1008F00005000F4663D0444E306800F00F00B84248
:1009000009D2306820F00F0038433060306800F0C2
:100910000F00B84253D128683C4C810712D54007DC
:1009200003D5206840F4E05020602878000703D504
:10093000206840F460402060A968206820F0F00042
:10094000084320602878C0072AD0304968680839F1
:10095000012810D00968022810D0890700292EDA52
:10096000216821F0030101432160FFF7FDFE80466D
:1009700041F288390DE009688903EFE78901EDE765
:10098000FFF7F2FEA0EB0801494502D90320BDE8BC
:10099000F0876868216801F00C01B1EB800FEFD19E
:1009A000306800F00F00B8420BD9306820F00F001B
:1009B00038433060306800F00F00B84201D00120A9
:1009C000E5E72878400705D5E968206820F4E0507D
:1009D000084320602878000706D52869216821F49B
:1009E000604141EAC000206000F01CF82168084A1C
:1009F000C1F30311515CC840064908600020FFF7AD
:100A0000CDFE0020C3E70000003C02400838024051
:100A1000DC14000824000020014800687047000032
:100A200024000020154910B51548096811F00C0282
:100A300013D01449042A0FD0082A0ED10F4C241FBA
:100A40002268236802F03F025B0207D52068C0F3EA
:100A50008810A0FB010106E0084610BD2168C1F323
:100A60008811A1FB00010023FFF7CAFB2168C1F335
:100A70000141491C4900B0FBF1F010BD08380240AB
:100A80000024F40040787D012DE9F84F05004FF077
:100A900000076ED02878DFF81C93A9F1040AC0077C
:100AA000AAF104044CD0D9F800104846C1F38101E2
:100AB000012908D00068C0F3810002280AD1DAF8C1
:100AC0000000400206D52068800339D568680028F8
:100AD000DFD035E06868B0F5803F0BD010B1B0F5DD
:100AE000A02F11D0206820F480302060206820F4EE
:100AF000802002E0206840F480302060686890B177
:100B0000FFF732FE06460AE0206840F480202060AD
:100B1000F0E700BFFFF728FE801B642872D820682A
:100B20008003F7D50CE0FFF71FFE064605E000BF87
:100B3000FFF71AFE801B6428F0D820688003F7D4E2
:100B40002878800742D5D9F80010484611F00C0FDC
:100B500008D00068C0F3810002280BD1DAF8000049
:100B6000400207D42068800718D5E868012800D122
:100B700014E01CE1E8680028206817D040F001006C
:100B80002060FFF7F1FD064605E000BFFFF7ECFD32
:100B9000801B0228C2D820688007F7D52869216801
:100BA00021F0F80141EAC00020600FE020F00100D0
:100BB0002060FFF7D9FD064605E000BFFFF7D4FD32
:100BC000801B02281ED820688007F7D428780007E9
:100BD00029D5784869696C3000298046016812D0AF
:100BE00041F001010160FFF7BFFD064605E000BFCF
:100BF000FFF7BAFD801B022804D8D8F80000800750
:100C0000F6D510E089E021F001010160FFF7ACFDAD
:100C1000064604E0FFF7A8FD801B02287DD8D8F81F
:100C200000008007F6D4287840076BD5DFF8848170
:100C300008F13808D8F80000C0000BD4D8F800102C
:100C400041F08051C8F80010D8F80000012700F0EA
:100C50008050009058480168C90512D40168834645
:100C600041F480710160FFF77FFD064605E000BF9B
:100C7000FFF77AFD801B64284FD8DBF80000C00521
:100C8000F6D54C4EA868683601280AD008B1052868
:100C900011D0306820F001003060306820F004008E
:100CA00002E0306840F001003060A868A0B1FFF7B2
:100CB0005BFD83460CE0306840F004003060F0E7F4
:100CC000FFF752FDA0EB0B0141F28830814266D85C
:100CD00030688007F4D50EE0FFF746FD834607E055
:100CE000FFF742FDA0EB0B0141F28830814256D85C
:100CF00030688007F4D42FB1D8F8001021F080516B
:100D0000C8F80010A869C8B3D9F80010C1F3810170
:100D100002294CD00228206800E040E020F08070DA
:100D2000206003D0FFF720FD05463BE0FFF71CFDE8
:100D3000064604E0FFF718FD801B02282FD8206824
:100D40008001F7D4D5E90962D5E907011B4B5708A3
:100D500095F82C20084303EB074343EA8611084328
:100D600040EA026040F00050CAF80000206840F0FD
:100D700080702060FFF7F8FC054606E015E000BF34
:100D8000FFF7F2FC401B022809D820688001F7D544
:100D90000BE000BFFFF7E8FC401B022802D903204C
:100DA000BDE8F88F20688001F4D40020F8E7012026
:100DB000F6E7000008380240007000400000FFFF26
:100DC00004284FF0E020016903D021F00401016103
:100DD000704741F00401FAE77047401EB0F1807F90
:100DE00010B501D3012010BD4FF0E02460610F2148
:100DF000601700F00FFA0020A0610721216110BDEB
:100E000010B5FFF7E9FF10BD7047704770B590F857
:100E10003C20012A1FD0012280F83C2002680F4CA0
:100E20005368A242956802D00D4CA24203D14C688F
:100E300023F4700323430C688968002623F07003B1
:100E40001C43546025F0800502682943916080F8B6
:100E50003C60304670BD022070BD000000000140C3
:100E60000004014010B5040003D094F83D0010B117
:100E700007E0012010BD002084F83C00204600F06F
:100E80000DF8022084F83D002068211D00F05EFA74
:100E9000012084F83D00002010BD000008B5006866
:100EA000B0F1804F08D10548016841F001010160AF
:100EB000006800F00100009008BD000040380240CA
:100EC00070B5044690F83C00012817D03A4E012531
:100ED00084F83C50022084F83D002268906830403D
:100EE00020F47F4090600868502839D00DDC20281D
:100EF0005BD005DC98B3102843D153E0022070BDCD
:100F0000302855D040283CD141E0602830D07028AE
:100F10000CD0B0F5805F03D0B0F5005F31D112E0A6
:100F20002068254A70328168114016E04A682068BE
:100F3000D1E9021300F070FA21688868304040F06F
:100F4000770088601DE04A682068D1E9021300F04C
:100F500063FA2068816841F48041816011E01EE0FD
:100F6000CA684968206800F068FA2068502106E0E5
:100F7000CA684968206800F071FA2068602100F0B2
:100F800054FA002084F83D5084F83C0070BDCA68D3
:100F90004968206800F051FA20684021EFE7206896
:100FA0000021ECE720681021E9E720682021E6E72E
:100FB00020683021E3E7000088FFFEFF704770B52E
:100FC0000446006800250169C943890715D4C16832
:100FD000C943890711D4EA1E0261012121772068E3
:100FE00080698007204602D0FFF7E8FF04E000F0A8
:100FF000A5F8204600F0A3F8257720680169C943C9
:10100000490717D4C168C943490713D402216FF0B7
:101010000402026121772068806910F4407F204635
:1010200002D0FFF7CBFF04E000F088F8204600F084
:1010300086F8257720680169C943090716D4C16875
:10104000C943090712D404216FF008020261217715
:101050002068C0698007204602D0FFF7AFFF04E098
:1010600000F06CF8204600F06AF8257720680169E6
:10107000C943C90617D4C168C943C90613D4082196
:101080006FF01002026121772068C06910F4407F80
:10109000204602D0FFF792FF04E000F04FF8204610
:1010A00000F04DF8257720680169C943C90708D1C8
:1010B000C168C943C90704D1891E0161204600F0F7
:1010C0003FF820686FF080050169C943090607D41D
:1010D000C168C943090603D405612046FFF794FEA1
:1010E00020680169C943C90507D4C168C943090615
:1010F00003D405612046FFF787FE20680169C943D4
:10110000490609D4C168C943490605D46FF04001B6
:101110000161204600F015F820680169C94389067D
:101120000BD4C168C943890607D46FF0200101615F
:101130002046BDE87040FFF768BE70BD704770473D
:1011400070477047FEE700001A4870B586B0016826
:1011500041F001010160016801F0010105910168A0
:1011600041F080010160016801F080010591016892
:1011700041F020010160006800220F4E402100F084
:10118000200005903046FFF7EAFA002569468020E6
:1011900002240294CDE900053046FFF7EFF9402024
:1011A000039401218DE8230069463046FFF7E6F9F4
:1011B00006B070BD303802400014024012486C2264
:1011C00012494FF0804310B5002488B0C0E90241B5
:1011D00004618461C0E90032FFF744FE00B1FEE71C
:1011E0004FF480500390084803A9FFF769FE00B14F
:1011F000FEE70548694600940294FFF707FE0028C1
:1012000000D0FEE708B010BD2800002040420F00CB
:10121000FEE77047090700284FEA116106DA00F07F
:101220000F0000F1E02080F8141D704700F1E0206D
:1012300080F80014704770477047704710B5FFF78B
:1012400099FABDE81040FFF7DBBD0000254830B536
:1012500093B0016841F080510160006800F0805057
:1012600011902148016821F4404141F4804101601E
:10127000006802240121009400F4404011901020E5
:1012800000250423CDE9031008A9CDE906454FF454
:10129000907281E81D006846FFF7F6FB00B1FEE79B
:1012A0004FF480524FF4A0510F20CDE90F120CAA39
:1012B000022182E831000CA8FFF718FB00B1FEE71D
:1012C000FFF7AAFB4FF47A71B0FBF1F0FFF785FD51
:1012D0000420FFF775FD0022501E1146FFF7D4FAD7
:1012E00013B030BD4038024000700040104A30B5A5
:1012F0001048146800210F4B44F470041460083344
:1013000005680D4A0D4C45F001050560196003683C
:10131000051D1340074A03600C322C600568E30585
:10132000034C25F480250560803C1160236030BDAE
:1013300088ED00E000380240FFFFF6FE1030002488
:101340000148FFF73CBE000028000020F0B5274B05
:101350004FF0804E264D02689842264E264F274C6D
:1013600009D0704507D0A84205D0B04203D0B8429A
:1013700001D0A04205D1D1F804C022F070024CEA9D
:10138000020298421BD0704519D0A84217D0B04233
:1013900015D0B84213D0A04211D0194DA8420ED09A
:1013A000184DA8420BD0184DA84208D0174DA8429E
:1013B00005D0174DA84202D0164DA84203D1CD68E2
:1013C00022F440722A434D6922F080022A430260CF
:1013D00098428A68C2620A68826201D0A04201D142
:1013E0000969016301214161F0BD00000000014075
:1013F0000004004000080040000C004000040140D0
:1014000000400140004401400048014000180040F5
:10141000001C00400020004042EA032283680A4387
:1014200023F47F410A4382607047826822F0700291
:101430000A4342F007018160704710B5036A046AED
:1014400023F00A0324F00104046284690B4324F0AE
:10145000F00141EA02118161036210BD10B5036A17
:1014600023F0100303628369046A23F4704324F0B9
:10147000A00443EA0232826144EA0111016210BD14
:10148000FEE702E008C8121F08C1002AFAD170471F
:101490007047002001E001C1121F002AFBD17047F4
:1014A000FFF770F9FFF7D2FEFFF74EFEFFF786FE5B
:1014B00000221C201146FFF7E7F91C20FFF7D8F99E
:1014C000FEF7DCFF044C00BFFEF7FCFF0A2084EDB2
:1014D000000BFFF741F8F7E71000002000000000C4
:1014E0000000000001020304060708090C150008AB
:1014F00000000020280000008214000834150008B5
:1015000028000020400400009214000800000000A1
:1015100000000000000000000000000000000000CB
:1015200000000000010000001000000000000000AA
:041530000024F4009F
:04000005080001C925
:00000001FF
