:020000040800F2
:1000000018040020DD010008B10E0008AD0E000844
:10001000AF0E0008BD050008E50F00080000000055
:10002000000000000000000000000000D70E0008E3
:10003000BF05000800000000D50E0008D90E00081A
:10004000F7010008F7010008F7010008F7010008B0
:10005000F7010008F7010008F7010008F7010008A0
:10006000F7010008F7010008F7010008F701000890
:10007000F7010008F7010008F7010008F701000880
:10008000F7010008F7010008F7010008F701000870
:10009000F7010008F7010008F7010008F701000860
:1000A000F7010008F7010008F7010008F701000850
:1000B000F7010008F7010008F7010008F701000840
:1000C000F7010008F7010008F7010008F701000830
:1000D000F7010008F7010008F7010008F701000820
:1000E000F7010008F7010008F7010008F701000810
:1000F000F7010008F7010008F7010008F701000800
:10010000F7010008F7010008F7010008F7010008EF
:10011000F7010008F7010008F7010008F7010008DF
:10012000F7010008F7010008F7010008F7010008CF
:10013000F7010008F7010008F7010008F7010008BF
:10014000F7010008F7010008F7010008F7010008AF
:10015000F7010008F7010008F7010008F70100089F
:10016000F7010008F7010008F7010008F70100088F
:10017000F7010008F7010008F7010008000000007F
:10018000F7010008F7010008F7010008F70100086F
:10019000F7010008F7010008F7010008F70100085F
:1001A000F7010008F7010008F7010008F70100084F
:1001B000F7010008F7010008F7010008F70100083F
:1001C000F7010008F7010008DFF80CD000F0E4F9AF
:1001D0000048004705100008180400200648804722
:1001E00006480047FEE7FEE7FEE7FEE7FEE7FEE71C
:1001F000FEE7FEE7FEE7FEE7910F0008C9010008F1
:100200002DE9F05F0546002092469B46884606464B
:10021000814640241BE0284641464746224600F0DE
:1002200005F953465A46C01A914110D31146184653
:10023000224600F0ECF82D1A67EB01084F462246E3
:100240000120002100F0E3F817EB00094E41201EC9
:10025000A4F10104DFDC484631462A464346BDE8A6
:10026000F09F2DE9FE4F804681EA0300C00F0C4647
:10027000009021F0004123F00045B8EB0200A941B5
:1002800005D24046214690461C460B46024623F0C6
:100290000040104347D0270DC7F30A00C3F30A51AB
:1002A0000290401A019040286BDAC3F3130040F427
:1002B000801B0098924620B10023D2EB030A63EB27
:1002C0000B0B01985946C0F14002504600F09FF8D0
:1002D00006460D4650465946019A00F0B7F810EB15
:1002E00008006141002487EA115284EAE7731A4347
:1002F00040D0009A62B3019A012A4FEA075215DCF6
:10030000001B61EB02014FF0004202EA0752CDE907
:100310000042001C41F5801132462B4600F0EEF8F9
:1003200003B0BDE8F08F40462146F9E7001B61EBC2
:100330000201001C41F5801300185B412018A2F552
:10034000001747EB030140EAD570B6196D4111E083
:100350006D084FEA360645EAC0754FEA0752001BA2
:1003600061EB0201001C41F5801149084FEA3000A1
:100370000019514132462B4603B0BDE8F04F00F062
:10038000AEB80098012240000023D0EB020263EBDC
:10039000E073009821464FEAE074B8EB000061EB8F
:1003A0000401E9E783F000435BE781F0004158E78F
:1003B00000F0004230F000400AD0C10D01F560713C
:1003C000C0F3160042EA0151C208400711437047CA
:1003D00000200146704701F0004330B421F0004195
:1003E00050EA010206D00A0DA2F56072C1F31301B2
:1003F000002A02DC30BC00207047440F44EAC104EC
:10040000C100E01830BC00EBC25000F031B8202A27
:1004100004DB203A00FA02F1002070479140C2F15B
:10042000200320FA03F3194390407047202A04DB8D
:10043000203A21FA02F00021704721FA02F3D0405D
:10044000C2F120029140084319467047202A06DB7A
:10045000CB17203A41FA02F043EAE07306E041FA92
:1004600002F3D040C2F12002914008431946704780
:100470000029A8BF7047401C490008BF20F00100B8
:10048000704710B4B0FA80FC00FA0CF050EA010496
:1004900004BF10BC704749B1CCF1200421FA04F428
:1004A00011FA0CF118BF012121430843A3EB0C0101
:1004B000CB1D4FEA00614FEA102042BF002010BC64
:1004C000704700EBC35010440029A4BF10BC704714
:1004D000401C490008BF20F0010010BC704710B557
:1004E000141E73F1000408DA401C41F10001921857
:1004F0005B411A4301D120F0010010BD2DE9F04D00
:1005000092469B4611B1B1FA81F202E0B0FA80F254
:1005100020329046FFF77BFF04460F4640EA0A0070
:1005200041EA0B0153465A46084313D0114653EA99
:10053000010019D0C8F140025046FFF777FF054689
:100540000E46504659464246FFF761FF084305D024
:10055000012004E020463946BDE8F08D0020054327
:1005600046EAE0762C4337430A986305E40AA0EB99
:1005700008000022FD0A44EA47540A3002D5002050
:100580000146E9E7010510196941DDE9084500194F
:100590006941BDE8F04DA2E7064C074D06E0E06872
:1005A00040F0010394E8070098471034AC42F6D3BA
:1005B000FFF70EFEA4100008C4100008FEE7704705
:1005C00070B5044600F000F90546601C02D00448EE
:1005D0000078044400F0F8F8401BA042FAD370BD44
:1005E000080000202DE9F84FDFF89CE100224FF0D1
:1005F00001084FF0030B4FF00F0A00BF0B6808FA19
:1006000002F42340A34271D14D68022D01D0122D76
:100610000FD1D5080E69570700EB8505A9462D6A4D
:10062000FF0E0AFA07FCBE4025EA0C052E43C9F866
:1006300020600F79550006680BFA05FC07F00307E8
:1006400026EA0C06AF40374307604E68012E05D0FE
:10065000022E03D0112E01D0122E0ED18668CF6843
:1006600026EA0C06AF403743876046680F79A643F9
:10067000C7F30017974037434760C4688E6824EA81
:100680000C04AE402643C6604C68E40075D53F4C70
:10069000256845F480452560246822F00306950707
:1006A00004F4804400943A4C2D0F2644D6F80848B0
:1006B000DFF8E0C00AFA05F7604524EA070401D133
:1006C00000272EE0344FB84201D1012729E0334FF3
:1006D000B84201D1022724E0314FB84201D10327AB
:1006E0001FE0304FB84202D104271AE045E02E4FF8
:1006F000B84201D1052714E02C4FB84201D106279A
:100700000FE02B4FB84201D107270AE0294FB8422A
:1007100001D1082705E0284FB84201D1092700E0A0
:100720000A27AF4027437546C6F808784E68DEF8BA
:100730000040F60324EA030400D51C43124E2C604B
:10074000361D4D683468AD0324EA030400D51C430C
:100750000D4F346008374D683C68ED0224EA03040D
:1007600000D51C43084D3C600C354E682C68B60221
:1007700024EA030400D51C432C60521C102AFFF409
:100780003DAFBDE8F88F0000003C01404438024016
:100790000030014000000240000402400008024016
:1007A000000C0240001002400014024000180240F9
:1007B000001C024000200240002402400AB1816176
:1007C00070470904FBE7000001488068704700009B
:1007D0000800002002488168027811448160704757
:1007E00008000020032010B500F08AF8002000F077
:1007F00005F800F023F8002010BD000070B50D4D85
:1008000004464FF47A700C4A29781268B0FBF1F074
:10081000B2FBF0F000F033FB48B9102C07D20022F5
:100820002146501E00F04CF800206C6070BD012085
:1008300070BD000008000020140000201F4808B50B
:10084000016841F080510160006800F08050009024
:100850001A48001D016841F480410160006800F4FD
:1008600080400090032000F04BF800226FF00B0056
:10087000114600F025F800226FF00A00114600F042
:100880001FF800226FF00900114600F019F800224D
:10089000501F114600F014F80022101F114600F0FE
:1008A0000FF80022901E114600F00AF80022BDE861
:1008B0000840501E114600F003B8000040380240C6
:1008C0000E4BF0B41B680D46C3F30223C3F10706B9
:1008D000042E00D90426191D072901D2002300E0A7
:1008E000DB1E012404FA06F19C40491E2940641EC7
:1008F000994014402143F0BC00F0DBBA0CED00E05D
:10090000064900F0070210B54FF6FF040868044BD3
:10091000204040EA02201843086010BD0CED00E0C2
:100920000000FA051848F8B5016841F080510160EF
:100930000068164C00F080500090206840F4803031
:100940002060FFF741FF4FF47A76054605E000BFCF
:10095000FFF73AFF401BB0420FD86068C003F7D5DD
:10096000206840F400302060FFF72EFF054606E0C7
:10097000FFF72AFF401BB04201D90320F8BD606891
:100980008003F5D50020F8BD4038024000700040DB
:100990002DE9F04705000F4663D0444E306800F063
:1009A0000F00B84209D2306820F00F0038433060A1
:1009B000306800F00F00B84253D128683C4C8107E2
:1009C00012D5400703D5206840F4E0502060287815
:1009D000000703D5206840F460402060A9682068C3
:1009E00020F0F000084320602878C0072AD0304962
:1009F00068680839012810D00968022810D08907D2
:100A000000292EDA216821F0030101432160FFF75C
:100A1000DBFE804641F288390DE009688903EFE783
:100A20008901EDE7FFF7D0FEA0EB0801494502D9A7
:100A30000320BDE8F0876868216801F00C01B1EB84
:100A4000800FEFD1306800F00F00B8420BD930684A
:100A500020F00F0038433060306800F00F00B842DB
:100A600001D00120E5E72878400705D5E96820682E
:100A700020F4E050084320602878000706D5286954
:100A8000216821F4604141EAC000206000F01CF8B8
:100A90002168084AC1F30311515CC8400649086047
:100AA0000020FFF7ABFE0020C3E70000003C02403F
:100AB0000838024094100008140000200148006823
:100AC0007047000014000020154910B5154809684A
:100AD00011F00C0213D01449042A0FD0082A0ED1A9
:100AE0000F4C241F2268236802F03F025B0207D5E7
:100AF0002068C0F38810A0FB010106E0084610BD85
:100B00002168C1F38811A1FB00010023FFF778FBE6
:100B10002168C1F30141491C4900B0FBF1F010BD4F
:100B2000083802400024F40040787D012DE9F84F98
:100B300005004FF000076ED02878DFF81C93A9F16C
:100B4000040AC007AAF104044CD0D9F800104846A2
:100B5000C1F38101012908D00068C0F38100022897
:100B60000AD1DAF80000400206D52068800339D5A2
:100B700068680028DFD035E06868B0F5803F0BD0AA
:100B800010B1B0F5A02F11D0206820F48030206083
:100B9000206820F4802002E0206840F4803020604B
:100BA000686890B1FFF710FE06460AE0206840F43E
:100BB00080202060F0E700BFFFF706FE801B64285E
:100BC00072D820688003F7D50CE0FFF7FDFD0646DC
:100BD00005E000BFFFF7F8FD801B6428F0D820680F
:100BE0008003F7D42878800742D5D9F8001048460A
:100BF00011F00C0F08D00068C0F3810002280BD15F
:100C0000DAF80000400207D42068800718D5E868A9
:100C1000012800D114E01CE1E8680028206817D002
:100C200040F001002060FFF7CFFD064605E000BF61
:100C3000FFF7CAFD801B0228C2D820688007F7D5BD
:100C40002869216821F0F80141EAC00020600FE026
:100C500020F001002060FFF7B7FD064605E000BF69
:100C6000FFF7B2FD801B02281ED820688007F7D44A
:100C70002878000729D5784869696C3000298046B2
:100C8000016812D041F001010160FFF79DFD0646A9
:100C900005E000BFFFF798FD801B022804D8D8F8B4
:100CA00000008007F6D510E089E021F00101016025
:100CB000FFF78AFD064604E0FFF786FD801B022849
:100CC0007DD8D8F800008007F6D4287840076BD587
:100CD000DFF8848108F13808D8F80000C0000BD490
:100CE000D8F8001041F08051C8F80010D8F8000082
:100CF000012700F08050009058480168C90512D4BF
:100D00000168834641F480710160FFF75DFD06468E
:100D100005E000BFFFF758FD801B64284FD8DBF8C3
:100D20000000C005F6D54C4EA868683601280AD0E8
:100D300008B1052811D0306820F00100306030681B
:100D400020F0040002E0306840F001003060A86844
:100D5000A0B1FFF739FD83460CE0306840F0040095
:100D60003060F0E7FFF730FDA0EB0B0141F2883077
:100D7000814266D830688007F4D50EE0FFF724FD85
:100D8000834607E0FFF720FDA0EB0B0141F288301E
:100D9000814256D830688007F4D42FB1D8F80010BB
:100DA00021F08051C8F80010A869C8B3D9F8001024
:100DB000C1F3810102294CD00228206800E040E004
:100DC00020F08070206003D0FFF7FEFC05463BE07A
:100DD000FFF7FAFC064604E0FFF7F6FC801B02284A
:100DE0002FD820688001F7D4D5E90962D5E9070139
:100DF0001B4B570895F82C20084303EB074343EAA5
:100E00008611084340EA026040F00050CAF8000032
:100E1000206840F080702060FFF7D6FC054606E0B1
:100E200015E000BFFFF7D0FC401B022809D820685E
:100E30008001F7D50BE000BFFFF7C6FC401B02287E
:100E400002D90320BDE8F88F20688001F4D4002087
:100E5000F8E70120F6E70000083802400070004083
:100E60000000FFFF04284FF0E020016903D021F0CB
:100E700004010161704741F00401FAE77047401E28
:100E8000B0F1807F10B501D3012010BD4FF0E024F8
:100E900060610F21601700F00CF80020A0610721AD
:100EA000216110BD10B5FFF7E9FF10BDFEE7FEE7B9
:100EB0007047090700284FEA116106DA00F00F00B9
:100EC00000F1E02080F8141D704700F1E02080F868
:100ED000001470477047704710B5FFF77BFCBDE802
:100EE0001040FFF7DFBF0000274830B593B001681E
:100EF00041F080510160006800F08050119023485B
:100F0000016841F4404101600068022419230893FC
:100F100000F44040119001204FF4D875820501047F
:100F2000CDE90642CDE909540B94CDE900016846AC
:100F3000FFF7FCFD00B1FEE7FFF7F4FC00B1FEE7B0
:100F40000EAD00214FF4A0524FF4805385E80E00FF
:100F50000F20CDE90C0407210CA8FFF719FD00B103
:100F6000FEE7FFF7ABFD4FF47A71B0FBF1F0FFF74E
:100F700086FF0420FFF776FF0022501E1146FFF780
:100F80009FFC13B030BD00004038024000700040AC
:100F9000104A30B51048146800210F4B44F4700417
:100FA0001460083305680D4A0D4C45F001050560D5
:100FB00019600368051D1340074A03600C322C605A
:100FC0000568E305034C25F480250560803C11602D
:100FD000236030BD88ED00E000380240FFFFF6FEE0
:100FE00010300024FEE702E008C8121F08C1002AE2
:100FF000FAD170477047002001E001C1121F002A9A
:10100000FBD170472DED028B86B0FFF7EBFBFFF7AE
:101010006BFF1B48016841F480710160016801F4B5
:1010200080710591016841F0800101600068002233
:10103000144C022100F0800005902046FFF7BEFB13
:1010400000210220009001222046CDE901210391D8
:101050006946FFF7C7FA0C4C9FED0C8B2068401CCB
:1010600020606068FFF7A4F953EC182BFFF7F9F83C
:10107000FFF7B1F960603220FFF7A2FAEEE7000057
:101080003038024000200240000000209A999999CF
:101090009999B93F0000000000000000010203041C
:1010A00006070809C410000800000020180000000E
:1010B000E60F0008DC100008180000200004000003
:1010C000F60F000800000000000000000100000012
:0C10D00010000000000000000024F400EC
:04000005080001C925
:00000001FF
