:020000040800F2
:10000000F0040020DD010008A72A0008991F00085D
:10001000A52A00083D080008292D0008000000005E
:10002000000000000000000000000000CD2A0008D1
:100030003F08000800000000CB2A0008CF2A000873
:10004000F7010008F7010008F7010008F7010008B0
:10005000F7010008F7010008F7010008F7010008A0
:10006000F7010008F7010008F7010008F701000890
:10007000F7010008F7010008F7010008F701000880
:10008000F7010008F7010008F7010008F701000870
:10009000F7010008F7010008F7010008F701000860
:1000A000F7010008E92B0008F7010008F701000834
:1000B000F7010008F7010008F7010008A91F000870
:1000C0009D1F0008F7010008F7010008F70100086C
:1000D000F7010008F7010008F7010008F701000820
:1000E000F7010008F7010008F7010008F701000810
:1000F000F7010008F7010008F7010008F701000800
:10010000F7010008F7010008F7010008F7010008EF
:10011000F7010008F7010008F7010008F7010008DF
:10012000F7010008F7010008F7010008F7010008CF
:10013000F7010008F7010008F7010008F7010008BF
:10014000F7010008F7010008F7010008F7010008AF
:10015000F7010008F7010008F7010008F70100089F
:10016000F7010008F7010008F7010008F70100088F
:10017000F7010008F7010008F7010008000000007F
:10018000F7010008F7010008F7010008F70100086F
:10019000F7010008F7010008F7010008F70100085F
:1001A000F7010008F7010008F7010008F70100084F
:1001B000F7010008F7010008F7010008F70100083F
:1001C000F7010008F7010008DFF80CD000F024FB6D
:1001D00000480047CD320008F00400200648804760
:1001E00006480047FEE7FEE7FEE7FEE7FEE7FEE71C
:1001F000FEE7FEE7FEE7FEE7952B0008C9010008D1
:100200002DE9F05F0546002092469B46884606464B
:10021000814640241BE0284641464746224600F0DE
:10022000F3F953465A46C01A914110D31146184665
:10023000224600F0DAF92D1A67EB01084F462246F4
:100240000120002100F0D1F917EB00094E41201EDA
:10025000A4F10104DFDC484631462A464346BDE8A6
:10026000F09F2DE9FE4F804681EA0300C00F0C4647
:10027000009021F0004123F00045B8EB0200A941B5
:1002800005D24046214690461C460B46024623F0C6
:100290000040104347D0270DC7F30A00C3F30A51AB
:1002A0000290401A019040286BDAC3F3130040F427
:1002B000801B0098924620B10023D2EB030A63EB27
:1002C0000B0B01985946C0F14002504600F08DF9E1
:1002D00006460D4650465946019A00F0A5F910EB26
:1002E00008006141002487EA115284EAE7731A4347
:1002F00040D0009A62B3019A012A4FEA075215DCF6
:10030000001B61EB02014FF0004202EA0752CDE907
:100310000042001C41F5801132462B4600F0DCF90A
:1003200003B0BDE8F08F40462146F9E7001B61EBC2
:100330000201001C41F5801300185B412018A2F552
:10034000001747EB030140EAD570B6196D4111E083
:100350006D084FEA360645EAC0754FEA0752001BA2
:1003600061EB0201001C41F5801149084FEA3000A1
:100370000019514132462B4603B0BDE8F04F00F062
:100380009CB90098012240000023D0EB020263EBED
:10039000E073009821464FEAE074B8EB000061EB8F
:1003A0000401E9E783F000435BE781F0004158E78F
:1003B0002DE9FE4F81EA030404F0004421F00041DE
:1003C00000944FF0000B23F0004350EA01045ED08C
:1003D00052EA03045BD0C3F30A54C1F30A552C4418
:1003E000A4F2F3340194A0FB0254C1F3130141F4CD
:1003F0008011C3F3130343F4801301FB024400FB99
:10040000034E840A970A44EA815447EA8357A4FBBF
:10041000076802958D0A05FB07854FEA932C04FBBC
:100420000C542705029D4FEA065847EA1637B5EBEC
:1004300008056EEB070C870E920E47EA811742EA19
:100440008312A7FB0201B6EB0B0164EB00042B0D3A
:1004500043EA0C335E1844EB1C50DA465146E7FB86
:100460000201C5F313044FEA0B3343EA14534FEA76
:100470000432019C43EA0603A4F10C040294009C9C
:10048000CDE900B400F028F903B0BDE8F08F0020FA
:100490000146F9E72DE9F04D81EA030404F0004B31
:1004A00021F0004514464FF0000A23F0004150EAC5
:1004B000050220D054EA01021DD0C5F30A570246B6
:1004C000C5F31303C1F31300C1F30A5640F48015BA
:1004D00043F48013A7EB0608101BD64608F2FD383C
:1004E00073EB050002D308F1010801E092185B41AB
:1004F000B8F1000F03DA00200146BDE8F08D0020BE
:100500004FF48011064684460EE0171B73EB050777
:1005100005D3121B63EB050306434CEA010C4908A3
:100520004FEA300092185B4150EA0107EDD152EAE0
:10053000030012D082EA040083EA0501084305D0D3
:10054000101BAB4106D20122002306E000224FF02F
:10055000004302E06FF0010253101AEB06004CEB6F
:10056000085110EB0A0041EB0B01BDE8F04D00F023
:10057000A4B80EB540F2334102910021CDE900113B
:100580000A460B4600F0A8F803B000BD00F0004298
:1005900030F000400AD0C10D01F56071C0F31600C3
:1005A00042EA0151C208400711437047002001464A
:1005B000704701F0004330B421F0004150EA0102DD
:1005C00006D00A0DA2F56072C1F31301002A02DC05
:1005D00030BC00207047440F44EAC104C100E01859
:1005E00030BC00EBC25000F031B8202A04DB203AC6
:1005F00000FA02F1002070479140C2F1200320FA76
:1006000003F3194390407047202A04DB203A21FA73
:1006100002F00021704721FA02F3D040C2F120021B
:100620009140084319467047202A06DBCB17203A31
:1006300041FA02F043EAE07306E041FA02F3D040E7
:10064000C2F1200291400843194670470029A8BF13
:100650007047401C490008BF20F00100704710B4EB
:10066000B0FA80FC00FA0CF050EA010404BF10BCA0
:10067000704749B1CCF1200421FA04F411FA0CF1CD
:1006800018BF012121430843A3EB0C01CB1D4FEA06
:1006900000614FEA102042BF002010BC704700EB01
:1006A000C35010440029A4BF10BC7047401C49002F
:1006B00008BF20F0010010BC704710B5141E73F184
:1006C000000408DA401C41F1000192185B411A4312
:1006D00001D120F0010010BD2DE9F04D92469B465E
:1006E00011B1B1FA81F202E0B0FA80F22032904604
:1006F000FFF77BFF04460F4640EA0A0041EA0B0180
:1007000053465A46084313D0114653EA010019D004
:10071000C8F140025046FFF777FF05460E465046A7
:1007200059464246FFF761FF084305D0012004E027
:1007300020463946BDE8F08D0020054346EAE076C4
:100740002C4337430A986305E40AA0EB0800002213
:10075000FD0A44EA47540A3002D500200146E9E781
:10076000010510196941DDE9084500196941BDE835
:10077000F04DA2E72DE9F04D00231A461B1A8A41DD
:1007800003DB00200146BDE8F08DC1F30A52C1F33E
:10079000130141F480154FF0000BD10702D100186E
:1007A0006D41521E0027044640F2FF11384601EB0E
:1007B000620A3E468046024600204FF48011FFF751
:1007C00023FFC2197141BB1846EB0100B4EB030CC7
:1007D00075EB000C04D3E41A65EB000517460E46D2
:1007E000241908F101006D4180463428E3DDF91930
:1007F00046EB0600091BA84103D24FF0FF32134617
:1008000001E0002213461BEB070046EB0A51BDE84E
:10081000F04DFFF752BF0000064C074D06E0E068C0
:1008200040F0010394E8070098471034AC42F6D337
:10083000FFF7CEFCF033000810340008FEE77047E5
:1008400090F83510022903D08021416501207047BE
:10085000052180F835100068016821F00101016070
:100860000020704770B5044600F000F90546601C92
:1008700002D004480078044400F0F8F8401BA0427D
:10088000FAD370BD500000202DE9F84FDFF89CE14D
:1008900000224FF001084FF0030B4FF00F0A00BF8A
:1008A0000B6808FA02F42340A34271D14D68022D6F
:1008B00001D0122D0FD1D5080E69570700EB850521
:1008C000A9462D6AFF0E0AFA07FCBE4025EA0C0570
:1008D0002E43C9F820600F79550006680BFA05FC15
:1008E00007F0030726EA0C06AF40374307604E685F
:1008F000012E05D0022E03D0112E01D0122E0ED1C2
:100900008668CF6826EA0C06AF40374387604668A2
:100910000F79A643C7F30017974037434760C46871
:100920008E6824EA0C04AE402643C6604C68E4009E
:1009300075D53F4C256845F480452560246822F034
:100940000306950704F4804400943A4C2D0F264486
:10095000D6F80848DFF8E0C00AFA05F7604524EA4F
:10096000070401D100272EE0344FB84201D10127FE
:1009700029E0334FB84201D1022724E0314FB84279
:1009800001D103271FE0304FB84202D104271AE0FB
:1009900045E02E4FB84201D1052714E02C4FB84254
:1009A00001D106270FE02B4FB84201D107270AE0FB
:1009B000294FB84201D1082705E0284FB84201D19C
:1009C000092700E00A27AF4027437546C6F8087894
:1009D0004E68DEF80040F60324EA030400D51C4309
:1009E000124E2C60361D4D683468AD0324EA0304B2
:1009F00000D51C430D4F346008374D683C68ED024C
:100A000024EA030400D51C43084D3C600C354E68B5
:100A10002C68B60224EA030400D51C432C60521C47
:100A2000102AFFF43DAFBDE8F88F0000003C014004
:100A300044380240003001400000024000040240FF
:100A400000080240000C0240001002400014024066
:100A500000180240001C0240002002400024024016
:100A60000AB1816170470904FBE700000148806812
:100A7000704700005000002030B590F84120202A37
:100A800024D190F84020012A20D0012380F8403062
:100A9000242280F84120202300240268156825F0D4
:100AA000010515600268156825F480551560026817
:100AB00015680D43156001680A6842F001020A607A
:100AC00080F8413080F84040002030BD022030BD29
:100AD00030B590F84120202A22D190F84020012AF8
:100AE0001ED0012380F84030242280F841202024A9
:100AF00000250268136823F001031360026813687D
:100B000023F4706343EA0121116001680A6842F02E
:100B100001020A6080F8414080F84050002030BD5A
:100B2000022030BD7047704730B403689A69196875
:100B3000D40508D50C0606D5456C4FF4807445F0F5
:100B400001054564DC61530509D50B0607D5446CE6
:100B50004FF4806344F0080444640468E361920540
:100B600009D5090607D5426C4FF4007142F0020224
:100B700042640268D161416C11F00B0F03D0416CEB
:100B800030BC01F0B1BA30BC70470268436B916968
:100B90001268002B00D018477047704770B50400EA
:100BA00004D094F84100002510B106E0012070BD8A
:100BB000204684F8405000F00DFA242084F84100CB
:100BC0002068016821F001010160D4E9001020F0E3
:100BD000706008612068816821F400418160E068EC
:100BE00021680128A06806D040F404408860E068CD
:100BF000022803D006E040F40040F7E721684FF4F4
:100C00000060486020212068114A43681343436014
:100C10002068C26822F40042C26054F8106B0DCC08
:100C2000104340EA0320F06054F81C3CD4E9000271
:100C30001043186054F81C0D026842F00102026073
:100C4000656484F84110256384F84250002070BD2B
:100C5000008000022DE9FC47002704469946924691
:100C60000197884690F8410020287CD1206880694F
:100C7000C043000477D594F84000012873D00121C7
:100C800084F84010242084F8410020256764E0683F
:100C9000012809D028F4544040F4205021684860CD
:100CA000FFF7E4FE064615E0304A314948EA020003
:100CB0000840F3E7B9F1FF3F0CD0B9F1000F04D0C1
:100CC000FFF7D4FE811B494504D984F8415084F8CC
:100CD00040703FE020688169C943890607D5806973
:100CE000C043C00603D594F84100A028E2D1206893
:100CF00080694B464FF000024FF02001C043009640
:100D0000C00620460BD501F00FFC18BB2068C5615A
:100D100084F84150002084F84070BDE8FC8701F061
:100D200003FCB8B921681020C8612068C56101982A
:100D3000504500F10100019011D12068416841F453
:100D40008041416000224B4620212046009601F060
:100D5000EBFB10B10320E0E705E02068C5610199D5
:100D6000514594D3B1E70220D7E7000000200002EC
:100D7000FF230002704700002DE9F84F044690F869
:100D800041001F469046DDF828A08B4620287DD1E3
:100D900094F84000012879D0012084F84000FFF742
:100DA00065FE0122064619230090D103204601F07A
:100DB000BBFB38BB0025222184F84110102084F8A9
:100DC000420065646785618DFF2735484FF00079E3
:100DD000C4F82480FF294FF08078656303D9278504
:100DE0003A46009032E0618D2185009033E059460B
:100DF000204601F083FB32E001F0C0FB18B1606CCB
:100E0000042848D019E02168606A496A421C62627D
:100E10000170208D401E0004000C2085618DA1F121
:100E2000010161851BD1608DC8B10022534680212C
:100E30002046009601F078FB10B10320BDE8F88F42
:100E4000608DFF2804D927853A4600954346CEE7B2
:100E5000608D208500954B4694F82820C7E7608D6B
:100E60003246514600282046C6D101F0CDFB00286D
:100E7000C5D1206820210B4AC16120684368134016
:100E8000436084F8411084F8425000E005E00020FF
:100E900084F84050D2E70120D0E70220CEE70000DE
:100EA0000024008000E800FE2DE9F84F044690F889
:100EB00041001F469046DDF828A08B4620287CD1B3
:100EC00094F8400001287FD0012084F84000FFF70B
:100ED000CDFD0122064619230090D103204601F0E2
:100EE00023FB38BB0025212184F84110102084F811
:100EF000420065646785618DFF2734484FF00079B3
:100F0000C4F82480FF294FF08078656303D92785D2
:100F10003A46009031E0618D2185009032E05946DB
:100F2000204601F0EBFA31E001F096FB18B1606C5D
:100F3000042847D018E0606A411C6162017820688B
:100F40008162608D401E6085208D401E0004000C73
:100F500020851BD1608DC8B10022534680212046D8
:100F6000009601F0E1FA10B10320BDE8F88F608D22
:100F7000FF2804D927853A4600954346CFE7608D80
:100F8000208500954B4694F82820C8E7608D3246AE
:100F9000514600282046C7D101F036FB0028C6D1B3
:100FA000206820210A4AC1612068436813404360D9
:100FB00084F8411084F8425000E005E0002084F8F5
:100FC0004050D2E70120D0E70220CEE70020008089
:100FD00000E800FE10B5006886B01549884224D1AB
:100FE00012210122032304244FF440708DE81F00D6
:100FF00010486946FFF748FC0F48016841F40011AA
:10100000016000680022114600F4001005901F20C6
:1010100000F098F81F2000F089F8002220201146E7
:1010200000F090F8202000F081F806B010BD00001C
:1010300000540040000402404038024070477047AE
:101040000248816802781144816070475000002096
:10105000032010B500F096F8002000F005F800F02D
:1010600023F8002010BD000070B50D4D04464FF46C
:101070007A700C4A29781268B0FBF1F0B2FBF0F0FC
:1010800000F0BDFD48B9102C07D200222146501EA9
:1010900000F058F800206C6070BD012070BD0000A9
:1010A000500000205C0000201F4808B5016841F096
:1010B00080510160006800F0805000901A48001DC7
:1010C000016841F480410160006800F480400090B4
:1010D000032000F057F800226FF00B00114600F0DB
:1010E00031F800226FF00A00114600F02BF80022C0
:1010F0006FF00900114600F025F80022501F11463C
:1011000000F020F80022101F114600F01BF800220A
:10111000901E114600F016F80022BDE80840501E4F
:10112000114600F00FB8000040380240410900F0BD
:101130001F028900012001F1E0219040C1F8000167
:10114000704700000E4BF0B41B680D46C3F302233A
:10115000C3F10706042E00D90426191D072901D260
:10116000002300E0DB1E012404FA06F19C40491E26
:101170002940641E994014402143F0BC01F094BC06
:101180000CED00E0064900F0070210B54FF6FF0431
:101190000868044B204040EA02201843086010BD54
:1011A0000CED00E00000FA051848F8B5016841F0C0
:1011B000805101600068164C00F08050009020685B
:1011C00040F480302060FFF751FC4FF47A760546FA
:1011D00005E000BFFFF74AFC401BB0420FD8606833
:1011E000C003F7D5206840F400302060FFF73EFCD4
:1011F000054606E0FFF73AFC401BB04201D9032048
:10120000F8BD60688003F5D50020F8BD4038024085
:10121000007000402DE9F84F04460078DFF8249470
:101220004FF000063746C0070ED0D9F8001021F461
:101230000001C9F80010D9F80010626B1143C9F819
:101240000010606B00B90126FE4D20688435000354
:101250000ED5E16B286820F4401008432860E06B4D
:10126000B0F5801F01D010B102E0012600E0012797
:1012700020684FF4800BC0020CD5216C286820F444
:10128000400008432860206C584501D1012601E048
:1012900000B901272068C10100D50126800666D566
:1012A000E8483830016841F0805101600068DFF89B
:1012B00098A300F080500090DAF8001041F480719B
:1012C000CAF80010FFF7D2FB804605E0FFF7CEFB1F
:1012D000A0EB080064287DD8DAF80000C005F5D539
:1012E000DFF8608308F16808D8F8000010F4407057
:1012F0002AD0218E01F44071814225D0D8F8001007
:10130000D8F8002021F4407142F48032C8F800205F
:10131000D8F8002022F48032C8F80020C8F8001065
:10132000D8F80000C0070FD0FFF7A0FB824607E007
:10133000FFF79CFBA0EB0A0141F288308142CAD83A
:10134000D8F800008007F3D5206BC0F301210329F2
:101350007ED0D9F8001021F4F811C9F80010228EBF
:10136000D8F80010C2F30B021143C8F8001020781F
:10137000C00607D5286820F0807028602868A16B17
:10138000084328602188AF488830490405D5626E3B
:10139000016821F44031114301602188090405D519
:1013A000A26E016821F44021114301602168C90344
:1013B00005D5E26E016821F44011114301602168F6
:1013C000890305D5226F016821F4400111430160B2
:1013D000217800E018E1490605D5626C016821F02A
:1013E0000301114301602178090605D5A26C01684B
:1013F00021F00C01114301602188C90505D5E26C7B
:10140000016821F03001114301602188890505D56B
:10141000226D016821F0C001114301602188490556
:1014200005D5626D016821F4407111430160218886
:10143000090505D5A26D016821F4406111430160E1
:101440002188C90407D5E26D016821F4405100E00C
:1014500041E0114301602188890405D5226E0168AD
:1014600021F44041114301602168490205D5A26F72
:10147000016821F080611143016021684FF0006A2A
:10148000890209D5E26F016821F000611143016012
:10149000E16F514500D1012721680A0700D50127D6
:1014A000490305D5626F016821F040711143016065
:1014B0002168090206D5D4F88020016821F0805106
:1014C00011430160DFF88491012E0ED02068B0F145
:1014D000007F0AD08FE05E4AD9F80030104023F434
:1014E000F8120243C9F8002039E7D9F800004E4647
:1014F00020F08060C9F80000FFF7B8FA804605E0E8
:10150000FFF7B4FAA0EB080064287DD8306800012A
:10151000F6D421784B487C30C90712D0616B81B971
:10152000237A62680168D0F800C09201C1F30141DA
:1015300042EA0142CCF3036142EA016141EA0371EC
:10154000016021680A0303D5E26BB2F5801F04D065
:10155000C9021AD5216C594517D16368016894F8FE
:101560000CC002689B01C1F3014143EA0141C2F38F
:10157000027241EA0C6141EA027101602968626A03
:1015800021F01F01521E114329602168C90110D5A5
:10159000238A62680168D0F800C09201C1F3036138
:1015A00042EA034242EA0162CCF3027142EA01716B
:1015B0000160216889010CD56168228A237B94F837
:1015C00008C0890141EA024141EA036141EA0C7124
:1015D00001603168B04641F080613160FFF746FA42
:1015E000064604E0FFF742FA801B64280CD8D8F8BE
:1015F00000000001F6D56FB3D9F800004E4620F088
:101600008050C9F8000000E079E0FFF72FFA0746A4
:1016100005E000BFFFF72AFAC01B64286FD83068C6
:10162000C0438000F6D50748216880300A0301D501
:10163000E26B1AB1C90225D5216C19BB6369016837
:10164000277E08E008380240007000400038024061
:10165000FFFCFF0F5AE00268C1F301419B0143EA1E
:101660000143C2F3027143EA076242EA0171016079
:1016700029686FF0FF03A26A21F4F85103EB0222FC
:10168000114329602168890212D5E16F51450FD1BC
:10169000238C6269016807689201C1F3036142EA21
:1016A000034242EA0162C7F3027142EA017101603A
:1016B0002178090716D561690268D0F800C08B014E
:1016C000277FC2F30362CCF3014143EA014141EABF
:1016D000026141EA077101602868E16A20F4403044
:1016E00008432860306840F080503060FFF7BEF952
:1016F000044607E0FFF7BAF9001B642802D903206B
:10170000BDE8F88F3068C0438000F3D40020F7E7CD
:101710002DE9F04705000F4663D0444E306800F0D5
:101720000F00B84209D2306820F00F003843306013
:10173000306800F00F00B84253D128683C4C810754
:1017400012D5400703D5206840F4E0502060287887
:10175000000703D5206840F460402060A968206835
:1017600020F0F000084320602878C0072AD03049D4
:1017700068680839012810D00968022810D0890744
:1017800000292EDA216821F0030101432160FFF7CF
:101790006DF9804641F288390DE009688903EFE769
:1017A0008901EDE7FFF762F9A0EB0801494502D98D
:1017B0000320BDE8F0876868216801F00C01B1EBF7
:1017C000800FEFD1306800F00F00B8420BD93068BD
:1017D00020F00F0038433060306800F00F00B8424E
:1017E00001D00120E5E72878400705D5E9682068A1
:1017F00020F4E050084320602878000706D52869C7
:10180000216821F4604141EAC000206000F01CF82A
:101810002168084AC1F30311515CC84006490860B9
:101820000020FFF721FC0020C3E70000003C02403D
:10183000083802408E3300085C0000200148006830
:10184000704700005C000020154910B51548096874
:1018500011F00C0213D01449042A0FD0082A0ED11B
:101860000F4C241F2268236802F03F025B0207D559
:101870002068C0F38810A0FB010106E0084610BDF7
:101880002168C1F38811A1FB00010023FEF7B8FC19
:101890002168C1F30141491C4900B0FBF1F010BDC2
:1018A000083802400024F40040787D012DE9F84F0B
:1018B00005004FF000076ED02878DFF81C93A9F1DF
:1018C000040AC007AAF104044CD0D9F80010484615
:1018D000C1F38101012908D00068C0F3810002280A
:1018E0000AD1DAF80000400206D52068800339D515
:1018F00068680028DFD035E06868B0F5803F0BD01D
:1019000010B1B0F5A02F11D0206820F480302060F5
:10191000206820F4802002E0206840F480302060BD
:10192000686890B1FFF7A2F806460AE0206840F424
:1019300080202060F0E700BFFFF798F8801B642844
:1019400072D820688003F7D50CE0FFF78FF80646C1
:1019500005E000BFFFF78AF8801B6428F0D82068F4
:101960008003F7D42878800742D5D9F8001048467C
:1019700011F00C0F08D00068C0F3810002280BD1D1
:10198000DAF80000400207D42068800718D5E8681C
:10199000012800D114E01CE1E8680028206817D075
:1019A00040F001002060FFF761F8064605E000BF47
:1019B000FFF75CF8801B0228C2D820688007F7D5A3
:1019C0002869216821F0F80141EAC00020600FE099
:1019D00020F001002060FFF749F8064605E000BF4F
:1019E000FFF744F8801B02281ED820688007F7D430
:1019F0002878000729D5784869696C300029804625
:101A0000016812D041F001010160FFF72FF806468E
:101A100005E000BFFFF72AF8801B022804D8D8F899
:101A200000008007F6D510E089E021F00101016097
:101A3000FFF71CF8064604E0FFF718F8801B0228A1
:101A40007DD8D8F800008007F6D4287840076BD5F9
:101A5000DFF8848108F13808D8F80000C0000BD402
:101A6000D8F8001041F08051C8F80010D8F80000F4
:101A7000012700F08050009058480168C90512D431
:101A80000168834641F480710160FEF7EFFF06466E
:101A900005E000BFFEF7EAFF801B64284FD8DBF8A3
:101AA0000000C005F6D54C4EA868683601280AD05B
:101AB00008B1052811D0306820F00100306030688E
:101AC00020F0040002E0306840F001003060A868B7
:101AD000A0B1FEF7CBFF83460CE0306840F0040075
:101AE0003060F0E7FEF7C2FFA0EB0B0141F2883057
:101AF000814266D830688007F4D50EE0FEF7B6FF65
:101B0000834607E0FEF7B2FFA0EB0B0141F28830FD
:101B1000814256D830688007F4D42FB1D8F800102D
:101B200021F08051C8F80010A869C8B3D9F8001096
:101B3000C1F3810102294CD00228206800E040E076
:101B400020F08070206003D0FEF790FF05463BE058
:101B5000FEF78CFF064604E0FEF788FF801B022894
:101B60002FD820688001F7D4D5E90962D5E90701AB
:101B70001B4B570895F82C20084303EB074343EA17
:101B80008611084340EA026040F00050CAF80000A5
:101B9000206840F080702060FEF768FF054606E090
:101BA00015E000BFFEF762FF401B022809D820683D
:101BB0008001F7D50BE000BFFEF758FF401B02285D
:101BC00002D90320BDE8F88F20688001F4D40020FA
:101BD000F8E70120F6E700000838024000700040F6
:101BE0000000FFFF04284FF0E020016903D021F03E
:101BF00004010161704741F00401FAE77047401E9B
:101C0000B0F1807F10B501D3012010BD4FF0E0246A
:101C100060610F21601700F047FF0020A0610721DD
:101C2000216110BD10B5FFF7E9FF10BD7047704787
:101C300070B590F83C20012A1FD0012280F83C208A
:101C400002680F4C5368A242956802D00D4CA24224
:101C500003D14C6823F4700323430C688968002681
:101C600023F070031C43546025F08005026829436B
:101C7000916080F83C60304670BD022070BD00006D
:101C8000000001400004014010B5040003D094F8A6
:101C90003D0010B107E0012010BD002084F83C0099
:101CA000204600F00DF8022084F83D002068211D38
:101CB00000F0A0FF012084F83D00002010BD0000CE
:101CC00008B500680B49884212D10B48016841F001
:101CD0000101016000680022114600F0010000903F
:101CE0001920FFF72FFABDE808401920FFF71EBAA8
:101CF00008BD000000000140443802400168CA6885
:101D000042F00102CA600068016841F0010101600F
:101D10000020704770B5044690F83C00012817D0A9
:101D20003A4E012584F83C50022084F83D00226898
:101D30009068304020F47F4090600868502839D087
:101D40000DDC20285BD005DC98B3102843D153E08C
:101D5000022070BD302855D040283CD141E0602899
:101D600030D070280CD0B0F5805F03D0B0F5005FA4
:101D700031D112E02068254A70328168114016E0A6
:101D80004A682068D1E9021300F09AFF2168886848
:101D9000304040F0770088601DE04A682068D1E953
:101DA000021300F08DFF2068816841F4804181605A
:101DB00011E01EE0CA684968206800F092FF2068C0
:101DC000502106E0CA684968206800F09BFF20683F
:101DD000602100F07EFF002084F83D5084F83C0034
:101DE00070BDCA684968206800F07BFF2068402108
:101DF000EFE720680021ECE720681021E9E7206880
:101E00002021E6E720683021E3E7000088FFFEFF9D
:101E1000704770B50446006800250169C943890709
:101E200015D4C168C943890711D4EA1E0261012192
:101E30002177206880698007204602D0FFF7E8FFFD
:101E400004E000F0A5F8204600F0A3F8257720680C
:101E50000169C943490717D4C168C943490713D465
:101E600002216FF00402026121772068806910F47A
:101E7000407F204602D0FFF7CBFF04E000F088F857
:101E8000204600F086F8257720680169C9430907D4
:101E900016D4C168C943090712D404216FF008029F
:101EA000026121772068C0698007204602D0FFF7D1
:101EB000AFFF04E000F06CF8204600F06AF82577E8
:101EC00020680169C943C90617D4C168C943C90656
:101ED00013D408216FF01002026121772068C069D5
:101EE00010F4407F204602D0FFF792FF04E000F09C
:101EF0004FF8204600F04DF8257720680169C94366
:101F0000C90708D1C168C943C90704D1891E016145
:101F1000204600F03FF820686FF080050169C94352
:101F2000090607D4C168C943090603D405612046E0
:101F3000FFF77CFE20680169C943C90507D4C16861
:101F4000C943090603D405612046FFF76FFE2068E8
:101F50000169C943490609D4C168C943490605D482
:101F60006FF040010161204600F015F8206801691A
:101F7000C94389060BD4C168C943890607D46FF0E9
:101F8000200101612046BDE87040FFF750BE70BDE2
:101F90007047704770477047FEE700000148FEF742
:101FA000C3BD0000640000200148FEF7EEBD000044
:101FB0006400002010B5806B00210268536843F470
:101FC00000435360826B1165C26B116590F841103C
:101FD000602902D0FEF7E1FD10BD202180F84110FC
:101FE000FEF7A0FD10BDCA074FF028034FF0000216
:101FF00010B506D090F84140422233EA040400D0E4
:10200000F2228C0707D590F8414042F04402A343E6
:1020100001D042F0B0024B0701D542F0B8021123C3
:102020008B4301D142F0900212238B4301D142F045
:1020300060020068016891430160002010BD0168E2
:102040008A69D243920701D400228A6200688169BA
:10205000C943C90703D0816941F00101816170471B
:102060002DE9F041044690F841002821002508237D
:102070008143206804D0C36184F84050BDE8F081FA
:10208000876986694FF0FE0E8168C268C7F3004712
:10209000D4F80CC00EEA164602F0FE02BCF1020FA4
:1020A000C1F3090114D14FF0060C06F006060CEA44
:1020B000D11C66450BD1A66C0A46761CA664A16CA1
:1020C0000229DBD1A564C36184F8405007E01646BD
:1020D00020460421FFF787FF324684F840503946F6
:1020E0002046FEF720FDC9E770B5044633480025B9
:1020F000202684F84250E0626585606C0843606485
:1021000094F84100282827D094F84100292823D0AA
:1021100094F841002A281FD007212046FFF763FFCB
:1021200094F84100602801D084F84160256365631C
:102130002068234902685204026818D522F48042BC
:102140000260A06B016584F84050A06BFEF778FB3D
:10215000002829D0A06B1AE003212046FFF743FF97
:1021600018492820616384F841002563E0E71204E0
:1021700011D5026822F400420260E06B016584F828
:102180004050E06BFEF75CFB00280DD0E06B016D6A
:10219000BDE87040084794F84100602805D020460B
:1021A00084F84050FEF7F9FC70BD84F84160204689
:1021B00084F84050FEF7B6FC70BD00000000FFFF41
:1021C000B51F0008E923000870B50446154A00252C
:1021D0004FF020004907E262256384F8410084F84B
:1021E0004250656310D52168606A496A421C626288
:1021F0000170208D40B1618D401E2085491E618592
:10220000606C40F00400606407212046FFF7EBFE9D
:1022100021681020C861204684F84050FEF7AAFDCE
:1022200070BD00000000FFFF70B50E46016820255C
:1022300004460820CD612168C86107212046FFF7C8
:10224000D2FE2068324A416841F400414160206872
:102250004168114041602046FFF7F1FE20680168A7
:10226000490402D40168090407D594F841102129D2
:1022700030D0E16B096849686185618D19B1616C85
:1022800041F00401616471070FD5416A606A421C24
:1022900062620170208D40B1618D401E2085491E13
:1022A0006185606C40F0040060640020206384F865
:1022B0004200616C606379B1616C2046FFF714FFE6
:1022C00094F84100282813D131462046BDE87040DB
:1022D000FFF77ABFA16BCDE7E26A0E498A4208D0C8
:1022E000E16284F8415084F840002046FEF742FD48
:1022F00070BD94F8411084F84150222984F84000C0
:10230000204602D0FEF79BFE70BDFEF797FE70BD23
:1023100000E800FE0000FFFF70B5044600252820FD
:1023200084F8425094F84110292911D094F84110B2
:102330002A290CD1222184F8410021630221204660
:10234000FFF751FE204684F84050FEF777FE70BD3F
:10235000212184F84100216301212046FFF743FE3B
:10236000204684F84050FEF76AFE70BD2DE9F0412A
:102370000446006890460E468069C043C0062FD4CC
:102380000025202720688069C043800611D5701C75
:10239000F8D02EB1FEF76AFBA0EB0800B042F1D9ED
:1023A00084F8417084F84250032084F84050BDE81E
:1023B000F08121681020C8612068C7612046FFF7BE
:1023C0003EFE20680422074943680B404360626474
:1023D00084F8417084F84250012084F84050E6E7C8
:1023E0000020E4E700E800FE70B5044690F84000E5
:1023F00015460E46012812D0F1063F494FF0010064
:1024000084F840002ED5E8062CD5628D102042B10C
:102410002168C861606C40F0040060645FE00220E5
:1024200070BDE36A4FF00072934202D0E36A9342B8
:1024300003D194F84120282A09D0E26A8A4203D0C5
:1024400094F84110292907D02168C86147E0314636
:102450002046FFF7B9FE42E02168C8612046FFF739
:10246000EEFD39E0700715D5680713D5608D58B1BA
:102470002268606A526A431C63620270208D401EAB
:102480002085608D401E6085608D40BBE06A88427B
:1024900022D124E0300706D5280704D5314620464E
:1024A000FFF7DEFD1BE0B00719D5A80717D5608D33
:1024B00060B1606A411C6162216800788862608D49
:1024C000401E6085208D401E208508E0E06AB0F146
:1024D000807F01D0E06A10B92046FFF71DFFB006EB
:1024E00005D5A80603D531462046FFF79DFE0020FE
:1024F00084F8400070BD00000000FFFF70B5006868
:10250000C1F30901074E41EA0241049C4FF4806582
:102510004268194305EA54553543AA4321430A4307
:10252000426070BDFF63FF032DE9F0411D46174671
:102530000E460446DDF8188013E0681C11D02DB15A
:10254000FEF794FAA0EB0800A8420AD90020202147
:1025500084F8411084F8420084F840000320BDE86C
:10256000F0812068806936EA000004D00020B8427B
:10257000E3D00020F3E70120F9E700002DE9F04166
:102580000025904620260F46044633E04246394651
:102590002046FFF7EBFE10B10120BDE8F081206876
:1025A0008069C043800614D420688169C943490703
:1025B00001D4218D19BB1349C661206842680A40C5
:1025C0004260656484F8416084F8425084F8405069
:1025D000E2E72FB1FEF74AFAA0EB0800B84209D9AA
:1025E000606C84F8405040F02000606484F84160E2
:1025F0000320D2E720688069C0434007C6D400208A
:10260000CBE7000000E800FE70B516460D46044614
:102610001BE0324629462046FFF7A8FE08B10120FC
:1026200070BD25B1FEF722FA801BA8420DD9626C5D
:10263000002084F84000202142F02002626484F8E7
:10264000411084F84200032070BD20688069C043B7
:102650008006DED4002070BD70B516460D460446D7
:102660001DE0324629462046FFF780FE08B10120D2
:1026700070BD681C13D025B1FEF7F8F9801BA84285
:102680000DD9626C002084F84000202142F0200225
:10269000626484F8411084F84200032070BD206811
:1026A0008069C0438007DCD4002070BD30B587B09E
:1026B0003B21C8258DF814104FF6FF7101EA400147
:1026C0002F4801230C4605AA0095FEF7EDFB1420C8
:1026D000FEF7C8F82A480E2301AA21460095FEF706
:1026E0004BFBBDF8040040BA401EC04300EE100A88
:1026F0002448B8EEC00A80ED000ABDF8061049BAB9
:10270000491EC94300EE101AB8EEC00A80ED010A56
:10271000BDF8081049BA491EC94300EE101AB8EEB8
:10272000C00A80ED020ABDF80A1049BA00EE101A7C
:10273000B8EE400A80ED0B0ABDF80C1049BA491EEC
:10274000C94300EE101AB8EEC00A80ED080ABDF8C1
:102750000E1049BA491EC94300EE101AB8EEC00A5D
:1027600080ED090ABDF8101049BA491EC94300EEB0
:10277000101AB8EEC00A80ED0A0A07B030BD00009A
:10278000640000200000002027A17CB50968C8254E
:10279000022301AACDE900514FF6FF7101EA40047E
:1027A00022482146FEF780FB6B208DF804001F486D
:1027B00000260223214601AA8DF805600095FEF748
:1027C00073FB1A208DF804000321184802238DF8AA
:1027D000051001AA21460095FEF766FB1B208DF827
:1027E00004001248022301AA21468DF805600095D5
:1027F000FEF75AFB1C208DF804000C48022301AAA6
:1028000021468DF805600095FEF74EFB38208DF8C7
:1028100004000121054802238DF8051001AA214674
:102820000095FEF741FB7CBD19000000640000200C
:1028300070B568202DED048BFFF738FF484C9FEDF5
:10284000490AD4ED000A20EE809A84ED0C9AD4ED6A
:10285000010A60EE808AC4ED0D8AD4ED020A20EEF2
:10286000808A9FED410A414D84ED0E8AD4ED080A1D
:1028700080EE801A84ED031AD4ED090AC0EE809A26
:10288000C4ED049AD4ED0A0A80EE801A84ED051A8C
:10289000686AFDF76EFE9FED361B53EC112BFDF7BA
:1028A000F9FDFDF786FE00EE100A002084ED100A07
:1028B000FDEEC00AC4ED110A6862D4ED060A49EEC5
:1028C000800A29EE090A08EEA80AC4ED060A08EEF5
:1028D000080A10EE100AFDF759FE41EC100B00F04B
:1028E000EFFB84ED120B206BB0EE408AF0EE608AB5
:1028F000FDF74CFE53EC182BFDF7CCFD41EC100B13
:1029000000F02EFA9FED1C1B51EC100B53EC112B19
:10291000FDF74EFDFDF74DFEE063E169E1B1FDF726
:1029200035FE9FED171B53EC112BFDF741FD41ECDC
:10293000180BA069FDF72AFE9FED131B53EC112B1A
:10294000FDF736FD53EC182BFDF78BFCFDF731FE40
:10295000A061BDEC048B70BD0121C4E90601F8E75C
:102960000000002000008038000003430000014008
:1029700000000000C0FFEF40A79196CADBA54C40C5
:102980007B14AE47E17AA43FB81E85EB51B8EE3F09
:10299000174830B587B0016841F002010160016855
:1029A00001F002010591016841F480710160016844
:1029B00001F480710591016841F0800101600068B7
:1029C0004FF400640B4D002200F08000214605907A
:1029D0002846FEF745F8002100940120CDE90101C9
:1029E000284603916946FDF74FFF07B030BD000050
:1029F00030380240002002401148002110B50F4C31
:102A00000123104A0460C0E90121C0E9033141619A
:102A10008161C1610162FEF7C1F800B1FEE70848BB
:102A20000021FEF729F800B1FEE705480021FEF776
:102A30004FF8002800D0FEE710BD00000054004011
:102A400064000020FFEAC00030B515480024134997
:102A500087B040F6EC324FF6FE73802580E8160012
:102A6000C0E90334C0E90545FFF70EF900B1FEE700
:102A70004FF4805003900A4803A9FFF74BF900B1C7
:102A8000FEE7202001048DE8130005486946FFF7A2
:102A9000CFF8002800D0FEE707B030BD00000140AD
:102AA000B0000020FEE77047090700284FEA1161D7
:102AB00006DA00F00F0000F1E02080F8141D7047E6
:102AC00000F1E02080F8001470477047704710B59F
:102AD000FEF7B6FABDE81040FFF7A4B82B4870B572
:102AE000B4B0016841F080510160006800F080508E
:102AF00032902748016841F4404101600068192381
:102B0000022400F44040329001201D01820501049E
:102B10000926CDE92742CDE92101CDE92935CDE9C5
:102B20002B4621A8FEF7C2FE00B1FEE7FEF73CFBF4
:102B300000B1FEE74FF480524FF4A0510025CDE9DB
:102B400030122DAA0F20062182E831002DA8FEF7B1
:102B5000DFFD00B1FEE74FF4804019950090684614
:102B6000FEF758FB00B1FEE7FEF768FE4FF47A71FE
:102B7000B0FBF1F0FFF743F80420FFF733F8002231
:102B8000501E1146FEF7DEFA34B070BD40380240E8
:102B900000700040104A30B51048146800210F4BF7
:102BA00044F470041460083305680D4A0D4C45F078
:102BB0000105056019600368051D1340074A03609D
:102BC0000C322C600568E305034C25F48025056074
:102BD000803C1160236030BD88ED00E00038024089
:102BE000FFFFF6FE103000240148FFF712B9000085
:102BF000B0000020F0B5274B4FF0804E264D026804
:102C00009842264E264F274C09D0704507D0A8423F
:102C100005D0B04203D0B84201D0A04205D1D1F8CE
:102C200004C022F070024CEA020298421BD07045A8
:102C300019D0A84217D0B04215D0B84213D0A04244
:102C400011D0194DA8420ED0184DA8420BD0184DE6
:102C5000A84208D0174DA84205D0174DA84202D06F
:102C6000164DA84203D1CD6822F440722A434D6923
:102C700022F080022A43026098428A68C2620A688F
:102C8000826201D0A04201D1096901630121416141
:102C9000F0BD0000000001400004004000080040BA
:102CA000000C00400004014000400140004401408D
:102CB0000048014000180040001C00400020004077
:102CC00042EA032283680A4323F47F410A43826075
:102CD0007047826822F070020A4342F00701816067
:102CE000704710B5036A046A23F00A0324F0010454
:102CF000046284690B4324F0F00141EA021181610E
:102D0000036210BD10B5036A23F0100303628369E8
:102D1000046A23F4704324F0A00443EA023282617F
:102D200044EA0111016210BDFEE703B401984100BD
:102D3000009850EAC12018BF04204A0D18BF40F087
:102D4000010040F2FF72B2EB515F08BF40F0020099
:102D5000012808BF052002B07047000000000000F5
:102D600070B5C1482DED020B2DED0E8B82B0119D7B
:102D700025F000449FEDBEDB9FEDBFEB84423EDBC0
:102D8000A4F140511098A1F17F6108430FD0BC48D5
:102D9000844202DC28D1109830B39DED100B02B0B4
:102DA000BDEC0E8B02B0BDE8704000F042BA9DED64
:102DB000100B53EC1D2B51EC100BFDF7F9FA9DEDA8
:102DC000100B41EC180B53EC1E2B51EC100BFDF7C4
:102DD000EFFA53EC182BFDF744FA41EC100B02B05C
:102DE000BDEC0E8B02B070BD012000F05DFA02B0A8
:102DF000BDEC0E8B02B0BDE8704000F025BAA148D2
:102E00009FEDA18B844256DA9DED100BB4F1795FF2
:102E10000ADA51EC100BFFF788FF042808BF00F016
:102E200023FA9DED100BDAE753EC102B51EC100B4D
:102E3000FDF7BEFA41EC190B95480621B0EE490AA0
:102E4000F0EE690A784400F078F953EC192B51EC54
:102E5000100BFDF7ADFA41EC1A0B8E48B0EE490AA3
:102E6000F0EE690A0421784400F067F953EC192B5D
:102E700051EC100BFDF79CFA53EC182BFDF7F1F910
:102E800041EC100B51EC1A0B53EC102BFDF702FB2D
:102E9000CDE900019DED000B53EC102B9DED100BC7
:102EA00051EC100BFDF784FA9DED101B53EC112B28
:102EB000FDF7D7F9D2E09DED100B51EC100B00F0AF
:102EC000F9F953EC182BFDF770FA9FED730BCDE970
:102ED000000153EC102B9DED000B51EC100BFDF796
:102EE00067FA41EC190B6E480621B0EE490AF0EE84
:102EF000690A784400F021F953EC192B51EC100BBE
:102F0000FDF756FA41EC1B0B6648B0EE490AF0EEAD
:102F1000690A0421784400F010F953EC192B51ECA4
:102F2000100BFDF745FA53EC182BFDF79AF941EC1D
:102F30001C0B51EC190B00F0F3F941EC180B5A483B
:102F40009FED5BABA04222DC53EC1C2B51EC1B0B26
:102F5000FDF7A0FACDE900019DED000B51EC180B37
:102F600053EC102BFDF724FA53EC182BFDF779F9ED
:102F700053EC1A2BFDF71CFA53EC1D2BFDF712FA3C
:102F800053EC1E2BFDF711FA41EC100B5FE08DEDB9
:102F9000008B002000909DED000B51EC180B53ECC2
:102FA000102BFDF75EF99DED000B41EC1E0B53EC71
:102FB000102B51EC100BFDF7FBF953EC192BFDF71F
:102FC000F4F953EC1E2BFDF765FA41EC190B53ECA9
:102FD0001C2B51EC1B0BFDF75DFA41EC1B0B53EC6A
:102FE0001A2B51EC190BFDF7E3F953EC1D2BFDF7F0
:102FF000DCF941EC190B53EC1A2B51EC180BFDF7D3
:10300000D7F953EC1B2BFDF7D3F953EC192BFDF734
:10301000C9F99DED000B41EC180B53EC1A2B51EC48
:10302000100BFDF7C5F99FED249B53EC192BFDF711
:10303000BCF941EC100B51EC180B53EC102BFDF7C5
:10304000B1F953EC192BFDF7B0F941EC100B002D41
:103050003FF7C5AE51EC100B81F0004141EC100B75
:10306000BDE60000000000000000F03F000000008E
:10307000075C143326A6913C182D4454FB21F93FDC
:103080000000F07F0000E03F000000000000F03F83
:103090005805000066050000000000000000E03F49
:1030A000AA040000B80400003333EF3F0000000022
:1030B0000000000000000040182D4454FB21E93FAF
:1030C00000B52DED048BB0EE409AF0EE609A83B01F
:1030D00051EC190BFDF74EFB41EC180B18EE100AE2
:1030E00018EE901A8DED008B002818BF01200843C0
:1030F00020F00040C0F17F6000F1E040C00F14D02C
:1031000019EE101A19EE900A8DED009B002918BFD8
:103110000121084320F00040C0F17F6000F1E04051
:10312000C00F04BF012000F0BFF8B0EE480A03B0A2
:10313000F0EE680ABDEC048B00BD70B504462DEDC1
:10314000028B4D1E00EBC500B0EE408AF0EE608AA7
:1031500090ED000B35F0060017D053EC182B51EC16
:10316000100BFDF725F941EC100B6D1E04EBC500AB
:1031700090ED001B51EC100B53EC112BFDF771F887
:1031800041EC100B35F00600E7D1022D36D0042DAE
:103190001CD0062D1CBFBDEC028B70BD53EC182B50
:1031A00051EC100BFDF704F994ED0A1B53EC112BB5
:1031B000FDF757F853EC182BFDF7FAF894ED081BC0
:1031C00053EC112BFDF74DF841EC100B53EC182B81
:1031D00051EC100BFDF7ECF894ED061B53EC112BA2
:1031E000FDF73FF853EC182BFDF7E2F894ED040BD4
:1031F00053EC102BFDF735F841EC100B53EC182B6A
:1032000051EC100BFDF7D4F894ED021B53EC112B8D
:10321000FDF727F853EC182BFDF7CAF894ED001BC7
:1032200053EC112BFDF71DF8BDEC028B41EC100B9C
:1032300070BD10B553EC102B51EC100BFDF711F8CD
:1032400041EC100B10BD00009FED050B10B553ECC9
:10325000102B51EC100BFDF71DF941EC100B10BDBC
:1032600000000000000000009FED050B10B553ECBE
:10327000102B51EC100BFDF79BF841EC100B10BD1F
:10328000000000000000001002E008C8121F08C182
:10329000002AFAD170477047002001E001C1121FD7
:1032A000002AFBD170470000014908607047000008
:1032B0006000002082B0CDE9000121F000400190C3
:1032C0009DED000B02B051EC100B7047FDF7C0FEF6
:1032D000FFF704FCFFF75CFBFFF78EFBFFF7B4FB87
:1032E0000C48C82303226821FDF7B4FC20B9012251
:1032F0000948D102FDF7B4FB6820FFF745FA0548FD
:103300004C30FEF7FBFC054900204862FFF790FABD
:10331000FCE70000640000200020024000000140A3
:1033200000B52DED048B83B041EC190BFDF722FAAB
:1033300041EC180B18EE100A18EE901A8DED008B68
:10334000002818BF0120084320F00040C0F17F6032
:1033500000F1E040C00F14D019EE101A19EE900AD7
:103360008DED009B002918BF0121084320F000408B
:10337000C0F17F6000F1E040C00F04BF0120FFF703
:1033800093FF51EC180B03B0BDEC048B00BD0000A3
:103390000000000000000102030406070809000005
:1033A000555555555555C53F7D6FEB0312D6D4BFC6
:1033B0005544880E55C1C93F3B8F68B52882A4BFCC
:1033C00088B20175E0EF493F09F7FD0DE13D023F8D
:1033D0004B2D8A1C273A03C0C88A599CE52A004015
:1033E00059018D1B6C06E6BF82922EB1C5B8B33F62
:1033F000103400080000002064000000883200083B
:1034000074340008640000208C0400009832000826
:1034100000000000000000000000000000000000AC
:10342000000000000000000000000000000000009C
:10343000000000000000000000000000000000008C
:10344000000000000000000000000000000000007C
:10345000000000000000000000000000000000006C
:103460000100000010000000000000000024F40033
:043470000000000058
:04000005080001C925
:00000001FF
