:020000040800F2
:1000000088050020DD0100080F1A00087318000899
:100010000D1A0008D5020008A924000800000000FD
:10002000000000000000000000000000CD1F0008DC
:10003000D702000800000000E31D0008CF1F0008E1
:10004000F7010008F7010008F7010008F7010008B0
:10005000F7010008F7010008F7010008F7010008A0
:10006000F7010008F7010008F7010008F701000890
:10007000F7010008F7010008F7010008F701000880
:10008000F7010008F7010008F7010008F701000870
:10009000F7010008F7010008F7010008F701000860
:1000A000F7010008F7010008F7010008F701000850
:1000B000F7010008F7010008F7010008F701000840
:1000C000F7010008F7010008F7010008F701000830
:1000D000F7010008F7010008F7010008F701000820
:1000E000F7010008F7010008F7010008F701000810
:1000F000F7010008F7010008F7010008F701000800
:10010000F7010008F7010008F7010008F7010008EF
:10011000F7010008F7010008F7010008F7010008DF
:10012000F7010008F7010008F7010008F7010008CF
:10013000F7010008F7010008F7010008F7010008BF
:10014000F7010008F7010008F7010008F7010008AF
:10015000F7010008F7010008F7010008F70100089F
:10016000F7010008F7010008F7010008F70100088F
:10017000F7010008F7010008F7010008000000007F
:10018000F7010008F7010008F7010008F70100086F
:10019000F7010008F7010008F7010008F70100085F
:1001A000F7010008F7010008F7010008F70100084F
:1001B000F7010008F7010008F7010008F70100083F
:1001C000F7010008F7010008DFF80CD000F070F824
:1001D00000480047BF2700088805002006488047E0
:1001E00006480047FEE7FEE7FEE7FEE7FEE7FEE71C
:1001F000FEE7FEE7FEE7FEE791200008C9010008E0
:100200002DE9F05F0546002092469B46884606464B
:10021000814640241BE0284641464746224600F0DE
:1002200036F853465A46C01A914110D31146184623
:10023000224600F01DF82D1A67EB01084F462246B2
:100240000120002100F014F817EB00094E41201E98
:10025000A4F10104DFDC484631462A464346BDE8A6
:10026000F09F421C10F8011B0029FBD1801A704737
:10027000202A04DB203A00FA02F100207047914066
:10028000C2F1200320FA03F3194390407047202A5B
:1002900004DB203A21FA02F00021704721FA02F330
:1002A000D040C2F120029140084319467047000037
:1002B000064C074D06E0E06840F0010394E80700B3
:1002C00098471034AC42F6D3FFF782FFF4270008BA
:1002D00014280008FEE7704701B507480749006881
:1002E000B0FBF1F0009948430090411E009101D30A
:1002F0000846FAE708BD00001400002040548900B9
:100300002DE9F84FDFF89CE100224FF001084FF093
:10031000030B4FF00F0A00BF0B6808FA02F42340EA
:10032000A34271D14D68022D01D0122D0FD1D508F5
:100330000E69570700EB8505A9462D6AFF0E0AFADC
:1003400007FCBE4025EA0C052E43C9F820600F7952
:10035000550006680BFA05FC07F0030726EA0C06B1
:10036000AF40374307604E68012E05D0022E03D000
:10037000112E01D0122E0ED18668CF6826EA0C0607
:10038000AF403743876046680F79A643C7F300172D
:10039000974037434760C4688E6824EA0C04AE4037
:1003A0002643C6604C68E40075D53F4C256845F48B
:1003B00080452560246822F00306950704F48044F4
:1003C00000943A4C2D0F2644D6F80848DFF8E0C0D8
:1003D0000AFA05F7604524EA070401D100272EE058
:1003E000344FB84201D1012729E0334FB84201D13F
:1003F000022724E0314FB84201D103271FE0304FDC
:10040000B84202D104271AE045E02E4FB84201D18C
:10041000052714E02C4FB84201D106270FE02B4FDF
:10042000B84201D107270AE0294FB84201D1082775
:1004300005E0284FB84201D1092700E00A27AF4064
:1004400027437546C6F808784E68DEF80040F60384
:1004500024EA030400D51C43124E2C60361D4D685F
:100460003468AD0324EA030400D51C430D4F346007
:1004700008374D683C68ED0224EA030400D51C43AC
:10048000084D3C600C354E682C68B60224EA030423
:1004900000D51C432C60521C102AFFF43DAFBDE870
:1004A000F88F0000003C0140443802400030014019
:1004B000000002400004024000080240000C02401C
:1004C000001002400014024000180240001C0240CC
:1004D00000200240002402400069084000D00120B2
:1004E000704742694A40426170470AB18161704772
:1004F0000904FBE7014880687047000008000020FD
:100500000248816802781144816070470800002029
:10051000032010B500F08AF8002000F005F800F084
:1005200023F8002010BD000070B50D4D04464FF4B7
:100530007A700C4A29781268B0FBF1F0B2FBF0F047
:1005400001F0C4F848B9102C07D200222146501EF1
:1005500000F04CF800206C6070BD012070BD000000
:1005600008000020140000201F4808B5016841F071
:1005700080510160006800F0805000901A48001D12
:10058000016841F480410160006800F480400090FF
:10059000032000F04BF800226FF00B00114600F032
:1005A00025F800226FF00A00114600F01FF8002223
:1005B0006FF00900114600F019F80022501F114693
:1005C00000F014F80022101F114600F00FF800226E
:1005D000901E114600F00AF80022BDE80840501EA7
:1005E000114600F003B80000403802400E4BF0B452
:1005F0001B680D46C3F30223C3F10706042E00D97E
:100600000426191D072901D2002300E0DB1E012466
:1006100004FA06F19C40491E2940641E994014408A
:100620002143F0BC01F0CCBB0CED00E0064900F02A
:10063000070210B54FF6FF040868044B204040EA5B
:1006400002201843086010BD0CED00E00000FA0520
:100650001848F8B5016841F0805101600068164CF7
:1006600000F080500090206840F480302060FFF758
:1006700041FF4FF47A76054605E000BFFFF73AFFE9
:10068000401BB0420FD86068C003F7D5206840F423
:1006900000302060FFF72EFF054606E0FFF72AFF37
:1006A000401BB04201D90320F8BD60688003F5D536
:1006B0000020F8BD40380240007000402DE9F84F9E
:1006C00004460078DFF824944FF000063746C00750
:1006D0000ED0D9F8001021F40001C9F80010D9F8A3
:1006E0000010626B1143C9F80010606B00B901265D
:1006F000FE4D2068843500030ED5E16B286820F498
:10070000401008432860E06BB0F5801F01D010B1A5
:1007100002E0012600E0012720684FF4800BC002B0
:100720000CD5216C286820F4400008432860206C18
:10073000584501D1012601E000B901272068C10117
:1007400000D50126800666D5E8483830016841F0BA
:10075000805101600068DFF898A300F0805000909D
:10076000DAF8001041F48071CAF80010FFF7C2FEF9
:10077000804605E0FFF7BEFEA0EB080064287DD8A8
:10078000DAF80000C005F5D5DFF8608308F16808E5
:10079000D8F8000010F440702AD0218E01F4407186
:1007A000814225D0D8F80010D8F8002021F44071FB
:1007B00042F48032C8F80020D8F8002022F48032B9
:1007C000C8F80020C8F80010D8F80000C0070FD003
:1007D000FFF790FE824607E0FFF78CFEA0EB0A01D0
:1007E00041F288308142CAD8D8F800008007F3D59A
:1007F000206BC0F3012103297ED0D9F8001021F429
:10080000F811C9F80010228ED8F80010C2F30B02BC
:100810001143C8F800102078C00607D5286820F0DA
:10082000807028602868A16B084328602188AF4841
:100830008830490405D5626E016821F440311143C6
:1008400001602188090405D5A26E016821F44021C8
:10085000114301602168C90305D5E26E016821F4E6
:100860004011114301602168890305D5226F016899
:1008700021F4400111430160217800E018E14906AC
:1008800005D5626C016821F00301114301602178F4
:10089000090605D5A26C016821F00C011143016025
:1008A0002188C90505D5E26C016821F030011143AA
:1008B00001602188890505D5226D016821F0C001FC
:1008C000114301602188490505D5626D016821F455
:1008D0004071114301602188090505D5A26D0168A9
:1008E00021F44061114301602188C90407D5E26DFC
:1008F000016821F4405100E041E01143016021888A
:10090000890405D5226E016821F44041114301603C
:100910002168490205D5A26F016821F08061114369
:10092000016021684FF0006A890209D5E26F016811
:1009300021F0006111430160E16F514500D10127B1
:1009400021680A0700D50127490305D5626F0168B0
:1009500021F04071114301602168090206D5D4F8E5
:100960008020016821F0805111430160DFF88491FB
:10097000012E0ED02068B0F1007F0AD08FE05E4AD1
:10098000D9F80030104023F4F8120243C9F80020CF
:1009900039E7D9F800004E4620F08060C9F8000021
:1009A000FFF7A8FD804605E0FFF7A4FDA0EB0800D7
:1009B00064287DD830680001F6D421784B487C301B
:1009C000C90712D0616B81B9237A62680168D0F8D7
:1009D00000C09201C1F3014142EA0142CCF303613C
:1009E00042EA016141EA0371016021680A0303D50B
:1009F000E26BB2F5801F04D0C9021AD5216C5945AB
:100A000017D16368016894F80CC002689B01C1F3B8
:100A1000014143EA0141C2F3027241EA0C6141EA39
:100A2000027101602968626A21F01F01521E1143A0
:100A300029602168C90110D5238A62680168D0F84D
:100A400000C09201C1F3036142EA034242EA01623B
:100A5000CCF3027142EA01710160216889010CD571
:100A60006168228A237B94F808C0890141EA024127
:100A700041EA036141EA0C7101603168B04641F01E
:100A800080613160FFF736FD064604E0FFF732FD76
:100A9000801B64280CD8D8F800000001F6D56FB38D
:100AA000D9F800004E4620F08050C9F8000000E060
:100AB00079E0FFF71FFD074605E000BFFFF71AFDCD
:100AC000C01B64286FD83068C0438000F6D5074843
:100AD000216880300A0301D5E26B1AB1C90225D51D
:100AE000216C19BB63690168277E08E00838024061
:100AF0000070004000380240FFFCFF0F5AE002681F
:100B0000C1F301419B0143EA0143C2F3027143EA8D
:100B1000076242EA0171016029686FF0FF03A26A6F
:100B200021F4F85103EB0222114329602168890264
:100B300012D5E16F51450FD1238C626901680768B6
:100B40009201C1F3036142EA034242EA0162C7F340
:100B5000027142EA017101602178090716D56169C5
:100B60000268D0F800C08B01277FC2F30362CCF388
:100B7000014143EA014141EA026141EA0771016032
:100B80002868E16A20F4403008432860306840F06B
:100B900080503060FFF7AEFC044607E0FFF7AAFC88
:100BA000001B642802D90320BDE8F88F3068C043D9
:100BB0008000F3D40020F7E72DE9F04705000F4649
:100BC00063D0444E306800F00F00B84209D230685C
:100BD00020F00F0038433060306800F00F00B8425A
:100BE00053D128683C4C810712D5400703D52068B3
:100BF00040F4E05020602878000703D5206840F4D6
:100C000060402060A968206820F0F0000843206060
:100C10002878C0072AD0304968680839012810D0E0
:100C20000968022810D0890700292EDA216821F0EE
:100C3000030101432160FFF75DFC804641F28839E2
:100C40000DE009688903EFE78901EDE7FFF752FC42
:100C5000A0EB0801494502D90320BDE8F087686888
:100C6000216801F00C01B1EB800FEFD1306800F08A
:100C70000F00B8420BD9306820F00F0038433060C5
:100C8000306800F00F00B84201D00120E5E7287875
:100C9000400705D5E968206820F4E050084320604B
:100CA0002878000706D52869216821F4604141EAC7
:100CB000C000206000F03CF82168084AC1F303112D
:100CC000515CC840064908600020FFF72DFC002059
:100CD000C3E70000003C024008380240DC2700085F
:100CE0001400002001480068704700001400002034
:100CF0000449054809680068044AC1F38221515C2F
:100D0000C84070470838024014000020EC27000853
:100D10000449054809680068044AC1F34231515C3E
:100D2000C84070470838024014000020EC27000833
:100D3000154910B51548096811F00C0213D0144973
:100D4000042A0FD0082A0ED10F4C241F22682368D2
:100D500002F03F025B0207D52068C0F38810A0FBB9
:100D6000010106E0084610BD2168C1F38811A1FB0E
:100D700000010023FFF744FA2168C1F30141491C37
:100D80004900B0FBF1F010BD083802400024F40027
:100D900040787D012DE9F84F05004FF000076ED037
:100DA0002878DFF81C93A9F1040AC007AAF104040B
:100DB0004CD0D9F800104846C1F38101012908D070
:100DC0000068C0F3810002280AD1DAF8000040026E
:100DD00006D52068800339D568680028DFD035E063
:100DE0006868B0F5803F0BD010B1B0F5A02F11D0DE
:100DF000206820F480302060206820F4802002E009
:100E0000206840F480302060686890B1FFF772FB82
:100E100006460AE0206840F480202060F0E700BF2A
:100E2000FFF768FB801B642872D820688003F7D521
:100E30000CE0FFF75FFB064605E000BFFFF75AFB3B
:100E4000801B6428F0D820688003F7D428788007B6
:100E500042D5D9F80010484611F00C0F08D00068B0
:100E6000C0F3810002280BD1DAF80000400207D459
:100E70002068800718D5E868012800D114E01CE13B
:100E8000E8680028206817D040F001002060FFF7D4
:100E900031FB064605E000BFFFF72CFB801B022854
:100EA000C2D820688007F7D52869216821F0F801A9
:100EB00041EAC00020600FE020F001002060FFF751
:100EC00019FB064605E000BFFFF714FB801B022854
:100ED0001ED820688007F7D42878000729D57848DD
:100EE00069696C3000298046016812D041F0010127
:100EF0000160FFF7FFFA064605E000BFFFF7FAFAC8
:100F0000801B022804D8D8F800008007F6D510E02E
:100F100089E021F001010160FFF7ECFA064604E0E8
:100F2000FFF7E8FA801B02287DD8D8F80000800778
:100F3000F6D4287840076BD5DFF8848108F13808AB
:100F4000D8F80000C0000BD4D8F8001041F0805150
:100F5000C8F80010D8F80000012700F08050009079
:100F600058480168C90512D40168834641F480716C
:100F70000160FFF7BFFA064605E000BFFFF7BAFAC7
:100F8000801B64284FD8DBF80000C005F6D54C4E16
:100F9000A868683601280AD008B1052811D0306841
:100FA00020F001003060306820F0040002E030687A
:100FB00040F001003060A868A0B1FFF79BFA8346BB
:100FC0000CE0306840F004003060F0E7FFF792FA80
:100FD000A0EB0B0141F28830814266D8306880076F
:100FE000F4D50EE0FFF786FA834607E0FFF782FAB2
:100FF000A0EB0B0141F28830814256D8306880075F
:10100000F4D42FB1D8F8001021F08051C8F80010A6
:10101000A869C8B3D9F80010C1F3810102294CD0E6
:101020000228206800E040E020F08070206003D0BB
:10103000FFF760FA05463BE0FFF75CFA064604E07E
:10104000FFF758FA801B02282FD820688001F7D4B8
:10105000D5E90962D5E907011B4B570895F82C2003
:10106000084303EB074343EA8611084340EA026062
:1010700040F00050CAF80000206840F08070206006
:10108000FFF738FA054606E015E000BFFFF732FA31
:10109000401B022809D820688001F7D50BE000BF6B
:1010A000FFF728FA401B022802D90320BDE8F88F79
:1010B00020688001F4D40020F8E70120F6E7000062
:1010C00008380240007000400000FFFF2DE9F047A3
:1010D000040005D094F85D000025A56218B107E072
:1010E0000120BDE8F087204684F85C5000F050F8FD
:1010F000022284F85D204FF4E0632068016821F04B
:1011000040010160E068984201D9002101E04FF4FC
:101110008051B0F5706F02D0984200D0A5624FF0B8
:101120000109266B2EB9984201D9226301E0C4F867
:101130003090D4E90468D4E90102278B46EA080616
:10114000A36A104307F4007830432668D4E907C245
:1011500040EA080040EA0C00CC460427104318433C
:101160003060D4F81880666B606AE26807EA184756
:10117000236830433A431043084358602068C169EC
:1011800021F40061C161256684F85DC00020A8E7F4
:1011900010B5006886B00D49884214D10C4801682A
:1011A00041F48011016000680221002200F48010E7
:1011B0000590032305244FF460708DE81F00054857
:1011C0006946FFF79DF806B010BD000000500140D1
:1011D00044380240001402402DE9F84F04464068AC
:1011E00098460D46B0F5827F17464FF004094FF040
:1011F000000601D1A06890B194F85C0001281AD0D3
:101200004FF0010B84F85CB0FFF774F9009094F88C
:101210005D004FF0000A01280FD002268FE084F80D
:101220005D9013462A4620461146CDF8008000F016
:101230002BF9BDE8F88F0220FBE7002D7ED0002FB0
:101240007CD0E16884F85D90C4F860A04FF4E0625F
:10125000C4F838A091422564A4F83CA0C4F84CA07E
:10126000C4F850A0A4F84470A4F84670A4F83EA0B6
:101270002068416802D921F4805101E041F4805195
:101280004160A068B0F5004F04D12068016821F4E6
:101290008041016020680168490603D4016841F07B
:1012A00040010160E068904219D939E02068816806
:1012B000C90708D0007B05F8010BB4F84600401EB2
:1012C000A4F846000BE0B8F1000F26D0B8F1FF3FBC
:1012D00005D0FFF70FF90099411A41451DD2B4F826
:1012E00046000028E2D11FE020688168C90708D0C5
:1012F000C06825F8020BB4F84600401EA4F846006A
:101300000EE0B8F1000F08D0B8F1FF3F08D0FFF7AA
:10131000F1F80099411A414502D303260FE00DE090
:10132000B4F846000028DFD1009A4146204600F07C
:1013300059FD08B120202066206E00B1012684F8F6
:101340005DB0304684F85CA073E72DE9F84F0446A1
:1013500090F85C0000269846012817460D460DD0EF
:101360004FF0010A84F85CA0FFF7C4F8834694F8B4
:101370005D00B146012804D002267FE00220BDE8CE
:10138000F88F002D79D0002F77D0A2680321A563B4
:10139000A78784F85D10C4F86090E787C4F8409090
:1013A000A4F84490A4F84690B2F5004FC4F85090C9
:1013B000C4F84C9004D12068016841F48041016078
:1013C00020680168490603D4016841F040010160CA
:1013D000E068B0F5E06F17D83CE0206881688907C5
:1013E00006D535F8021BC160E08F401EE0870BE098
:1013F000B8F1000F2CD0B8F1FF3F05D0FFF77AF815
:10140000A0EB0B01414523D2E08F0028E5D124E079
:101410002068816889070FD5E18F012905D935F842
:10142000021BC160E08F801E04E015F8011B0173F0
:10143000E08F401EE0870DE0B8F1000F08D0B8F152
:10144000FF3F07D0FFF756F8A0EB0B01414501D352
:10145000032613E0E08F0028DAD15A4641462046A1
:1014600000F0FAFC08B120202066A06818B92068B6
:10147000C16880680090206E00B1012684F85DA0EC
:10148000304684F85C907AE72DE9F05F0D4690F8DD
:101490005C10002699460A9F0129924604464FF0A7
:1014A00001080ED0012084F85C00FFF723F8834682
:1014B00094F85D00616801280CD0B1F5827F07D1F6
:1014C00002E00220BDE8F09FA16809B9042801D01C
:1014D0000226E6E0002D79D0BAF1000FFBD0B9F179
:1014E000000FF8D094F85D00042802D0052084F89D
:1014F0005D00A4F844900020A4F83C904FF4E06113
:10150000C4F840A0A563E26820668A42E0642065D2
:10151000A4F84690A4F83E9003D8B4F846000128F9
:1015200004D92068426822F4805203E020684268AF
:1015300042F48052426020680268520603D4026876
:1015400042F040020260E068884260683FD910B112
:10155000E08F012832D1216835F8020BC860E08F96
:10156000401EE0872AE000BFB8F1000F0DD0E08FE9
:1015700058B120688168890707D535F8022B4FF0EC
:101580000008C260E08F401EE087B4F8460068B1F2
:1015900020688168C90709D0C0684FF001082AF89F
:1015A000020BB4F84600401EA4F84600781C05D093
:1015B000FEF7A0FFA0EB0B00B8425ED2E08F002840
:1015C000D2D1B4F846000028CED15FE068E010B177
:1015D000E08F012853D1216815F8010B0873E08FC3
:1015E000401EE0874BE000BFB8F1000F16D0E08F3F
:1015F000A0B120688168890710D5E18F012905D93C
:1016000035F8021BC160E08F801E04E015F8011B55
:101610000173E08F401EE0874FF00008B4F84600E9
:1016200018B320688168C9071FD0B4F84610012993
:1016300011D9C0682AF8020BB4F84600801EA4F83D
:101640004600B4F8460001280DD82068416841F4EE
:101650008051416007E0017B0AF8011BB4F84600A5
:10166000401EA4F846004FF00108781C07D0FEF792
:1016700041FFA0EB0B00B84201D3032611E0E08F3D
:101680000028B1D1B4F846000028ADD15A463946F9
:10169000204600F0E1FB08B120202066206E00B15A
:1016A0000126012084F85D000021304684F85C109A
:1016B00008E704284FF0E020016903D021F004017D
:1016C0000161704741F00401FAE77047401EB0F134
:1016D000807F10B501D3012010BD4FF0E024606180
:1016E0000F21601700F06CFB0020A0610721216131
:1016F00010BD10B5FFF7E9FF10BD10B5040003D011
:1017000094F8690010B107E0012010BD002084F8B2
:101710006800204600F026F8242084F8690020683C
:10172000016821F001010160204600F05FFD012801
:10173000EBD0606A10B1204600F0D4FC206841680C
:1017400021F4904141602068816821F02A01816084
:101750002068016841F0010101602046BDE81040A9
:1017600000F024BDF0B5006887B0104988421AD156
:101770000F48016841F01001016000680224002553
:10178000694600F0100005900326072780208DE8A9
:10179000F1000848FEF7B4FD200269468DE8F1002B
:1017A0000548FEF7ADFD07B0F0BD00000010014098
:1017B0004438024000040240000002402DE9F84392
:1017C000044690F869001F4616460D4620284ED163
:1017D000C5B1BEB194F86800012848D0012284F850
:1017E000682021214FF00008C4F86C8084F869104B
:1017F0005034FEF77FFE268081466680503C4FF4D1
:10180000805619E00120BDE8F88300BFB4F852000B
:10181000401EA4F8520000224B468021204600972B
:1018200000F010FEA0B9A068B04201D1206988B1D3
:1018300015F8010B21688862B4F852000028E5D140
:1018400000224B4640212046009700F0FBFD38B1B6
:101850000320D8E735F8020B2168C0F30800EAE757
:10186000202184F86910002084F86880CBE70220EA
:10187000C9E7FEE734482DE9F041016886B041F040
:1018800001010160016801F001010591016841F069
:1018900002010160016801F002010591016841F453
:1018A00080710160016801F480710591016841F067
:1018B00080010160016801F080010591016841F03B
:1018C00004010160016801F004010591016841F023
:1018D00040010160016801F040010591016841F09B
:1018E0002001016000680022184F022100F0200052
:1018F00005903846FEF7F9FDDFF854800022C0213C
:101900004046FEF7F2FD0125694603260220002429
:10191000CDE90005CDE902463846FEF7F1FCC020CE
:101920006946CDE90005CDE902464046FEF7E8FCF0
:1019300040206946CDE9000406480294FEF7E0FC29
:1019400006B0BDE8F08100003038024000200240BF
:10195000000802400018024070B513484FF4E064DC
:101960000021104E4FF482752823C0E90214016152
:101970007215E0E805650724082580E80E00C160BF
:101980000161C0E90514C0E907150748FFF79EFB90
:10199000002805D0BDE87040472104A000F085BDB7
:1019A00070BD000000500140180000202E2E2F5363
:1019B00072632F7370692E63000000000E480021CF
:1019C00010B50C4C0C224FF416530460C0E90131E1
:1019D000C160C0E904128161C16101624162FFF727
:1019E0008CFE002805D0BDE81040442103A000F083
:1019F0005CBD10BD001001407C0000202E2E2F5336
:101A000072632F75736172742E630000FEE7704776
:101A1000002010B500F0B2F840F00301002000F003
:101A200029F9074801224021FEF75FFD9620FEF7C5
:101A300053FC00F063F8BDE8104000F07FB80000F0
:101A40000008024010B51E4C40212046FEF744FD20
:101A50000128F9D0072000F091F81AA102461D488C
:101A600000F024FD1B48FEF7FCFB82B219491A481E
:101A70001423FFF7A3FE19480221FEF732FD0A20C6
:101A8000FEF72AFC072000F079F8154905226120AD
:101A900000F0A4F8124840210488072000F0EAF87A
:101AA0000C4810A1224600F001FD0A48FEF7D9FBC0
:101AB000BDE8104082B2074907481423FFF77EBEF5
:101AC000001802405354415455533A203078255859
:101AD0000D0A0000EC0000207C00002000200240E5
:101AE0000300002052656365697665642044617473
:101AF000612D3E2025640D0A000000000CA038B5C1
:101B00000C4C00220068802100902046FEF7EDFC7E
:101B1000094801224FF47A736946FFF716FC012049
:101B2000FEF7DAFB012220468021FEF7DEFC38BDFD
:101B3000E200000000080240180000200CA038B5A8
:101B40000C4C00220068802100902046FEF7CDFC5E
:101B5000094801224FF47A736946FFF7F6FB01202A
:101B6000FEF7BAFB012220468021FEF7BEFC38BDFD
:101B7000E1000000000802401800002031B584B0E8
:101B8000144D0020802102468DF804002846FEF7FF
:101B9000ACFC114801234FF47A74009401AA04A903
:101BA000FFF772FC9DF81000072809D0FF208DF880
:101BB00008000948012301AA009402A9FFF764FC68
:101BC000012228468021FEF790FC9DF8040005B014
:101BD00030BD00000008024018000020F7B50E4C90
:101BE000164600220F4680212046FEF77EFC4FF469
:101BF0007A750A4801222B466946FFF7A6FB07487B
:101C00002B4632463946FFF7E7FA0122204680216B
:101C1000FEF76BFCFEBD000000080240180000202B
:101C200011A038B5114C0022006880210090204698
:101C3000FEF75BFC4FF47A750D4801222B4669468E
:101C4000FFF783FB0120FEF747FB73208DF80000B0
:101C5000074801222B466946FFF777FB0122204601
:101C60008021FEF742FC38BD500000000008024011
:101C70001800002073B5104C002280219DF8000050
:101C800040F020008DF800002046FEF72EFC4FF4B7
:101C90007A750A4801222B466946FFF756FB07482A
:101CA000012201A92B46FFF750FB0122204680218B
:101CB000FEF71BFC7CBD000000080240180000205D
:101CC000F7B5124C164600220F469DF80000802101
:101CD00040F020008DF800002046FEF706FC4FF48F
:101CE0007A750B4801222B466946FFF72EFB01202F
:101CF000FEF7F2FA06482B4632463946FFF725FB37
:101D0000012220468021FEF7F0FBFEBD00080240C4
:101D10001800002027480022402110B5FEF7E5FBFF
:101D200041F288342046FEF7D7FA0A210020FFF757
:101D3000A1FF2046FEF7D0FA02210120FFF79AFF0B
:101D400002210846FFF796FF01210320FFF792FFCB
:101D50005F210420FFF78EFFFFF762FF00211D20A7
:101D6000FFF788FF00211C20FFF784FF7021072068
:101D7000FFF780FF4C210520FFF77CFF0621084676
:101D8000FFF778FF0C4903221020FFF799FF0A495B
:101D900003220B20FFF794FF05211220FFF76AFFB3
:101DA000FFF736FE00220548BDE810400221FEF78D
:101DB0009CBB000000080240000000200020024000
:101DC000090700284FEA116106DA00F00F0000F160
:101DD000E02080F8141D704700F1E02080F8001426
:101DE000704770472DE9F843044640684FF4827607
:101DF0001546B04289464FF400474FF4806809D138
:101E0000A068B84201D0404504D12068016821F0A3
:101E10004001016000224B4680212046009500F0E1
:101E20008FF880B96068B04214D1A068B84201D080
:101E300040450FD100224B464FF4C061204600952B
:101E400000F02EF830B1206E40F020002066032014
:101E5000BDE8F8830020FBE7F8B515460E460446BA
:101E60000B464FF4C0510092002200F019F888B9D7
:101E70000022334680212046009500F061F848B9E1
:101E8000002233464FF4C0612046009500F008F868
:101E9000002804D0206E40F0200020660320F8BD0A
:101EA0002DE9F8434FF4C0681D4617460E46DDF88D
:101EB000209004463DE0464505D127B9007B8DF8CA
:101EC00000009DF80000681C33D02DB1FEF712FB16
:101ED000A0EB0900A8422CD32068416821F0E00162
:101EE00041606068B0F5827F0BD1A068B0F5004F0B
:101EF00002D0B0F5806F04D12068016821F0400164
:101F00000160A06AB0F5005F0AD120684DF6FF724B
:101F10000168114001602068016841F400510160CE
:101F2000012184F85D10002084F85C000320BDE8E6
:101F3000F883206881683140B942BCD10020F6E7BF
:101F40002DE9F0411D4616460F460446DDF818807F
:101F500035E0681C33D02DB1FEF7CCFAA0EB0800B9
:101F6000A8422CD32068416821F0E00141606068FC
:101F7000B0F5827F0BD1A068B0F5004F02D0B0F56C
:101F8000806F04D12068016821F040010160A06ADF
:101F9000B0F5005F0AD120684DF6FF72016811406C
:101FA00001602068016841F400510160012184F85A
:101FB0005D10002084F85C000320BDE8F0812068FB
:101FC00080683840B042C4D10020F6E7704710B5B1
:101FD000FEF796FABDE81040FFF78BBB2A4830B5F4
:101FE000B3B0016841F080510160006800F080509A
:101FF00032902648016841F44041016000680224A3
:102000001923299300F44040329001201D018205DC
:102010000104CDE92742CDE92A542C94CDE92101D0
:1020200021A8FEF7B7FE00B1FEE7FEF711FB00B1F5
:10203000FEE74FF480524FF4A0510025CDE9301255
:102040002DAA0F20062182E831002DA8FEF7B4FD4D
:1020500000B1FEE74020119500906846FEF72EFB88
:1020600000B1FEE7FEF73EFE4FF47A71B0FBF1F0EF
:10207000FFF72CFB0420FFF71CFB0022501E11462B
:10208000FEF7B4FA33B030BD403802400070004073
:10209000104A30B51048146800210F4B44F4700406
:1020A0001460083305680D4A0D4C45F001050560C4
:1020B00019600368051D1340074A03600C322C6049
:1020C0000568E305034C25F480250560803C11601C
:1020D000236030BD88ED00E000380240FFFFF6FECF
:1020E0001030002490F82410C90706D00168836AD4
:1020F0004A6822F400321A434A6090F82410890793
:1021000006D50168C36A4A6822F480321A434A60DD
:1021100090F82410490706D50168036B4A6822F439
:1021200080221A434A6090F82410090706D50168F6
:10213000436B4A6822F400421A434A6090F8241024
:10214000C90606D50168836B8A6822F480521A4357
:102150008A6090F82410890606D50168C36B8A68E6
:1021600022F400521A438A6090F82410490611D5CF
:102170000168036C4A6822F480121A434A60016CB9
:10218000B1F5801F06D10168436C4A6822F4C00291
:102190001A434A6090F82410090606D50168826C3B
:1021A000486820F4002010434860704738B5002587
:1021B0000446C566FEF79EF90346206800680007DE
:1021C0000BD56FF07E400090002220464FF40011A6
:1021D00000F038F908B1032038BD202084F86900E8
:1021E00084F8685084F86A00002038BD2DE9F04773
:1021F00004468068874B884F2668D4E90415E26955
:102200000843D6F800C01021154300222843154684
:102210000CEA030C814B4CEA000CC6F800C04FF4EA
:1022200000492068D4F80CC0466826F4405646EAB7
:102230000C0646602668D4F82080A069D6F808C04D
:1022400040EA08002CF4306C4CEA000CC6F808C0D8
:102250002068B8420AD11B6813F0030352D0012B47
:102260007AD0022B76D0032B79D177E06C4EB04236
:102270000AD11B6813F00C036AD0042B6CD0082B16
:1022800068D00C2B6BD169E0664EB0420AD11B6856
:1022900013F030035CD0102B5ED0202B5AD0302BA3
:1022A0005DD15BE0604EB0420AD11B6813F0C00301
:1022B0004ED0402B50D0802B4CD0C02B4FD14DE076
:1022C0005A4EB0420DD11B6813F4407340D0B3F5A1
:1022D000807F41D0B3F5007F3CD0B3F5407F3ED145
:1022E0003CE0534EB0420FD11B6813F4406309D059
:1022F000B3F5806F30D0B3F5006F2BD0B3F5406FDE
:102300002DD12BE001212AE04A4EB0420DD11B68AD
:1023100013F440531CD0B3F5805F1DD0B3F5005FBC
:1023200018D0B3F5405F1AD118E0434EB04216D131
:102330001B6813F440430BD0B3F5804F0CD04B45D2
:1023400008D0B3F5404F0AD108E005E002E0FFE70E
:10235000002104E0022102E0042100E00821E669F6
:102360004E452AD109291FD2DFE801F00508141EC5
:10237000171E1E1E1A00FEF7BBFC01E0FEF7C8FC8C
:102380000146D4F80400490001EB5001B1FBF0F024
:1023900082B20AE029496068F6E7FEF7C9FCEFE778
:1023A00060684FF48031EFE70125216822F00F00CB
:1023B000C2F342021043C86028E0092925D2DFE8B1
:1023C00001F005080B24102424241C00FEF790FCC7
:1023D00009E0FEF79DFC06E06168194A02EB510234
:1023E0000EE0FEF7A5FC0146D4E9002001EB500108
:1023F000B1FBF0F080B2D06008E0616809EB5102F7
:10240000B2FBF1F189B2C16000E001252846BDE8C8
:10241000F0870000F369FFEF0010014090380240A0
:102420000044004000480040004C00400050004084
:102430000014014000780040007C00400048E801A2
:102440000024F4002DE9F041984617460E46044654
:10245000069D1DE0681C1BD02DB1FEF74BF8A0EBCC
:102460000800A84214D32168202000220B6823F41E
:10247000D0730B6021688B6823F001038B6084F8B4
:10248000690084F86A00032084F86820BDE8F081C0
:102490002068C06936EA000004D00020B842D9D0D4
:1024A0000020F3E70120F9E7FEE7FEE70FB4084B51
:1024B00010B504A902AA039800F01CF8044602A96A
:1024C000002000F077F9204610BC5DF814FB0000F6
:1024D000B527000802E008C8121F08C1002AFAD177
:1024E00070477047002001E001C1121F002AFBD194
:1024F000704700002DE9FF4F8DB09B460F46044604
:10250000002606E025280BD05A460F999047641CF8
:10251000761C20780028F5D111B03046BDE8F08F48
:102520000025A8460122984900E0054314F8013F20
:10253000203B02FA03F00842F7D120782E2817D169
:1025400014F8010F45F004052A280ED06FF02F0271
:102550002078A0F1300109290AD808EB880102EBA4
:10256000410100EB0108641CF2E757F8048B641C7E
:1025700020786C280DD004DC4C2812D06A2811D1A8
:1025800004E074280DD07A280CD10AE045F4001537
:1025900007E0617845F48015814202D1641C05F59D
:1025A0008015641C2278692A45D008DC002AB3D043
:1025B000582A69D0632A10D0642A08D13BE0702AD7
:1025C00067D0732A13D0752A5CD0782A5CD0104665
:1025D0005A460F999047761CD3E017F8040B8DF8F4
:1025E000000000208DF80100E946012003E057F8C3
:1025F000049B4FF0FF3069074FF0000501D40AE05B
:102600006D1C45450DDA8542FADB19F805100029E5
:10261000F6D106E06D1C8542FCDB19F80510002997
:10262000F8D12E4404E019F8010B5A460F9990474F
:102630006D1EF8D2A5E00A200021CDE90801C5F3FE
:10264000025002280DD001CFC117031E71F1000303
:102650000DDA4FF0000CD0EB0C006CEB01012D23D8
:1026600008E0FF1D27F00707F7E80201EDE72B055B
:1026700004D52B238DF8283001233BE0EB0739D01C
:102680002023F7E70A2000E010200021CDE908010F
:1026900007E01020002145F00405CDE908014FF0C6
:1026A0000808C5F3025002280FD001CF00214FF0D7
:1026B000000A2B071FD5702A0DD0DDE908C38CF066
:1026C000100C5CEA030C0CD015E0FF1D27F0070787
:1026D000F7E80201EBE740228DF828204FF0010ACD
:1026E0000BE050EA010306D030238DF828308DF836
:1026F000292002239A46582A04D024A20DF1200949
:102700000B9209E026A2F9E7DDE90823FDF778FD41
:102710000B9B9B5C09F8013D50EA0102F4D1ADEB43
:10272000090020300890680701D44FF0010808998B
:10273000884502DDA8EB010000E00020804600256E
:1027400006E00AA85A46405D0F9990476D1C761C1A
:102750005545F6DB04E030205A460F999047761C29
:10276000B8F10001A8F10108F5DC05E019F8010B4A
:102770005A460F999047761C0899481E08900029E0
:10278000F4DC641CC5E60000092801003031323356
:10279000343536373839616263646566000000009D
:1027A0003031323334353637383941424344454687
:1027B000000000000A68531C0B6010707047FDF7A2
:1027C000A7FEFFF70BFCFFF755F8FFF7F7F8FFF749
:1027D000C3F8FFF79FFAFFF735F9FCE700000000A8
:1027E00000000000010203040607080900000000C1
:1027F0000102030414280008000000201800000053
:10280000D42400082C2800081800002070050000BF
:10281000E4240008B3B4010000000000010000003F
:0C28200010000000000000000024F40084
:04000005080001C925
:00000001FF
