:020000040800F2
:10000000A0040020DD0100083B1300088D12000849
:1000100039130008050400088915000800000000D5
:100020000000000000000000000000006113000854
:1000300007040008000000005F13000863130008B5
:10004000F7010008F7010008F7010008F7010008B0
:10005000F7010008F7010008F7010008F7010008A0
:10006000F7010008F7010008F7010008F701000890
:10007000F7010008F7010008F7010008F701000880
:10008000F7010008F7010008C5020008F7010008A1
:10009000F7010008F7010008F7010008F701000860
:1000A000F7010008F7010008F7010008F701000850
:1000B000F7010008F7010008F7010008F701000840
:1000C000F7010008F7010008F7010008F701000830
:1000D000F7010008F7010008F7010008F701000820
:1000E000F7010008F7010008F7010008F701000810
:1000F000F7010008F7010008F7010008F701000800
:10010000F7010008F7010008F7010008F7010008EF
:10011000F7010008F7010008F7010008F7010008DF
:10012000F7010008F7010008F7010008F7010008CF
:10013000F7010008F7010008F7010008F7010008BF
:10014000F7010008F7010008F7010008F7010008AF
:10015000F7010008F7010008F7010008F70100089F
:10016000F7010008F7010008F7010008F70100088F
:10017000F7010008F7010008F7010008000000007F
:10018000F7010008F7010008F7010008F70100086F
:10019000F7010008F7010008F7010008F70100085F
:1001A000F7010008F7010008F7010008F70100084F
:1001B000F7010008F7010008F7010008F70100083F
:1001C000F7010008F7010008DFF80CD000F068F82C
:1001D00000480047A9150008A004002006488047F1
:1001E00006480047FEE7FEE7FEE7FEE7FEE7FEE71C
:1001F000FEE7FEE7FEE7FEE701140008C90100087C
:100200002DE9F05F0546002092469B46884606464B
:10021000814640241BE0284641464746224600F0DE
:100220002FF853465A46C01A914110D3114618462A
:10023000224600F016F82D1A67EB01084F462246B9
:100240000120002100F00DF817EB00094E41201E9F
:10025000A4F10104DFDC484631462A464346BDE8A6
:10026000F09F202A04DB203A00FA02F100207047B8
:100270009140C2F1200320FA03F3194390407047E4
:10028000202A04DB203A21FA02F00021704721FAEB
:1002900002F3D040C2F12002914008431946704752
:1002A000064C074D06E0E06840F0010394E80700C3
:1002B00098471034AC42F6D3FFF78AFF2C1600089B
:1002C0004C160008014800F069B900001400002035
:1002D00049496FF0706210B5D1F8043323F440330C
:1002E000C1F80433D1F8043344682343C1F804331C
:1002F00001684B6823F480734B60016803694C68A4
:1003000044EA03234B6001684B6823F040734B6061
:10031000016884684B6823434B6001688B6823F451
:1003200000638B600168C4688B6823438B60816ABB
:10033000D14201688A6822F070628A6001680DD03B
:10034000836A8A681A438A6001688A6822F0405288
:100350008A600168C36A8A681A4302E08A6822F0E8
:1003600040528A6001688A6822F002028A6001684D
:1003700082698B6843EA42028A60016A0029016847
:1003800011D01E4A4B6843F400634B6001684B6810
:1003900023F460434B600168446A4B6802EB4432CB
:1003A00013434B6003E04A6822F400624A6001682C
:1003B000134BCA6A22F47002CA620168848BCA6A4B
:1003C00003EB04531A43CA6201688A6822F400727C
:1003D0008A600168026B8B6843EA42228A60016886
:1003E0008A6822F480628A60016840698A6842EA09
:1003F0008020886010BD00000020014000E0FFFF69
:100400000000F0FFFEE7704770470000F8B50025D8
:10041000009590F83C20012A18D0012280F83C2059
:100420000A6807234E4C0668092A1AD90A3A02EBD1
:100430004207F268BB409A43F2600E680268A64227
:1004400006D10B7AD66846EA036308E00220F8BDBD
:100450000A3E8B68D76806EB4606B3403B43D36041
:100460000EE002EB42073269BB409A4332610368F7
:100470000E788A681F6906EB4606B2403A431A6155
:100480004A681F23072A13D20668521E02EB82070E
:10049000726BBB409A43726303680E790A88761EBA
:1004A0005F6B92B206EB8606B2403A435A6327E08E
:1004B00006680D2A12D2D21F02EB8207326BBB40B4
:1004C0009A43326302680E790B88F61F176B9BB252
:1004D00006EB8606B3403B43136311E00D3A02EB93
:1004E0008207F26ABB409A43F26202680E790B8877
:1004F0000D3ED76A9BB206EB8606B3403B43D36200
:10050000184A0368934208D10B68122B05D1D2F820
:10051000043343F48003C2F80433036893421AD1CE
:100520000B68A34201D0112B15D1D2F8043343F448
:100530000003C2F804330968A1420CD10A490B4AEE
:100540000968B1FBF2F101EB8101490000E0491EAD
:1005500000910029FBD180F83C500020F8BD00003C
:1005600012000010002001401000002040420F0047
:10057000054810B500F00FF8044908700221BDE8E5
:100580001040034800F04ABA140000200000002088
:100590000020024070470068C06C704770B5044688
:1005A000006801684268C1F34001C2F3401251B3D0
:1005B0004AB3216CC90603D4216C41F40071216453
:1005C000816811F0405F17D1A169A9B9C16A11F41E
:1005D000700F02D0816849050ED4416821F02001D6
:1005E0004160206C20F480702064206CC00403D42F
:1005F000206C40F0010020642046FFF7B9FF21681D
:100600006FF012000860206801684268C1F3800141
:10061000C2F3C01289B382B3216CC90603D4216C22
:1006200041F400512164816811F4401F1ED1816B97
:1006300011F4401F02D08168490517D4416849056B
:1006400014D4816811F0405F10D1A16971B941687B
:1006500021F080014160206C20F480502064206CE7
:10066000C00503D4206C40F0010020642046FFF751
:10067000CBFE21686FF00C000860206801684368B9
:1006800011F0010FC3F380110ED069B10068C007EB
:100690000AD0206C40F480302064204600F046F8F8
:1006A00021686FF001000860206801684268C1F3AA
:1006B00040110029C2F380620DD0002A0BD0616C7A
:1006C0006FF0200541F00201616405602046FFF7EC
:1006D00061FF2068056070BD70B504004FF0000533
:1006E00003D0206C002610B107E0012070BD6664C5
:1006F000204684F83C6000F01BF8206CC00610D443
:10070000206C20F4885040F0020020642046FFF75F
:10071000DFFD6664206C20F0020040F001002064E0
:1007200000E0012584F83C60284670BD7047000059
:1007300000B5006887B00F49884219D10E4801689A
:1007400041F48071016000680321002200F4807090
:10075000059002208DE807000848694600F072F80D
:1007600000221220114600F0EBF9122000F0DCF913
:1007700007B000BD002001404438024000000240A4
:1007800018B50021009190F83C20012A07D00122E1
:1007900080F83C2002689368DB0702D011E0022059
:1007A00018BD9468234B44F001049460224A1268F7
:1007B000B2FBF3F202EB420200E0521E0092002A6A
:1007C000FBD102689368DB0732D0036C40F201640E
:1007D000A34343F48073036453685B0505D5036C3E
:1007E00023F4005343F480530364036CDB0404D507
:1007F000436C23F00603436400E041646FF022037E
:1008000080F83C100D4C0E49136002685368234376
:100810005360D1F804230068D20601D0884207D182
:10082000816811F0405F03D1816841F080418160AF
:10083000002018BD40420F001000002020000004DE
:10084000002001402DE9F84FDFF89CE100224FF035
:1008500001084FF0030B4FF00F0A00BF0B6808FAB6
:1008600002F42340A34271D14D68022D01D0122D14
:100870000FD1D5080E69570700EB8505A9462D6AEB
:10088000FF0E0AFA07FCBE4025EA0C052E43C9F804
:1008900020600F79550006680BFA05FC07F0030786
:1008A00026EA0C06AF40374307604E68012E05D09C
:1008B000022E03D0112E01D0122E0ED18668CF68E1
:1008C00026EA0C06AF403743876046680F79A64397
:1008D000C7F30017974037434760C4688E6824EA1F
:1008E0000C04AE402643C6604C68E40075D53F4C0E
:1008F000256845F480452560246822F003069507A5
:1009000004F4804400943A4C2D0F2644D6F808484D
:10091000DFF8E0C00AFA05F7604524EA070401D1D0
:1009200000272EE0344FB84201D1012729E0334F90
:10093000B84201D1022724E0314FB84201D1032748
:100940001FE0304FB84202D104271AE045E02E4F95
:10095000B84201D1052714E02C4FB84201D1062737
:100960000FE02B4FB84201D107270AE0294FB842C8
:1009700001D1082705E0284FB84201D1092700E03E
:100980000A27AF4027437546C6F808784E68DEF858
:100990000040F60324EA030400D51C43124E2C60E9
:1009A000361D4D683468AD0324EA030400D51C43AA
:1009B0000D4F346008374D683C68ED0224EA0304AB
:1009C00000D51C43084D3C600C354E682C68B602BF
:1009D00024EA030400D51C432C60521C102AFFF4A7
:1009E0003DAFBDE8F88F0000003C014044380240B4
:1009F00000300140000002400004024000080240B4
:100A0000000C024000100240001402400018024096
:100A1000001C0240002002400024024042694A407B
:100A2000426170470AB1816170470904FBE7000029
:100A30000148806870470000040000200248816877
:100A4000027811448160704704000020032010B533
:100A500000F096F8002000F005F800F023F80020E0
:100A600010BD000070B50D4D04464FF47A700C4A6D
:100A700029781268B0FBF1F0B2FBF0F000F009FB4E
:100A800048B9102C07D200222146501E00F058F819
:100A900000206C6070BD012070BD000004000020CB
:100AA000100000201F4808B5016841F08051016026
:100AB000006800F0805000901A48001D016841F461
:100AC00080410160006800F480400090032000F045
:100AD00057F800226FF00B00114600F031F80022A9
:100AE0006FF00A00114600F02BF800226FF00900A9
:100AF000114600F025F80022501F114600F020F8A2
:100B00000022101F114600F01BF80022901E114613
:100B100000F016F80022BDE80840501E114600F013
:100B20000FB8000040380240410900F01F02890060
:100B3000012001F1E0219040C1F800017047000060
:100B40000E4BF0B41B680D46C3F30223C3F1070636
:100B5000042E00D90426191D072901D2002300E024
:100B6000DB1E012404FA06F19C40491E2940641E44
:100B7000994014402143F0BC00F0E0BB0CED00E0D4
:100B8000064900F0070210B54FF6FF040868044B51
:100B9000204040EA02201843086010BD0CED00E040
:100BA0000000FA052DE9F04705000F4663D0444EDA
:100BB000306800F00F00B84209D2306820F00F0012
:100BC00038433060306800F00F00B84253D12868D5
:100BD0003C4C810712D5400703D5206840F4E05013
:100BE00020602878000703D5206840F4604020602A
:100BF000A968206820F0F000084320602878C0072A
:100C00002AD0304968680839012810D009680228BC
:100C100010D0890700292EDA216821F00301014351
:100C20002160FFF705FF804641F288390DE0096831
:100C30008903EFE78901EDE7FFF7FAFEA0EB080172
:100C4000494502D90320BDE8F0876868216801F0B2
:100C50000C01B1EB800FEFD1306800F00F00B8420B
:100C60000BD9306820F00F0038433060306800F056
:100C70000F00B84201D00120E5E72878400705D5EC
:100C8000E968206820F4E0500843206028780007D5
:100C900006D52869216821F4604141EAC00020603E
:100CA00000F01CF82168084AC1F30311515CC840E8
:100CB000064908600020FFF7D5FE0020C3E70000CA
:100CC000003C0240083802401C16000810000020BA
:100CD000014800687047000010000020154910B559
:100CE0001548096811F00C0213D01449042A0FD0DA
:100CF000082A0ED10F4C241F2268236802F03F02FD
:100D00005B0207D52068C0F38810A0FB010106E054
:100D1000084610BD2168C1F38811A1FB0001002322
:100D2000FFF76EFA2168C1F30141491C4900B0FB8D
:100D3000F1F010BD083802400024F40040787D0135
:100D40002DE9F84F05004FF000076ED02878DFF846
:100D50001C93A9F1040AC007AAF104044CD0D9F8E5
:100D600000104846C1F38101012908D00068C0F392
:100D7000810002280AD1DAF80000400206D5206876
:100D8000800339D568680028DFD035E06868B0F5A1
:100D9000803F0BD010B1B0F5A02F11D0206820F407
:100DA00080302060206820F4802002E0206840F439
:100DB00080302060686890B1FFF73AFE06460AE08E
:100DC000206840F480202060F0E700BFFFF730FE8D
:100DD000801B642872D820688003F7D50CE0FFF7E9
:100DE00027FE064605E000BFFFF722FE801B6428B1
:100DF000F0D820688003F7D42878800742D5D9F846
:100E00000010484611F00C0F08D00068C0F38100B4
:100E100002280BD1DAF80000400207D420688007CE
:100E200018D5E868012800D114E01CE1E868002822
:100E3000206817D040F001002060FFF7F9FD06465A
:100E400005E000BFFFF7F4FD801B0228C2D8206830
:100E50008007F7D52869216821F0F80141EAC00030
:100E600020600FE020F001002060FFF7E1FD064662
:100E700005E000BFFFF7DCFD801B02281ED82068BC
:100E80008007F7D42878000729D5784869696C303D
:100E900000298046016812D041F001010160FFF78E
:100EA000C7FD064605E000BFFFF7C2FD801B022814
:100EB00004D8D8F800008007F6D510E089E021F0CA
:100EC00001010160FFF7B4FD064604E0FFF7B0FD45
:100ED000801B02287DD8D8F800008007F6D4287837
:100EE00040076BD5DFF8848108F13808D8F8000096
:100EF000C0000BD4D8F8001041F08051C8F80010A1
:100F0000D8F80000012700F0805000905848016890
:100F1000C90512D40168834641F480710160FFF76E
:100F200087FD064605E000BFFFF782FD801B6428B1
:100F30004FD8DBF80000C005F6D54C4EA8686836DF
:100F400001280AD008B1052811D0306820F001002E
:100F50003060306820F0040002E0306840F00100AA
:100F60003060A868A0B1FFF763FD83460CE03068ED
:100F700040F004003060F0E7FFF75AFDA0EB0B01F2
:100F800041F28830814266D830688007F4D50EE09F
:100F9000FFF74EFD834607E0FFF74AFDA0EB0B018C
:100FA00041F28830814256D830688007F4D42FB19E
:100FB000D8F8001021F08051C8F80010A869C8B313
:100FC000D9F80010C1F3810102294CD00228206811
:100FD00000E040E020F08070206003D0FFF728FDA3
:100FE00005463BE0FFF724FD064604E0FFF720FD41
:100FF000801B02282FD820688001F7D4D5E9096228
:10100000D5E907011B4B570895F82C20084303EB43
:10101000074343EA8611084340EA026040F000506B
:10102000CAF80000206840F080702060FFF700FDE3
:10103000054606E015E000BFFFF7FAFC401B02285A
:1010400009D820688001F7D50BE000BFFFF7F0FC5E
:10105000401B022802D90320BDE8F88F20688001D8
:10106000F4D40020F8E70120F6E700000838024039
:10107000007000400000FFFF04284FF0E0200169ED
:1010800003D021F004010161704741F00401FAE747
:101090007047401EB0F1807F10B501D3012010BD14
:1010A0004FF0E02460610F21601700F047F9002045
:1010B000A0610721216110BD10B5FFF7E9FF10BD48
:1010C00070B590F83C20012A1FD0012280F83C2006
:1010D00002680F4C5368A242956802D00D4CA242A0
:1010E00003D14C6823F4700323430C6889680026FD
:1010F00023F070031C43546025F0800502682943E7
:10110000916080F83C60304670BD022070BD0000E8
:10111000000001400004014010B5040003D094F821
:101120003D0010B107E0012010BD002084F83C0014
:10113000204600F00DF8022084F83D002068211DB3
:1011400000F088F9012084F83D00002010BD000067
:1011500008B50068B0F1804F08D10548016841F03A
:1011600001010160006800F00100009008BD00006E
:1011700040380240022180F83D10012201680B68CE
:1011800043F001030B6080F83D2000207047000011
:1011900070B5044690F83C00012817D03A4E01255E
:1011A00084F83C50022084F83D002268906830406A
:1011B00020F47F4090600868502839D00DDC20284A
:1011C0005BD005DC98B3102843D153E0022070BDFA
:1011D000302855D040283CD141E0602830D07028DC
:1011E0000CD0B0F5805F03D0B0F5005F31D112E0D4
:1011F0002068254A70328168114016E04A682068EC
:10120000D1E9021300F08CF921688868304040F081
:10121000770088601DE04A682068D1E9021300F079
:101220007FF92068816841F48041816011E01EE00F
:10123000CA684968206800F084F92068502106E0F7
:10124000CA684968206800F08DF92068602100F0C4
:1012500070F9002084F83D5084F83C0070BDCA68E5
:101260004968206800F06DF920684021EFE72068A8
:101270000021ECE720681021E9E720682021E6E75B
:1012800020683021E3E7000088FFFEFFFEE7000052
:101290007FB513480124114D0021620605604FF00F
:1012A0003065C0E901120161D30081610162C4614E
:1012B00085624461C160C0E90B31FFF70DFA00B1EE
:1012C000FEE7022000946946CDE901400448FFF79B
:1012D0009DF8002800D0FEE77FBD000000200140FF
:1012E000140000201348C82110B5002488B0C0E9BC
:1012F00002414FF47A5204614FF080438461C0E9A7
:101300000032FFF709FF00B1FEE74FF48050039071
:10131000084803A9FFF73CFF00B1FEE7202000903A
:10132000044869460294FFF7CBFE002800D0FEE790
:1013300008B010BD5C000020FEE7704709070028D8
:101340004FEA116106DA00F00F0000F1E02080F8AA
:10135000141D704700F1E02080F8001470477047BA
:10136000704710B5FFF76AFBBDE81040FFF7A4BE59
:10137000214810B592B0016841F0805101600068C9
:1013800000F0805011901D48016821F4404141F463
:1013900080410160006810220024069400F440405F
:1013A00011900220009001216846CDE90312FFF759
:1013B000C7FC00B1FEE70F200E944FF48051CDE939
:1013C0000C040CA8CDE90F410021FFF7EBFB00B1A5
:1013D000FEE7FFF77DFC4FF47A71B0FBF1F0FFF709
:1013E00058FE0420FFF748FE0022501E1146FFF76A
:1013F000A7FB12B010BD0000403802400070004052
:10140000104A30B51048146800210F4B44F47004A2
:101410001460083305680D4A0D4C45F00105056060
:1014200019600368051D1340074A03600C322C60E5
:101430000568E305034C25F480250560803C1160B8
:10144000236030BD88ED00E000380240FFFFF6FE6B
:1014500010300024F0B5274B4FF0804E264D026827
:101460009842264E264F274C09D0704507D0A842F7
:1014700005D0B04203D0B84201D0A04205D1D1F886
:1014800004C022F070024CEA020298421BD0704560
:1014900019D0A84217D0B04215D0B84213D0A042FC
:1014A00011D0194DA8420ED0184DA8420BD0184D9E
:1014B000A84208D0174DA84205D0174DA84202D027
:1014C000164DA84203D1CD6822F440722A434D69DB
:1014D00022F080022A43026098428A68C2620A6847
:1014E000826201D0A04201D10969016301214161F9
:1014F000F0BD000000000140000400400008004072
:10150000000C004000040140004001400044014044
:101510000048014000180040001C0040002000402E
:1015200042EA032283680A4323F47F410A4382602C
:101530007047826822F070020A4342F0070181601E
:10154000704710B5036A046A23F00A0324F001040B
:10155000046284690B4324F0F00141EA02118161C5
:10156000036210BD10B5036A23F0100303628369A0
:10157000046A23F4704324F0A00443EA0232826137
:1015800044EA0111016210BDFEE702E008C8121F23
:1015900008C1002AFAD170477047002001E001C15C
:1015A000121F002AFBD1704786B0FFF74FFAFFF7F2
:1015B000DFFE1748016841F001010160016801F098
:1015C00001010591016841F4807101600068002209
:1015D000104C022100F4807005902046FFF722FA9B
:1015E00000210220009001222046CDE90121039133
:1015F0006946FFF727F9FFF74BFEFFF773FE064832
:10160000FFF7B8FD04484838FFF7BAF8FEE70000D6
:1016100030380240002002405C0000200000000042
:101620000000000001020304060708094C16000828
:1016300000000020140000008A1500086016000851
:10164000140000208C0400009A150008000000001F
:101650000100000010000000000000000024F40061
:04000005080001C925
:00000001FF
