:020000040800F2
:1000000050040020DD0100085B0E0008D90D000837
:10001000590E0008C5020008071300080000000080
:10002000000000000000000000000000810E000839
:10003000C7020008000000007F0E0008830E0008C1
:10004000F7010008F7010008F7010008F7010008B0
:10005000F7010008F7010008F7010008F7010008A0
:10006000F7010008F7010008F7010008F701000890
:10007000F7010008F7010008F7010008F701000880
:10008000F7010008F7010008F7010008F701000870
:10009000F7010008F7010008F7010008F701000860
:1000A000F7010008F7010008F7010008F701000850
:1000B000F7010008F7010008F7010008F701000840
:1000C000F7010008F7010008F7010008F701000830
:1000D000F7010008F7010008F7010008F701000820
:1000E000F7010008F7010008F7010008F701000810
:1000F000F7010008F7010008F7010008F701000800
:10010000F7010008F7010008F7010008F7010008EF
:10011000F7010008F7010008F7010008F7010008DF
:10012000F7010008F7010008F7010008F7010008CF
:10013000F7010008F7010008F7010008F7010008BF
:10014000F7010008F7010008F7010008F7010008AF
:10015000F7010008F7010008F7010008F70100089F
:10016000F7010008F7010008F7010008F70100088F
:10017000F7010008F7010008F7010008000000007F
:10018000F7010008F7010008F7010008F70100086F
:10019000F7010008F7010008F7010008F70100085F
:1001A000F7010008F7010008F7010008F70100084F
:1001B000F7010008F7010008F7010008F70100083F
:1001C000F7010008F7010008DFF80CD000F068F82C
:1001D00000480047291300085004002006488047C3
:1001E00006480047FEE7FEE7FEE7FEE7FEE7FEE71C
:1001F000FEE7FEE7FEE7FEE7210F0008C901000861
:100200002DE9F05F0546002092469B46884606464B
:10021000814640241BE0284641464746224600F0DE
:100220002FF853465A46C01A914110D3114618462A
:10023000224600F016F82D1A67EB01084F462246B9
:100240000120002100F00DF817EB00094E41201E9F
:10025000A4F10104DFDC484631462A464346BDE8A6
:10026000F09F202A04DB203A00FA02F100207047B8
:100270009140C2F1200320FA03F3194390407047E4
:10028000202A04DB203A21FA02F00021704721FAEB
:1002900002F3D040C2F12002914008431946704752
:1002A000064C074D06E0E06840F0010394E80700C3
:1002B00098471034AC42F6D3FFF78AFF6C1300085E
:1002C0008C130008FEE770472DE9F84FDFF89CE13A
:1002D00000224FF001084FF0030B4FF00F0A00BF50
:1002E0000B6808FA02F42340A34271D14D68022D35
:1002F00001D0122D0FD1D5080E69570700EB8505E7
:10030000A9462D6AFF0E0AFA07FCBE4025EA0C0535
:100310002E43C9F820600F79550006680BFA05FCDA
:1003200007F0030726EA0C06AF40374307604E6824
:10033000012E05D0022E03D0112E01D0122E0ED187
:100340008668CF6826EA0C06AF4037438760466868
:100350000F79A643C7F30017974037434760C46837
:100360008E6824EA0C04AE402643C6604C68E40064
:1003700075D53F4C256845F480452560246822F0FA
:100380000306950704F4804400943A4C2D0F26444C
:10039000D6F80848DFF8E0C00AFA05F7604524EA15
:1003A000070401D100272EE0344FB84201D10127C4
:1003B00029E0334FB84201D1022724E0314FB8423F
:1003C00001D103271FE0304FB84202D104271AE0C1
:1003D00045E02E4FB84201D1052714E02C4FB8421A
:1003E00001D106270FE02B4FB84201D107270AE0C1
:1003F000294FB84201D1082705E0284FB84201D162
:10040000092700E00A27AF4027437546C6F8087859
:100410004E68DEF80040F60324EA030400D51C43CE
:10042000124E2C60361D4D683468AD0324EA030477
:1004300000D51C430D4F346008374D683C68ED0211
:1004400024EA030400D51C43084D3C600C354E687B
:100450002C68B60224EA030400D51C432C60521C0D
:10046000102AFFF43DAFBDE8F88F0000003C0140CA
:1004700044380240003001400000024000040240C5
:1004800000080240000C024000100240001402402C
:1004900000180240001C02400020024000240240DC
:1004A0000148806870470000000000200248816811
:1004B000027811448160704700000020032010B5CD
:1004C00000F08AF8002000F005F800F023F8002082
:1004D00010BD000070B50D4D04464FF47A700C4A03
:1004E00029781268B0FBF1F0B2FBF0F000F0FDFAF1
:1004F00048B9102C07D200222146501E00F04CF8BB
:1005000000206C6070BD012070BD00000000002064
:100510000C0000201F4808B5016841F080510160BF
:10052000006800F0805000901A48001D016841F4F6
:1005300080410160006800F480400090032000F0DA
:100540004BF800226FF00B00114600F025F8002256
:100550006FF00A00114600F01FF800226FF009004A
:10056000114600F019F80022501F114600F014F84F
:100570000022101F114600F00FF80022901E1146B5
:1005800000F00AF80022BDE80840501E114600F0B5
:1005900003B80000403802400E4BF0B41B680D4613
:1005A000C3F30223C3F10706042E00D90426191D44
:1005B000072901D2002300E0DB1E012404FA06F122
:1005C0009C40491E2940641E994014402143F0BCC0
:1005D00000F044BC0CED00E0064900F0070210B545
:1005E0004FF6FF040868044B204040EA02201843FD
:1005F000086010BD0CED00E00000FA052DE9F047A1
:1006000005000F4663D0444E306800F00F00B8423A
:1006100009D2306820F00F0038433060306800F0B5
:100620000F00B84253D128683C4C810712D54007CF
:1006300003D5206840F4E05020602878000703D5F7
:10064000206840F460402060A968206820F0F00035
:10065000084320602878C0072AD0304968680839E4
:10066000012810D00968022810D0890700292EDA45
:10067000216821F0030101432160FFF711FF80464B
:1006800041F288390DE009688903EFE78901EDE758
:10069000FFF706FFA0EB0801494502D90320BDE89A
:1006A000F0876868216801F00C01B1EB800FEFD191
:1006B000306800F00F00B8420BD9306820F00F000E
:1006C00038433060306800F00F00B84201D001209C
:1006D000E5E72878400705D5E968206820F4E05070
:1006E000084320602878000706D52869216821F48E
:1006F000604141EAC000206000F01CF82168084A0F
:10070000C1F30311515CC840064908600020FFF79F
:10071000E1FE0020C3E70000003C02400838024030
:100720005C1300080C0000200148006870470000BE
:100730000C000020154910B51548096811F00C028D
:1007400013D01449042A0FD0082A0ED10F4C241FAD
:100750002268236802F03F025B0207D52068C0F3DD
:100760008810A0FB010106E0084610BD2168C1F316
:100770008811A1FB00010023FFF742FD2168C1F3AE
:100780000141491C4900B0FBF1F010BD083802409E
:100790000024F40040787D012DE9F84F05004FF06A
:1007A00000076ED02878DFF81C93A9F1040AC0076F
:1007B000AAF104044CD0D9F800104846C1F38101D5
:1007C000012908D00068C0F3810002280AD1DAF8B4
:1007D0000000400206D52068800339D568680028EB
:1007E000DFD035E06868B0F5803F0BD010B1B0F5D0
:1007F000A02F11D0206820F480302060206820F4E1
:10080000802002E0206840F480302060686890B169
:10081000FFF746FE06460AE0206840F4802020608C
:10082000F0E700BFFFF73CFE801B642872D8206809
:100830008003F7D50CE0FFF733FE064605E000BF66
:10084000FFF72EFE801B6428F0D820688003F7D4C1
:100850002878800742D5D9F80010484611F00C0FCF
:1008600008D00068C0F3810002280BD1DAF800003C
:10087000400207D42068800718D5E868012800D115
:1008800014E01CE1E8680028206817D040F001005F
:100890002060FFF705FE064605E000BFFFF700FEFB
:1008A000801B0228C2D820688007F7D528692168F4
:1008B00021F0F80141EAC00020600FE020F00100C3
:1008C0002060FFF7EDFD064605E000BFFFF7E8FDFD
:1008D000801B02281ED820688007F7D428780007DC
:1008E00029D5784869696C3000298046016812D0A2
:1008F00041F001010160FFF7D3FD064605E000BFAE
:10090000FFF7CEFD801B022804D8D8F8000080072E
:10091000F6D510E089E021F001010160FFF7C0FD8C
:10092000064604E0FFF7BCFD801B02287DD8D8F8FE
:1009300000008007F6D4287840076BD5DFF8848163
:1009400008F13808D8F80000C0000BD4D8F800101F
:1009500041F08051C8F80010D8F80000012700F0DD
:100960008050009058480168C90512D40168834638
:1009700041F480710160FFF793FD064605E000BF7A
:10098000FFF78EFD801B64284FD8DBF80000C00500
:10099000F6D54C4EA868683601280AD008B105285B
:1009A00011D0306820F001003060306820F0040081
:1009B00002E0306840F001003060A868A0B1FFF7A5
:1009C0006FFD83460CE0306840F004003060F0E7D3
:1009D000FFF766FDA0EB0B0141F28830814266D83B
:1009E00030688007F4D50EE0FFF75AFD834607E034
:1009F000FFF756FDA0EB0B0141F28830814256D83B
:100A000030688007F4D42FB1D8F8001021F080515D
:100A1000C8F80010A869C8B3D9F80010C1F3810163
:100A200002294CD00228206800E040E020F08070CD
:100A3000206003D0FFF734FD05463BE0FFF730FDB3
:100A4000064604E0FFF72CFD801B02282FD8206803
:100A50008001F7D4D5E90962D5E907011B4B570896
:100A600095F82C20084303EB074343EA861108431B
:100A700040EA026040F00050CAF80000206840F0F0
:100A800080702060FFF70CFD054606E015E000BF12
:100A9000FFF706FD401B022809D820688001F7D522
:100AA0000BE000BFFFF7FCFC401B022802D903202B
:100AB000BDE8F88F20688001F4D40020F8E7012019
:100AC000F6E7000008380240007000400000FFFF19
:100AD00004284FF0E020016903D021F004010161F6
:100AE000704741F00401FAE77047401EB0F1807F83
:100AF00010B501D3012010BD4FF0E02460610F213B
:100B0000601700F0ABF90020A0610721216110BD42
:100B100010B5FFF7E9FF10BD70B590F83C20012A31
:100B20001FD0012280F83C2002680F4C5368A2427B
:100B3000956802D00D4CA24203D14C6823F4700397
:100B400023430C688968002623F070031C4354601B
:100B500025F0800502682943916080F83C603046AA
:100B600070BD022070BD0000000001400004014083
:100B700010B5040003D094F83D0010B107E0012047
:100B800010BD002084F83C00204600F00DF8022043
:100B900084F83D002068211D00F0ECF9012084F864
:100BA0003D00002010BD000008B50068B0F1804F86
:100BB00008D10548016841F001010160006800F0BA
:100BC0000100009008BD00004038024070B50446A6
:100BD00090F83C00012817D03A4E012584F83C508B
:100BE000022084F83D0022689068304020F47F4065
:100BF00090600868502839D00DDC20285BD005DCD7
:100C000098B3102843D153E0022070BD302855D04E
:100C100040283CD141E0602830D070280CD0B0F59D
:100C2000805F03D0B0F5005F31D112E02068254A23
:100C300070328168114016E04A682068D1E90213D9
:100C400000F009FA21688868304040F07700886039
:100C50001DE04A682068D1E9021300F0FCF9206821
:100C6000816841F48041816011E01EE0CA684968F2
:100C7000206800F025FB2068502106E0CA6849681A
:100C8000206800F02EFB2068602100F0EDF90020C4
:100C900084F83D5084F83C0070BDCA6849682068FB
:100CA00000F00EFB20684021EFE720680021ECE710
:100CB00020681021E9E720682021E6E7206830213C
:100CC000E3E7000088FFFEFF00B5006885B0B0F1E3
:100CD000804F0BD10020012100910222CDE901209B
:100CE000CDE9030102486946FFF7EEFA05B000BD01
:100CF0000000024070B5044690F83C0001280ED078
:100D0000012584F83C50022084F83D000C2A19D0BB
:100D100007DC5AB1042A0DD0082A1ED10EE00220A9
:100D200070BD102A12D0142A17D113E0206800F0E9
:100D3000A3F912E0206800F0D3F90EE0206800F07B
:100D400005FA0AE0206800F037FA06E0206800F0B3
:100D50005FFA02E0206800F087FA002084F83D5036
:100D600084F83C0070BD10B5040003D094F83D0039
:100D700010B107E0012010BD002084F83C0020469F
:100D800000F00CF8022084F83D002068211D00F0DE
:100D9000F1F8012084F83D00002010BD70470000EC
:100DA00010B501220446006800F04AF9084920689D
:100DB000884202D00749884203D1416C41F4004186
:100DC00041642068016841F001010160002010BD0C
:100DD0000000014000040140FEE700004FF47A5299
:100DE0001C4810B5111100248EB0C0E90241046105
:100DF0004FF080438461C0E90032FFF7B9FE00B1D3
:100E0000FEE74FF480500A9012480AA9FFF7DEFE71
:100E100000B1FEE70F48FFF7A6FF00B1FEE70D485F
:100E200007A907940994FFF777FE00B1FEE7302089
:100E30004FF4FA718DE813000648002269460494C5
:100E4000FFF758FF00B1FEE70248FFF73DFF0EB085
:100E500010BD000010000020FEE7704709070028C1
:100E60004FEA116106DA00F00F0000F1E02080F88F
:100E7000141D704700F1E02080F80014704770479F
:100E8000704710B5FFF712FBBDE81040FFF740BEFA
:100E9000214810B592B0016841F0805101600068AE
:100EA00000F0805011901D48016821F4404141F448
:100EB00080410160006810220024069400F4404044
:100EC00011900220009001216846CDE90312FFF73E
:100ED00063FC00B1FEE74FF4805010900F21CDE984
:100EE0000C14CDE90E4000210CA8FFF787FB00B1E0
:100EF000FEE7FFF719FC4FF47A71B0FBF1F0FFF752
:100F0000F4FD0420FFF7E4FD0022501E1146FFF718
:100F100043FB12B010BD000040380240007000409A
:100F2000104A30B51048146800210F4B44F4700487
:100F30001460083305680D4A0D4C45F00105056045
:100F400019600368051D1340074A03600C322C60CA
:100F50000568E305034C25F480250560803C11609D
:100F6000236030BD88ED00E000380240FFFFF6FE50
:100F700010300024F0B5274B4FF0804E264D02680C
:100F80009842264E264F274C09D0704507D0A842DC
:100F900005D0B04203D0B84201D0A04205D1D1F86B
:100FA00004C022F070024CEA020298421BD0704545
:100FB00019D0A84217D0B04215D0B84213D0A042E1
:100FC00011D0194DA8420ED0184DA8420BD0184D83
:100FD000A84208D0174DA84205D0174DA84202D00C
:100FE000164DA84203D1CD6822F440722A434D69C0
:100FF00022F080022A43026098428A68C2620A682C
:10100000826201D0A04201D10969016301214161DD
:10101000F0BD000000000140000400400008004056
:10102000000C004000040140004001400044014029
:101030000048014000180040001C00400020004013
:1010400010B5046A01238A408B409C430462016A04
:101050001143016210BD42EA032283680A4323F46C
:101060007F410A4382607047826822F070020A431F
:1010700042F0070181607047F0B5026A164B154FC8
:1010800022F0010298420262066A4268846926F0F0
:1010900002068B680D6804EA070424F0030443EA9F
:1010A000060345EA040502D00C4CA0420BD1CC68E3
:1010B00022F44077D1E9056223F008031C433E4344
:1010C000324324F00403426085614968416303624E
:1010D000F0BD00008FFFFEFF000001400004014052
:1010E000F0B5026A174B164D22F0100298420262C8
:1010F000046A4268836924F020048F680E6803EA5A
:10110000050323F4407544EA071345EA062402D098
:101110000D4DA8420ED1CD6823F08003D1E90567BB
:1011200022F4406243EA051342EA860223F04003B8
:1011300042EA870242608461496881630362F0BDCC
:10114000FF8FFFFE0000014000040140F0B5026A7D
:10115000174B164F22F4807298420262056A436868
:10116000C26925F400758E6802EA07020C6822F055
:10117000030745EA062244EA070402D00D4DA842BF
:101180000ED1CD6822F40062D1E9056723F4405303
:1011900042EA052243EA061322F4806243EA071377
:1011A0004360C4614968C1630262F0BD8FFFFEFF06
:1011B0000000014000040140F0B5026A124B114FDB
:1011C00022F4805298420262046A4268C36924F49D
:1011D00000548E680D6803EA070323F4407344EA61
:1011E000063443EA052302D0084DA84204D14D69D4
:1011F00022F4804242EA85124260C3614968016478
:101200000462F0BDFF8FFFFE0000014000040140BA
:10121000F0B5026ADFF844C022F480320262056A47
:101220004268446D25F400350E8960450C4F0B680B
:1012300004EA070445EA064543EA040302D0094CE0
:10124000A04204D14C6922F4803242EA0422426076
:101250004365496881650562F0BD000000000140FA
:101260008FFFFEFF00040140F0B5026ADFF844C0C2
:1012700022F480120262046A4268436D24F400146E
:101280000E8960450C4F0D6803EA070344EA0654D3
:1012900043EA052302D0094DA84204D14D6922F446
:1012A000802242EA8522426043654968C165046242
:1012B000F0BD000000000140FF8FFFFE0004014070
:1012C00010B5036A046A23F00A0324F001040462DF
:1012D00084690B4324F0F00141EA02118161036249
:1012E00010BD10B5036A23F0100303628369046A1A
:1012F00023F4704324F0A00443EA0232826144EAFA
:101300000111016210BDFEE702E008C8121F08C10A
:10131000002AFAD170477047002001E001C1121F76
:10132000002AFBD17047000008B5FFF7C7F8FFF7A8
:10133000AFFD0848016841F001010160006800F05C
:1013400001000090FFF74AFD03480021FFF728FD48
:10135000FEE70000303802401000002000000000CE
:101360000000000001020304060708098C130008AE
:101370000000002010000000081300089C13000863
:1013800010000020400400001813000801000000B5
:0C13900010000000000000000024F40029
:04000005080001C925
:00000001FF
