:020000040800F2
:10000000207A0020DD010008AB1C00086D1C0008F0
:10001000A91C00083F0300089734000800000000F6
:10002000000000000000000000000000691D000842
:10003000C503000800000000671D00086B1D0008D4
:10004000F7010008F7010008F7010008F7010008B0
:10005000F7010008F7010008F7010008F7010008A0
:10006000F7010008F7010008F7010008F701000890
:10007000F7010008F7010008F7010008F701000880
:10008000F7010008F7010008F7010008F701000870
:10009000F7010008F7010008F7010008F701000860
:1000A000F7010008F7010008F7010008F701000850
:1000B000F7010008F7010008F7010008F701000840
:1000C000F7010008F7010008F7010008F701000830
:1000D000F7010008F7010008F7010008F701000820
:1000E000F7010008F7010008F7010008F701000810
:1000F000F7010008F7010008F7010008F701000800
:10010000F7010008F7010008F7010008F7010008EF
:10011000F7010008F7010008F7010008F7010008DF
:10012000F7010008F7010008F7010008F7010008CF
:10013000F7010008F7010008F7010008F7010008BF
:10014000F7010008F7010008F7010008D11C0008BA
:10015000F7010008F7010008F7010008F70100089F
:10016000F7010008F7010008F7010008F70100088F
:10017000F7010008F7010008F7010008000000007F
:10018000F7010008F7010008F7010008F70100086F
:10019000F7010008F7010008F7010008F70100085F
:1001A000F7010008F7010008F7010008F70100084F
:1001B000F7010008F7010008F7010008F70100083F
:1001C000F7010008F7010008DFF80CD000F07AF81A
:1001D0000048004709350008207A0020064880477B
:1001E00006480047FEE7FEE7FEE7FEE7FEE7FEE71C
:1001F000FEE7FEE7FEE7FEE72D1E0008C901000846
:100200002DE9F05F0546002092469B46884606464B
:10021000814640241BE0284641464746224600F0DE
:1002200041F853465A46C01A914110D31146184618
:10023000224600F028F82D1A67EB01084F462246A7
:100240000120002100F01FF817EB00094E41201E8D
:10025000A4F10104DFDC484631462A464346BDE8A6
:10026000F09F40EA01039B0703D009E008C9121F71
:1002700008C0042AFAD203E011F8013B00F8013B60
:10028000521EF9D27047202A04DB203A00FA02F10C
:10029000002070479140C2F1200320FA03F3194374
:1002A00090407047202A04DB203A21FA02F0002116
:1002B000704721FA02F3D040C2F120029140084376
:1002C00019467047064C074D06E0E06840F0010310
:1002D00094E8070098471034AC42F6D3FFF778FF54
:1002E000C4350008E435000870B58C1810F8015BBF
:1002F00015F0070301D110F8013B2A1106D110F8BF
:10030000012B03E010F8016B01F8016B5B1EF9D1C2
:100310002B0705D40023521E0DD401F8013BFAE748
:1003200010F8013BCB1A921C03E013F8015B01F8B3
:10033000015B521EF9D5A142D8D3002070BDFEE763
:10034000002070470020704705490022054810B57D
:1003500001F08CFE0449034801F082FE002010BD2C
:100360001C120020800100201C0A002089B200F02D
:1003700013B8000070B50D4604460146054801F06B
:100380006FFE044801F04EFE29682046FFF7EEFF9D
:10039000002070BD80010020094A10B5D2F89022DB
:1003A000D2F814220AB1012010BD0A4601460448C1
:1003B00001F05CFEBDE81040014801F0B6BE00004F
:1003C000800100207047000070B5044600F0FAF884
:1003D0000546601C02D004480078044400F0F2F89E
:1003E000401BA042FAD370BD540000202DE9F84F05
:1003F000DFF89CE100224FF001084FF0030B4FF0B3
:100400000F0A00BF0B6808FA02F42340A34271D11F
:100410004D68022D01D0122D0FD1D5080E69570756
:1004200000EB8505A9462D6AFF0E0AFA07FCBE40BF
:1004300025EA0C052E43C9F820600F79550006689F
:100440000BFA05FC07F0030726EA0C06AF4037431A
:1004500007604E68012E05D0022E03D0112E01D068
:10046000122E0ED18668CF6826EA0C06AF403743BD
:10047000876046680F79A643C7F300179740374354
:100480004760C4688E6824EA0C04AE402643C66008
:100490004C68E40075D53F4C256845F480452560DF
:1004A000246822F00306950704F4804400943A4C33
:1004B0002D0F2644D6F80848DFF8E0C00AFA05F701
:1004C000604524EA070401D100272EE0344FB842EA
:1004D00001D1012729E0334FB84201D1022724E09E
:1004E000314FB84201D103271FE0304FB84202D14B
:1004F00004271AE045E02E4FB84201D1052714E049
:100500002C4FB84201D106270FE02B4FB84201D142
:1005100007270AE0294FB84201D1082705E0284FF4
:10052000B84201D1092700E00A27AF4027437546AA
:10053000C6F808784E68DEF80040F60324EA0304A3
:1005400000D51C43124E2C60361D4D683468AD0337
:1005500024EA030400D51C430D4F346008374D686E
:100560003C68ED0224EA030400D51C43084D3C60BE
:100570000C354E682C68B60224EA030400D51C43EF
:100580002C60521C102AFFF43DAFBDE8F88F00002C
:10059000003C01404438024000300140000002406D
:1005A0000004024000080240000C0240001002401B
:1005B0000014024000180240001C024000200240CB
:1005C0000024024001488068704700005400002069
:1005D000024881680278114481607047540000200D
:1005E000032010B500F096F8002000F005F800F0A8
:1005F00023F8002010BD000070B50D4D04464FF4E7
:100600007A700C4A29781268B0FBF1F0B2FBF0F076
:1006100001F015FB48B9102C07D200222146501ECC
:1006200000F058F800206C6070BD012070BD000023
:1006300054000020600000201F4808B5016841F008
:1006400080510160006800F0805000901A48001D41
:10065000016841F480410160006800F4804000902E
:10066000032000F057F800226FF00B00114600F055
:1006700031F800226FF00A00114600F02BF800223A
:100680006FF00900114600F025F80022501F1146B6
:1006900000F020F80022101F114600F01BF8002285
:1006A000901E114600F016F80022BDE80840501ECA
:1006B000114600F00FB8000040380240410900F038
:1006C0001F028900012001F1E0219040C1F80001E2
:1006D000704700000E4BF0B41B680D46C3F30223B5
:1006E000C3F10706042E00D90426191D072901D2DB
:1006F000002300E0DB1E012404FA06F19C40491EA1
:100700002940641E994014402143F0BC01F0CEBA48
:100710000CED00E0064900F0070210B54FF6FF04AB
:100720000868044B204040EA02201843086010BDCE
:100730000CED00E00000FA0501680123C0F8F83371
:10074000002280F8F0238869044A40F00060886144
:10075000486D1043486500207047000003000010FA
:1007600070B5164D0446A1B1012911D12068D0F809
:10077000001E41F00101C0F8001ED4F8FC0302F095
:100780004AF8206A002803D0286840F00600286054
:1007900070BD206A28B101F0EFFA286820F0060049
:1007A00028602068D0F8001E21F00101C0F8001E6A
:1007B000D4F8FC03BDE8704001F0BDBF10ED00E0CF
:1007C0000068416200207047F0B503685D6A39B186
:1007D0009F6A4C1E00204FF4827605EB17450BE014
:1007E00045EA0240986210E0471C06EB800053F88F
:1007F00000C0F8B205EB1C45A042F5D34FF4807061
:1008000000EB810045EA02421A500020F0BDD0F80A
:10081000FC0301F0E1BEC1EBC10200EB8202D0F8A3
:10082000FC03926C01F039BEC1EBC10200EB820205
:10083000D0F8FC03D2F8082201F090BED0F8FC03F7
:1008400001F0CCBE01F00F020B0670B5C2EBC20185
:1008500004464FF001004FF0000504EB810103D581
:1008600081F83D003C3103E081F8FD5101F5FE7156
:100870000A7094F8BC23012A08D084F8BC032068CD
:1008800002F05AFA002084F8BC5370BD022070BDFB
:1008900070B54268044601F00F00904201D9012072
:1008A00070BD01F00F024FF000050B06C2EBC20154
:1008B0004FF0010204EB810103D581F83D203C316A
:1008C00003E081F8FD5101F5FE718D70087094F818
:1008D000BC03012808D084F8BC23206802F0EFFB99
:1008E000002084F8BC5370BD022070BD01F00F01E0
:1008F000C1EBC10100EB8100B0F8140280B2704777
:100900002DE9F04101F00F0604460D064FF00100FD
:10091000C6EBC6014FF0000504EB810103D581F859
:100920003D003C3103E081F8FD5101F5FE714F7847
:100930008A60CB700E7007B1CE80022B00D10D7192
:1009400094F8BC23012A09D084F8BC03206802F083
:1009500045F9284684F8BC53BDE8F0810220FBE746
:1009600070B501F00F050C460026C5EBC50100EB84
:100970008101C1F80822C1E9843681F8FD6181F85E
:10098000FC5101F5FE710369012B00D10A612207B8
:10099000027C006803D002F0EBFB002070BD02F087
:1009A000EBFAFAE770B50D464168044605F00F0012
:1009B000884201D9012070BD29064FF000064FF092
:1009C000010207D5C0EBC00104EB810181F83D2095
:1009D0003C3107E0C5EBC50104EB810181F8FD6105
:1009E00001F5FE718A70087094F8BC03012807D0E5
:1009F00084F8BC23206802F08EFB280702D007E0B1
:100A0000022070BD217C04F57072206802F038FB72
:100A1000002084F8BC6370BD2DE9F04101F00F05A2
:100A20000C460026C5EBC501012700EB81018A6455
:100A3000C1E9143681F83D7001F83C5F0369012B70
:100A400000D10A612207027C006804D002F090FB0A
:100A50000020BDE8F08102F08FFAF9E72DE9F84FA8
:100A600004460068002681460546D0F840A002F002
:100A70009AFC00287AD1206802F0C1FC002875D0C9
:100A8000206802F0BCFC800704D52068416901F0B1
:100A900002014161206802F0B2FC01034FF0000B3B
:100AA00004F5707000907DD5206802F087FC074641
:100AB0008AE0F80777D02068F1B202F098FC80460F
:100AC000C00742D005EB4610F5490122C0F8082BBB
:100AD0008A4509D9216901291BD1D5F8081B0904C8
:100AE00005D5D103C0F8081B2169012911D1D0F81F
:100AF000103BC6EBC60104EB8101C3F31203D1F82E
:100B00000422D31AC1F81432D1F808321A44C1F8B9
:100B10000822E44A924508D1D5F8081B090404D5F7
:100B20004FF40041C0F8081B03E02046F1B2FFF784
:100B30007BFE2069012808D13EB9D4F8100220B903
:100B400020680121009A02F09BFA5FEA087026D51E
:100B5000D4498A450BD1D5F8080B00040AD505EB1A
:100B600046114FF40040C1F8080B03E05FE2CC49A6
:100B70008A450CD92069012809D1D5F8080B000451
:100B800005D505EB46114FF40040C1F8080B20468F
:100B900000F02CFB05EB46110820C1F8080B5FEABA
:100BA000C86001E013E00DE004D505EB461110200C
:100BB000C1F8080B5FEA886004D505EB46112020D8
:100BC000C1F8080B7F08761C002F7FF472AF2068F5
:100BD00002F015FC40034FF0400A60D5206802F097
:100BE000E6FB0026074658E0F80754D02068F1B22B
:100BF00002F0EBFB8046C00727D0D5F8342801214E
:100C000006F00F0305EB461C01FA03F08243C5F81A
:100C10003428CCF808192069012807D1C6EBC60092
:100C200004EB8000D0E91121114481642046F1B227
:100C3000FFF7F1FD2069012807D136B9206D20B9F1
:100C400020680121009A02F01BFA5FEA087004D5BF
:100C500005EB46110820C1F808095FEAC86004D511
:100C600005EB46111020C1F808095FEA486003D57A
:100C700005EB4611C1F808A95FEA887004D505EBB9
:100C800046110220C1F808095FEA086003D5314621
:100C9000204601F023F87F08761C002FA4D120689D
:100CA00002F0ADFB002811DAD5F8040820F00100AD
:100CB000C5F8040894F8F00301283BD0204600F062
:100CC00079FA2068416901F000414161206802F031
:100CD00096FB00050BD5D5F80808C00702D02046C2
:100CE00000F0A0FA2068416901F4006141612068C8
:100CF00002F085FB00010AD52068416901F000611E
:100D0000416194F8F003E0B1204600F08BFA2068CE
:100D100002F075FBC0046AD5D5F8040820F0010084
:100D2000C5F804082068102102F01AFB00214FF6D4
:100D30007F3228E00021204684F8F0B3FFF710FD51
:100D4000BFE7012084F8F0032068406D0121C0F363
:100D50008300C4F8F4032046FFF702FDD7E700BF85
:100D600005EB4110C0F80829D0F8003923F400132E
:100D7000C0F80039C0F8082BD0F8003B23F400136A
:100D8000C0F8003B491C60688842E9D8D5F81C08C7
:100D900040F00110C5F81C08206B60B1D5F884083C
:100DA00040F00B00C5F88408D5F8440840F00B006B
:100DB000C5F844080BE0D5F8140840F02B00C5F83E
:100DC0001408D5F8100840F00B00C5F81008D5F845
:100DD000000820F4FE60C5F80008217C2068009A15
:100DE00002F04EF92068416901F4805141612068A8
:100DF00002F005FB80046FD5206801F02FFF20680A
:100E0000C16821F47051C160206802F0BBFA78B16A
:100E1000C4F814A00321E16000F030FD224A234908
:100E200002448A420AD22068C16841F4705174E0D9
:100E3000C4F80CB04FF40070606153E01C4A1D49C7
:100E400002448A4204D22068C16841F4605164E0DF
:100E5000194A1A4902448A4204D22068C16841F4FE
:100E600050515AE01649174A0144914204D2206871
:100E7000C16841F4405150E01349144A0144914281
:100E800004D22068C16841F4305146E0104A11494B
:100E900002448A4221D22068C16841F420513CE0DA
:100EA0000A30544F0A31544F405327FF00350C008D
:100EB000401E1BFF40420F0000DC0BFF804F120062
:100EC000808CF9FE20D6130060B6E5FE60E31600C4
:100ED00000D3CEFE40771B0028E0564A5649024414
:100EE0008A4204D22068C16841F4105115E0534988
:100EF000534A0144914204D22068C16841F4005130
:100F00000BE0504A5049104488422068C16802D220
:100F100041F4E05101E041F4C051C160204600F0CD
:100F200039F92068416901F400514161206802F0FB
:100F300066FAC00635D52068816921F0100181610B
:100F4000D9F8207007F00F01C7F34340C1EBC1018E
:100F5000022804EB810505F5FE7502D0062811D0A4
:100F60001AE047F6F070074216D0C7F30A12E96894
:100F70001746484602F047FAE968A8693944E9602B
:100F8000384408E000990822484602F03CFAA86973
:100F9000C7F30A110844A8612068816941F0100173
:100FA0008161206802F02BFA000707D5204600F087
:100FB00005F92068416901F008014161206802F0EB
:100FC0001EFAC00208D52046F1B200F03FF82068B2
:100FD000416901F480114161206802F010FA800239
:100FE00008D52046F1B200F035F82068416901F4D7
:100FF00000114161206802F002FA400007D5204646
:10100000FFF705FC2068416901F0804141612068DB
:1010100002F0F5F940070AD520684568680702D54F
:101020002046FFF70BFC2068416829434160BDE87A
:10103000F88F0000C05BB3FEC091210000CA91FE92
:1010400020753800E05459FEE09C4100D0F8FC03C4
:1010500001F022BBD0F8FC0301F020BBF0B5040086
:101060008BB004D094F8BD03002518B107E001202F
:101070000BB0F0BD204684F8BC5300F057F80320B5
:1010800084F8BD03206801F071FF04F11001684687
:1010900028220F46FFF7E5F894E80F0001F0F8FD6D
:1010A0002068002102F0BDF900200126C0EBC0013C
:1010B000421C04EB810181F83C00A1F84200D0B24F
:1010C00081F83D600F2881F83F504D648D640D65B7
:1010D000ECD30020421CC0EBC00104EB810181F87D
:1010E000FC01D0B281F8FD510F2881F8FF51C1F801
:1010F0000452C1F80852C1F81052EBD328223946E5
:101100006846FFF7AEF894E80F0001F06DFE606AE4
:1011100084F8385084F8BD63012802D12046FFF7D7
:101120000BFB206801F054FE0020A1E710B5006819
:1011300086B0B0F1A04F26D10221002203230A2459
:101140004FF4C0508DE81F0010486946FFF74EF974
:101150000F48016841F080010160006800F08000E4
:1011600005900B481030016841F48041016000682F
:101170000022114600F4804005904320FFF7AAFAB0
:101180004320FFF79BFA06B010BD000000000240AC
:101190003438024010B50446C068012100B900216E
:1011A000D4F8FC0301F0D9FAD4F8FC03BDE81040F0
:1011B00001F099BAD0F8FC0301F0BDBAD0F8FC03F5
:1011C00001F0BFBA10B5044690F8BC0301280BD05B
:1011D000012084F8381084F8BC03206802F038F944
:1011E000002084F8BC0310BD022010BDD0F8FC2301
:1011F00000F57071104601F0C3BA10B5044690F8BE
:10120000BC0301280CD0012084F8BC03206801F045
:10121000D3FD206802F08EF8002084F8BC0310BDD6
:10122000022010BD10B50446D0F8FC0301F0F3FA1B
:101230002068D0F8001E41F00101C0F8001E206AAD
:10124000002804D00248016841F00601016010BD89
:1012500010ED00E02DE9F84F04460078DFF8249403
:101260004FF000063746C0070ED0D9F8001021F421
:101270000001C9F80010D9F80010626B1143C9F8D9
:101280000010606B00B90126FE4D20688435000314
:101290000ED5E16B286820F4401008432860E06B0D
:1012A000B0F5801F01D010B102E0012600E0012757
:1012B00020684FF4800BC0020CD5216C286820F404
:1012C000400008432860206C584501D1012601E008
:1012D00000B901272068C10100D50126800666D526
:1012E000E8483830016841F0805101600068DFF85B
:1012F00098A300F080500090DAF8001041F480715B
:10130000CAF80010FFF75EF9804605E0FFF75AF9CA
:10131000A0EB080064287DD8DAF80000C005F5D5F8
:10132000DFF8608308F16808D8F8000010F4407016
:101330002AD0218E01F44071814225D0D8F80010C6
:10134000D8F8002021F4407142F48032C8F800201F
:10135000D8F8002022F48032C8F80020C8F8001025
:10136000D8F80000C0070FD0FFF72CF9824607E03D
:10137000FFF728F9A0EB0A0141F288308142CAD870
:10138000D8F800008007F3D5206BC0F301210329B2
:101390007ED0D9F8001021F4F811C9F80010228E7F
:1013A000D8F80010C2F30B021143C8F800102078DF
:1013B000C00607D5286820F0807028602868A16BD7
:1013C000084328602188AF488830490405D5626EFB
:1013D000016821F44031114301602188090405D5D9
:1013E000A26E016821F44021114301602168C90304
:1013F00005D5E26E016821F44011114301602168B6
:10140000890305D5226F016821F440011143016071
:10141000217800E018E1490605D5626C016821F0E9
:101420000301114301602178090605D5A26C01680A
:1014300021F00C01114301602188C90505D5E26C3A
:10144000016821F03001114301602188890505D52B
:10145000226D016821F0C001114301602188490516
:1014600005D5626D016821F4407111430160218846
:10147000090505D5A26D016821F4406111430160A1
:101480002188C90407D5E26D016821F4405100E0CC
:1014900041E0114301602188890405D5226E01686D
:1014A00021F44041114301602168490205D5A26F32
:1014B000016821F080611143016021684FF0006AEA
:1014C000890209D5E26F016821F0006111430160D2
:1014D000E16F514500D1012721680A0700D5012796
:1014E000490305D5626F016821F040711143016025
:1014F0002168090206D5D4F88020016821F08051C6
:1015000011430160DFF88491012E0ED02068B0F104
:10151000007F0AD08FE05E4AD9F80030104023F4F3
:10152000F8120243C9F8002039E7D9F800004E4606
:1015300020F08060C9F80000FFF744F8804605E01D
:10154000FFF740F8A0EB080064287DD83068000160
:10155000F6D421784B487C30C90712D0616B81B931
:10156000237A62680168D0F800C09201C1F301419A
:1015700042EA0142CCF3036142EA016141EA0371AC
:10158000016021680A0303D5E26BB2F5801F04D025
:10159000C9021AD5216C594517D16368016894F8BE
:1015A0000CC002689B01C1F3014143EA0141C2F34F
:1015B000027241EA0C6141EA027101602968626AC3
:1015C00021F01F01521E114329602168C90110D565
:1015D000238A62680168D0F800C09201C1F30361F8
:1015E00042EA034242EA0162CCF3027142EA01712B
:1015F0000160216889010CD56168228A237B94F8F7
:1016000008C0890141EA024141EA036141EA0C71E3
:1016100001603168B04641F080613160FEF7D2FF71
:10162000064604E0FEF7CEFF801B64280CD8D8F8ED
:1016300000000001F6D56FB3D9F800004E4620F047
:101640008050C9F8000000E079E0FEF7BBFF0746D4
:1016500005E000BFFEF7B6FFC01B64286FD83068F6
:10166000C0438000F6D50748216880300A0301D5C1
:10167000E26B1AB1C90225D5216C19BB63690168F7
:10168000277E08E008380240007000400038024021
:10169000FFFCFF0F5AE00268C1F301419B0143EADE
:1016A0000143C2F3027143EA076242EA0171016039
:1016B00029686FF0FF03A26A21F4F85103EB0222BC
:1016C000114329602168890212D5E16F51450FD17C
:1016D000238C6269016807689201C1F3036142EAE1
:1016E000034242EA0162C7F3027142EA01710160FA
:1016F0002178090716D561690268D0F800C08B010E
:10170000277FC2F30362CCF3014143EA014141EA7E
:10171000026141EA077101602868E16A20F4403003
:1017200008432860306840F080503060FEF74AFF80
:10173000044607E0FEF746FF001B642802D9032099
:10174000BDE8F88F3068C0438000F3D40020F7E78D
:101750002DE9F04705000F4663D0444E306800F095
:101760000F00B84209D2306820F00F0038433060D3
:10177000306800F00F00B84253D128683C4C810714
:1017800012D5400703D5206840F4E0502060287847
:10179000000703D5206840F460402060A9682068F5
:1017A00020F0F000084320602878C0072AD0304994
:1017B00068680839012810D00968022810D0890704
:1017C00000292EDA216821F0030101432160FEF790
:1017D000F9FE804641F288390DE009688903EFE798
:1017E0008901EDE7FEF7EEFEA0EB0801494502D9BD
:1017F0000320BDE8F0876868216801F00C01B1EBB7
:10180000800FEFD1306800F00F00B8420BD930687C
:1018100020F00F0038433060306800F00F00B8420D
:1018200001D00120E5E72878400705D5E968206860
:1018300020F4E050084320602878000706D5286986
:10184000216821F4604141EAC000206000F01CF8EA
:101850002168084AC1F30311515CC8400649086079
:101860000020FEF7C9FE0020C3E70000003C024054
:1018700008380240B43500086000002001480068C4
:101880007047000060000020154910B51548096830
:1018900011F00C0213D01449042A0FD0082A0ED1DB
:1018A0000F4C241F2268236802F03F025B0207D519
:1018B0002068C0F38810A0FB010106E0084610BDB7
:1018C0002168C1F38811A1FB00010023FEF798FCF9
:1018D0002168C1F30141491C4900B0FBF1F010BD82
:1018E000083802400024F40040787D012DE9F84FCB
:1018F00005004FF000076ED02878DFF81C93A9F19F
:10190000040AC007AAF104044CD0D9F800104846D4
:10191000C1F38101012908D00068C0F381000228C9
:101920000AD1DAF80000400206D52068800339D5D4
:1019300068680028DFD035E06868B0F5803F0BD0DC
:1019400010B1B0F5A02F11D0206820F480302060B5
:10195000206820F4802002E0206840F4803020607D
:10196000686890B1FEF72EFE06460AE0206840F453
:1019700080202060F0E700BFFEF724FE801B642873
:1019800072D820688003F7D50CE0FEF71BFE0646F0
:1019900005E000BFFEF716FE801B6428F0D8206823
:1019A0008003F7D42878800742D5D9F8001048463C
:1019B00011F00C0F08D00068C0F3810002280BD191
:1019C000DAF80000400207D42068800718D5E868DC
:1019D000012800D114E01CE1E8680028206817D035
:1019E00040F001002060FEF7EDFD064605E000BF77
:1019F000FEF7E8FD801B0228C2D820688007F7D5D3
:101A00002869216821F0F80141EAC00020600FE058
:101A100020F001002060FEF7D5FD064605E000BF7E
:101A2000FEF7D0FD801B02281ED820688007F7D45F
:101A30002878000729D5784869696C3000298046E4
:101A4000016812D041F001010160FEF7BBFD0646BE
:101A500005E000BFFEF7B6FD801B022804D8D8F8C9
:101A600000008007F6D510E089E021F00101016057
:101A7000FEF7A8FD064604E0FEF7A4FD801B022841
:101A80007DD8D8F800008007F6D4287840076BD5B9
:101A9000DFF8848108F13808D8F80000C0000BD4C2
:101AA000D8F8001041F08051C8F80010D8F80000B4
:101AB000012700F08050009058480168C90512D4F1
:101AC0000168834641F480710160FEF77BFD0646A4
:101AD00005E000BFFEF776FD801B64284FD8DBF8D9
:101AE0000000C005F6D54C4EA868683601280AD01B
:101AF00008B1052811D0306820F00100306030684E
:101B000020F0040002E0306840F001003060A86876
:101B1000A0B1FEF757FD83460CE0306840F00400AA
:101B20003060F0E7FEF74EFDA0EB0B0141F288308C
:101B3000814266D830688007F4D50EE0FEF742FD9A
:101B4000834607E0FEF73EFDA0EB0B0141F2883033
:101B5000814256D830688007F4D42FB1D8F80010ED
:101B600021F08051C8F80010A869C8B3D9F8001056
:101B7000C1F3810102294CD00228206800E040E036
:101B800020F08070206003D0FEF71CFD05463BE08E
:101B9000FEF718FD064604E0FEF714FD801B022840
:101BA0002FD820688001F7D4D5E90962D5E907016B
:101BB0001B4B570895F82C20084303EB074343EAD7
:101BC0008611084340EA026040F00050CAF8000065
:101BD000206840F080702060FEF7F4FC054606E0C7
:101BE00015E000BFFEF7EEFC401B022809D8206874
:101BF0008001F7D50BE000BFFEF7E4FC401B022894
:101C000002D90320BDE8F88F20688001F4D40020B9
:101C1000F8E70120F6E700000838024000700040B5
:101C20000000FFFF04284FF0E020016903D021F0FD
:101C300004010161704741F00401FAE77047401E5A
:101C4000B0F1807F10B501D3012010BD4FF0E0242A
:101C500060610F21601700F029F80020A0610721C2
:101C6000216110BD10B5FFF7E9FF10BDFEE70000D0
:101C700009490022094810B500F0DAFB0849074875
:101C800000F0F6FD0749054800F0E0F9BDE8104016
:101C9000024800F045BE0000000000208001002046
:101CA0004001002044000020FEE77047090700289B
:101CB0004FEA116106DA00F00F0000F1E02080F831
:101CC000141D704700F1E02080F8001470470000F8
:101CD0000148FEF7C3BE00001C0400202DE9F84FA8
:101CE0000F468246C1EBC700DAF800600AEB8005B8
:101CF000D5E91412686C3C358C1AA04200D2044617
:101D0000E01C06EB47194FEA900816E0A8688C1A09
:101D1000A04200D204469AF81000E11C0090A3B241
:101D200030464FEA9108E968FAB201F0A2FBE86890
:101D30002044E860A8692044A861D9F8180981B254
:101D4000414505D9D5E905128A4201D20029DDD1E4
:101D500034B9D6F834180120B8408143C6F8341895
:101D60000020BDE8F88F7047704710B5FEF730FCD3
:101D7000BDE81040FFF776BF2A4870B5B4B00168DF
:101D800041F080510160006800F080503290264898
:101D9000016821F4404141F480410160006802245F
:101DA0004FF4A87500F440403290012007268205C8
:101DB00001041923CDE92742CDE92101CDE92935D7
:101DC000CDE92B4621A8FFF791FD00B1FEE74FF4C6
:101DD000805080220F21CDE92F2031902DA8CDE910
:101DE0002D140221FFF7B4FC00B1FEE74FF4001000
:101DF0000090002168461F91FFF72CFA00B1FEE722
:101E0000FFF73CFD4FF47A71B0FBF1F0FFF717FFDD
:101E10000420FFF707FF0022501E1146FEF75AFC70
:101E200034B070BD4038024000700040104A30B5F8
:101E30001048146800210F4B44F4700414600833F8
:101E400005680D4A0D4C45F00105056019600368F1
:101E5000051D1340074A03600C322C600568E3053A
:101E6000034C25F480250560803C1160236030BD63
:101E700088ED00E000380240FFFFF6FE103000243D
:101E80002DE9F041D0F89832D0F89022DAB101EB88
:101E90008104002500EB8404E6694EB1C1EBC10763
:101EA00003EB87035B6CB6FBF3F703FB176323B10C
:101EB000C2F814520020BDE8F0810023E5611A4603
:101EC00000F0B2FCF6E70220F5E770B5D0F89042DA
:101ED000054600F08EFBC4F80C02D5F8900248B11C
:101EE000D5F8940204F50371C268D4F8040290474F
:101EF000002070BD022070BD70B50026044681210F
:101F000000F0BBFA002520460121E56200F0B5FA99
:101F100082212046C4F8585100F0AFFAD4F890025C
:101F2000256448B1D4F8940204F5247440688047CD
:101F3000206801F0C1FA2560304670BD10B5D0E9C7
:101F4000A44159B194F80002FF2807D08B682146BC
:101F500094F801229847FF2084F80002002010BD69
:101F60000A21018000487047680000204321018059
:101F700000487047B80000204321018000487047A6
:101F8000740000204321018000487047FC000020BD
:101F90002DE9F04101250446007C00264FF400772E
:101FA00090B3402320460222812100F079FB402398
:101FB000E56202222046012100F072FB0823204640
:101FC0000322C4F85851822100F06AFB4FF40770D5
:101FD000256401F0B9FAC4F89002F8B10546D4F8C6
:101FE0009402006880470020C5F81402C5F8180262
:101FF000207CD5F8042298B140232046012100F02E
:1020000062FB3046BDE8F081FFE702223B468121BA
:10201000204600F045FB3B46E562CAE70126F0E7B3
:102020003B46EAE710B5D0F8901269B1027C002A6D
:10203000D1F8042205D04023012100F044FB002008
:1020400010BD4FF40073F7E7022010BD00290246CF
:102050004FF0020003D04FF00000C2F89412704716
:10206000D0F89002C0F8041200207047D0F8900217
:10207000C0F81022C0F80812002070472DE9FC417A
:1020800005460C4600200646D5F890728DF80000F3
:10209000ADF80400087810F0600122D020293CD16E
:1020A000E288B2B1000608D5D5F8940239468368B3
:1020B00060789847E288394627E06078394687F8A3
:1020C0000002A07987F801022846E28800F06AF849
:1020D00028E0D5F89402002221468368607898476A
:1020E00020E0607820B10A2809D00B2815D110E033
:1020F00095F87402032810D1022201A905E095F891
:102100007402032809D101226946284600F064F8C8
:1021100008E095F87402032804D02146284600F010
:1021200036F802263046BDE8FC8110B5D0F8901292
:10213000A1B1D1F814220AB1012010BD0122C1F8C9
:102140001422D1F810220263B1F81032D1F808221B
:1021500081219BB200F068FB002010BD022010BD61
:1021600010B5D0F88C2252689047002010BD13465D
:102170000A46002110B500F0A6FA002010BD134653
:102180000A46002110B500F04FFB002010BD10B52D
:102190008021044600F01FFB2046BDE810400021CE
:1021A00000F019BB10B5C0F848210323C0F86C3209
:1021B0001346C0F84C210A46002100F084FA0020A2
:1021C00010BD0521002310B51A46C0F86C1219463F
:1021D00000F079FA002010BD10B5C2610223C0F8EA
:1021E0006C32134602620A46002100F01DFB0020FB
:1021F00010BD0421002310B51A46C0F86C12194610
:1022000000F012FB002010BD04A00A46024910B5E0
:1022100000F0E9F8004810BD1C08002043444320AA
:10222000436F6E666967000012200880004870479F
:102230002400002004A00A46024910B500F0D3F89B
:10224000004810BD1C08002043444320496E7465BB
:1022500072666163650000000420088000487047D2
:102260002000002004A00A46024910B500F0BBF887
:10227000004810BD1C08002053544D6963726F65FF
:102280006C656374726F6E696373000004A00A4624
:10229000024910B500F0A7F8004810BD1C08002046
:1022A00053544D3332205669727475616C20436FFC
:1022B0006D506F727400000004A00A46024910B508
:1022C00000F091F8004810BD1C080020303030307C
:1022D0003030303030303141000000000C200880B8
:1022E0000048704738000020F8B5044648880D467D
:1022F000010A06294CD006DC01290DD0022910D094
:1023000003294FD11BE007294AD00F294AD1D4F81D
:102310008812207CCA6937E0D4F88812207C0A68C9
:1023200032E0207C02260028D4F88C0205D0C16A55
:10233000684688470146467041E0816AF8E7C0B2C6
:1023400006282FD2DFE800F003080D12171CD4F87E
:102350008812207C4A6817E0D4F88812207C8A68AA
:1023600012E0D4F88812207CCA680DE0D4F88812F4
:10237000207C0A6908E0D4F88812207C4A6903E0CE
:10238000D4F88812207C8A6969469047014616E095
:10239000207C38B9D4F88C02416B68468847F5E751
:1023A000207C20B129462046FFF7F1FEF8BDD4F885
:1023B0008C02016B68468847014607204870BDF8CB
:1023C000000048B1EA8852B1824200D90246204654
:1023D000ADF80020FFF700FFE8880028E6D120468E
:1023E000FFF707FFF8BD70B500284FF000061ED0BC
:1023F0000546344602E0641C6D1CE4B22B78002BC9
:10240000F9D1022505EB440414801278731C0325CE
:102410008A550024B21CCD5406E0551C8B54EAB2F8
:10242000531C401C8C54DAB20378002BF5D170BDDC
:1024300010B580B1D0F88C3213B10023C0F88C32C3
:1024400009B1C0F888120121027080F8741200F0FE
:10245000D5F8002010BD022010BD10B5D0F89802AC
:102460000024FEF715FA30B1012801D0022801D06E
:10247000022400E00124204610BD10B5D0F89802D7
:102480000024FEF7DFF930B1012801D0022801D085
:10249000022400E00124204610BD70B51646044613
:1024A00049B1D4F88C0242691AB194F87402032835
:1024B00050D0022070BDD4F86C32002504F1140015
:1024C000022B03D0042B3AD0C3B33CE0D0E9031372
:1024D000994207D9C91AC1608AB231462046FFF72E
:1024E0004EFE12E08068B0FBF3F103FB110199B9D5
:1024F000984211D3D4F8701288420DD2002220469F
:102500001146FFF73CFEC4F8705200231A461946E4
:10251000204600F0D8F816E0D4F88C02C16829B142
:1025200094F87402032801D1204688478021204670
:1025300000F051F92046FFF744FE04E0FFE7802158
:10254000204600F048F994F87802012804D184F874
:10255000785201E020469047002070BD70B51546C6
:10256000044649B1D4F88C0282691AB194F8740215
:1025700003282DD0022070BDD4F86C1204F5A07091
:10258000032902D005291ED024E0D0E903218A4284
:102590000BD9531AC3600846834200D30346294629
:1025A0009AB22046FFF7E3FD14E0D4F88C020169EB
:1025B00029B194F87402032801D1204688472046A7
:1025C000FFF717FE06E00021204600F004F901E0C5
:1025D00020469047002070BD0020704710B50121B3
:1025E00080F87412D0F88C2201795268904700204C
:1025F00010BDD0F89802FEF779B9000070B50178E7
:1026000059BB17490022022306254FF0A044C1F808
:10261000FC03C0F898120846C1E90332C1E905235A
:10262000CA610A624A62CA620A63C1E90045FEF7EA
:1026300015FD20B10BA04FF4A57100F02DFF084847
:102640008021FEF7BDF8064840220021FEF7BCF8C5
:10265000034880220121FEF7B7F8002070BD00007A
:102660001C0400202E2E2F5372632F757362645F3B
:10267000636F6E662E630000D0F8982201F07F0031
:102680000B06C0EBC00002EB800002D590F83E00C4
:10269000704790F8FE017047002070470020704797
:1026A00070B51D46D0F89802002413462A46FEF75E
:1026B00027F930B1012801D0022801D0022400E01E
:1026C0000124204670BD10B5D0F898020024FEF712
:1026D00047F930B1012801D0022801D0022400E0DE
:1026E0000124204610BD70B5002204464023114647
:1026F000FFF7D6FF4026C4F850610125334600227B
:1027000020468021C4F84451FFF7CAFFD4F8901244
:1027100000206662A56184F87452C4F86C0260609F
:10272000C4F87C0229B1D4F88C020021426820460A
:102730009047002070BD90F8751280F87412002048
:10274000704710B590F87412032904D1D0F88C1298
:10275000C96901B18847002010BD0174002070478D
:1027600010B5D0F898020024FEF72CFD30B10128F6
:1027700001D0022801D0022400E00124204610BD2F
:1027800070B5044600F52070054600F05DF8B4F819
:102790008632012194F8800210F01F02C4E99B13D5
:1027A0000AD0012A0DD0022A10D000F08001204664
:1027B00000F011F8002070BD2946204600F0B5F861
:1027C000F8E72946204600F0E2F9F3E729462046DB
:1027D00000F035F9EEE710B5D0F898020024FEF7C6
:1027E000E1F830B1012801D0022801D0022400E034
:1027F0000124204610BD10B5D0F898020024FEF741
:10280000FCFC30B1012801D0022801D0022400E0F4
:102810000124204610BD90F87422042180F875220E
:1028200080F874120020704710B5D0F89802002488
:10283000FEF7F2F830B1012801D0022801D00224BD
:1028400000E00124204610BD0A7802704A784270E8
:10285000CB788A7802EB032242804B790A7902EB2B
:10286000032282808A79C97902EB0121C1807047F5
:1028700002464FF0000011B1C2F88C1270470220DE
:10288000704710B5D0F88C2202241AB11268904714
:1028900000B90024204610BD70B5204D044688784C
:1028A0000E46C1B20129297031D894F87402022869
:1028B0000BD003280FD031462046FFF768FC29785B
:1028C0002046BDE87040FFF74BBCD9B161600320E2
:1028D00084F8740209E071B16068884212D0C1B214
:1028E0002046FFF73DFC297861602046FFF7C9FFCD
:1028F00002280CD006E00220616084F874022046B1
:10290000FFF72EFC2046BDE87040FFF772BC314651
:102910002046BDE87040FFF73ABC0000640000208C
:1029200010B5FFF768FF002010BD2DE9F0410A78CF
:102930004FF0000612F0600208D0202A01D0402A91
:1029400070D1D0F88C22926890476DE04B780022CD
:1029500001250A2B66D2DFE803F0405D6557650864
:1029600005652C29FFF7C0FC5EE004468888D8B9CD
:10297000C888C8B94888802816D294F8742200F014
:102980007F07032A10D03946204684F87672FFF775
:10299000E7FE2046FFF72DFC1FB1022084F87402E9
:1029A00042E084F874523FE020463BE0FFF774FFBA
:1029B0003AE0CB88012B35D190F87432012B04D04A
:1029C000022B02D0032B2DD104E000F1080182601C
:1029D000012216E00122011D13E090F87422012A61
:1029E00003D0022A01D0032A1CD1CA88022A19D195
:1029F000D0F87C12C56009B10321C160022200F148
:102A00000C01FFF7E9FB0FE0498801290CD1C0F860
:102A10007C5211E090F87432012B08D0022B06D0C2
:102A2000032B04D0FFF7B3FB3046BDE8F0814988A3
:102A30000129F9D1C0F87C22FFF7DBFBF4E70A4655
:102A40002DE9F041044610780979002710F0600361
:102A50000AD0202B01D0402B50D1D4F88C02114643
:102A60008368204698478FE0C0F34110012806D0C4
:102A70005078D0B301282AD003283FD107E0D4F8FA
:102A80008C02114683682046BDE8F041184794F84F
:102A90007402022802D0032872D10AE071B380299F
:102AA0006ED02046FFF797FE80212046FFF793FE69
:102AB0006AE0508838B931B1802904D0D08810B983
:102AC0002046FFF788FE2046FFF793FB5CE094F872
:102AD00074020228E2D0032852D1508898BB4806DD
:102AE000F1D02046FFF7B9FCEDE7FFE794F8740258
:102AF0000026022803D0032842D112E040E009B1A9
:102B000080293DD1080601F07F0000EB800004EB36
:102B1000800101D5143101E001F5A07102220E609F
:102B20002AE0080601F00F0000EB800004EB8000B3
:102B30000AD5806920B301F07F0000EB800004EB30
:102B4000800514350BE01FE0D0F84401C0B101F05E
:102B50007F0000EB800004EB800505F5A07541B116
:102B6000802906D02046FFF787FD10B1012028609C
:102B700000E02E60022229462046FFF72DFB03E0ED
:102B800011462046FFF703FB3846BDE8F08170B5DB
:102B9000054608780C4610F0600003D0202801D0CC
:102BA000402816D195F87402012803D0022801D0DC
:102BB00003280ED1207901280BD8D5F88C02826821
:102BC00028469047E188014306D12846FFF711FBCC
:102BD00002E02846FFF7DBFA002070BD70B54D78A3
:102BE00001230A78012D1C4C02F00F0503FA05F3AE
:102BF000D0F81C5817D000EB421245EA0343C0F846
:102C00001C38D2F8000B00040BD40B89C978D2F819
:102C1000000BC3F30A03184344EA81410843C2F896
:102C2000000B002070BD9EB23543C0F81C5800EB6D
:102C30004213D3F800090004F3D40D89C978D3F8FE
:102C40000009C5F30A058904284341EA8251084373
:102C50002043C3F80009E4E700800010D0F8001911
:102C60006FF30A01C0F80019D0F80818C1F3410148
:102C7000022905D1D0F8001941F00301C0F800196C
:102C8000D0F8041841F48071C0F80418002070478F
:102C900070B504460699049D0D9801290CD0E06892
:102CA00040F04000E060204600F02AF84FF4803009
:102CB000A063012D17D01EE0A26B01280F4922F45A
:102CC0008030A063E06800EA0100E060E06820F482
:102CD0004010E06003D1E06840F48010E0602046DE
:102CE00000F00EF8E5E7A06840F00600A060A068DC
:102CF00040F02000A060002070BD0000BFFFBDFFBD
:102D00000C49012202E0521C8A420BD80369002BB5
:102D1000F9DA0369012243F00103036104E0521C64
:102D20008A4201D9032070470369DB07F7D10020ED
:102D300070470000400D030030B54C7801220B783D
:102D4000012CD0F83C5803F00F0402FA04F417D019
:102D500025EA0444C0F83C480978D0F81C4801F042
:102D60000F018A4000EB431124EA0243104AC0F8E5
:102D70001C38D1F8000B1040C1F8000B002030BD0A
:102D8000A4B2A543C0F83C580978D0F81C4801F01B
:102D90000F018A4092B29443064A00EB4311C0F8F7
:102DA0001C48D1F800091040C1F80009E6E700000E
:102DB0000078F3EF007833EC10B5D0F8041821F068
:102DC0000201C0F804180320FDF7FEFA002010BD30
:102DD00010B5D0F8041841F00201C0F8041803201F
:102DE000FDF7F2FA002010BD2DE9F04F0D46044624
:102DF0000021DDE90B2B109F0846099E04EB800C97
:102E0000CCF80411401C0F28F8D3A06B40F4001C30
:102E10002046C4F838C077B9806B20F4001CC4F891
:102E200038C0206840F0400CC4F800C0206840F072
:102E3000800CC4F800C088460846C4F8000E20463E
:102E4000D4F80018012AC4F8001820D0032A1ED094
:102E5000D0F8001841F0030102E000BF41F0010189
:102E6000C0F80018102100F07BFA204600F068FA44
:102E70004FF0006940464FF0904A4FF67F33C4F858
:102E80001088C4F81488C4F81C88002119E0D0F810
:102E90000018002BE4D0E1E704EB4112D2F800C99E
:102EA000BCF1000F06DA11B1C2F800A904E0C4F8C1
:102EB000009901E0C2F80009C2F81009C2F8083907
:102EC000491C8D42E8D8002115E000BF04EB4112F7
:102ED000D2F800CBBCF1000F06DA11B1C2F800AB9A
:102EE00004E0C4F8009B01E0C2F8000BC2F8100B2C
:102EF000C2F8083B491C8D42E8D8D4F81018012EBE
:102F000021F480722146C4F8102808D1134B144ACA
:102F1000C1F83038D1F830181143C4F830186FF0C8
:102F20008041A06161611EB9A06940F01000A061FC
:102F3000A069BBF1000F0B4A40EA0200A06103D078
:102F4000A06940F00800A061012F03D1A0690649E3
:102F50000843A0610020BDE8F08F00000001800060
:102F60000300010000383C8004000040816821F02B
:102F7000010181600020704770B50B784E783F4C9E
:102F80000D78012E00EB431320D0D3F8100B6FF314
:102F90001200C3F8100BD3F8100B2040C3F8100B2D
:102FA000486908B188684861D3F8100B012A40F4D9
:102FB0000020C3F8100BD3F8100B8A68C2F312027A
:102FC00040EA0200C3F8100B4DD04FE04E69002ECE
:102FD000D3F8106933D06FF31206C3F81069D3F831
:102FE00010692640C3F810694E698C68A64200D962
:102FF0004C61D3F8104944F40024C3F81049D3F8C5
:1030000010494E69C6F3120654EA0604C3F8104983
:10301000012A22D04A694AB10B78D0F8341801222B
:1030200003F00F039A401143C0F8341800EB451029
:10303000D0F8001941F00441C0F800191CE0264006
:10304000C3F81069D3F8104944F40024C3F81049B8
:10305000D3F810496FF31204D8E700EB4512096961
:10306000C2F81419E2E7C868C3F8140BD3F8000BD0
:1030700040F00440C3F8000B002070BDFFFF07E0E4
:103080000023C0F8103B0129D0F8101B41F40021A7
:10309000C0F8101BD0F8101B41F01801C0F8101B2D
:1030A000D0F8101B41F0C041C0F8101B05D14FF003
:1030B0008021C0F8142BC0F8001B002070470B784B
:1030C0004A78012A00EB43100BD0D0F8002B22F4F1
:1030D0000012C0F8002BC978032914D0022912D09D
:1030E00017E0D0F8002922F40012C0F80029C978AE
:1030F000032901D002290CD1D0F8001941F08051E8
:10310000C0F8001905E0D0F8001B41F08051C0F86C
:10311000001B002070470A784B78D1B2012B00EBDE
:10312000421012D0D0F8002B002A06DB29B1D0F8CB
:10313000001B21F08041C0F8001BD0F8001B41F4B7
:103140000011C0F8001B00207047D0F80029002AA9
:1031500006DB29B1D0F8001921F08041C0F8001930
:10316000D0F8001941F40011C0F80019EBE7000095
:10317000F8B50B786FF060464F786D4DDCB2012FDB
:1031800000EB431326D0D3F8104B6FF31204C3F8AF
:10319000104BD3F8104B2C40C3F8104B4D69002D49
:1031A00070D08C68D3F8107B25446D1EB5FBF4F409
:1031B000A4B206EAC4452F43C3F8107BD3F8105BD2
:1031C0008E686643C6F312042543C3F8105B012AD8
:1031D0007ED094E04F6927B3D3F810796FF31207CC
:1031E000C3F81079D3F810792F40C3F810794F69DC
:1031F0008D68D3F810C92F447F1EB7FBF5F506EA9A
:10320000C54545EA0C05C3F81059D3F810594E6965
:10321000C6F312063543C3F81059CD78012D10D0EE
:103220001BE0D3F810692E40C3F81069D3F8105989
:1032300045F40025C3F81059D3F810596FF312055F
:1032400009E0D3F8105925F0C045C3F81059D3F858
:10325000105945F00055C3F81059012A13D0CB7806
:10326000012B16D04B691BB30E78D0F834380125EA
:1032700006F00F06B5402B43C0F83438CB78012B4D
:1032800007D015E029E000EB44130D69C3F8145989
:10329000F4E7D0F80838DB0500EB4413D3F8005905
:1032A00002D445F0005501E045F08055C3F80059BF
:1032B00000EB4413D3F8004944F00444C3F8004938
:1032C000CB78012B31D100928B8A0A78C96800E053
:1032D00012E09BB200F0CDF827E08D68D3F8104BD8
:1032E000C5F312052C43C3F8104BD3F8104B44F42C
:1032F0000024C3F8104B6AE7CA68C3F8142BC978D6
:1033000001290CD1D0F80808C005D3F8000B02D46D
:1033100040F0005001E040F08050C3F8000BD3F8BB
:10332000000B40F00440C3F8000B0020F8BD000083
:10333000FFFF07E0816841F00101816000207047D4
:10334000064A102101610021491C914201D9032044
:1033500070470369DB06F7D400207047400D030077
:103360002023074A43EA811303610021491C91424B
:1033700001D90320704703699B06F7D400207047EA
:10338000400D0300D0F8080810F0060006D002280F
:1033900005D0062803D0042803D00020704703205E
:1033A000704702207047406900F001007047D0F874
:1033B0001818D0F81C08084080B27047D0F81818C8
:1033C000D0F81C080840000C704710B5D0F8102841
:1033D00001F00F0300EB4114D0F83418D4F80809B9
:1033E000D94001F0010142EAC111084010BD00EBD3
:1033F0004111D1F8081BD0F8140808407047416902
:10340000806908407047D21C00F580509308002264
:1034100010B502E00468521C10C19A42FAD3084663
:1034200010BD10B5C268012922F0C042C26002D0AE
:1034300029B1012010BDC16841F0005102E0C1680E
:1034400041F08041C1603220FCF7BEFF002010BD7A
:10345000D0F800284FF4FE6303EA011322F4FE6261
:10346000C0F80028D0F800181943C0F80018002050
:10347000704710B5029C64B900EB0230DB1C0022DF
:103480009B0800F5805002E010C90460521C9A426B
:10349000FAD3002010BDFEE7FEE702E008C8121FC5
:1034A00008C1002AFAD170477047002001E001C12D
:1034B000121F002AFBD1704710B5002821D0114BF4
:1034C0000022001F196803E0814203D80A464968B8
:1034D0000029F9D152B11368841A9C4204D10068C2
:1034E00018441060104602E0506000E0186039B1E6
:1034F00002680B1A934203D10B681A4402604968B0
:10350000416010BD7801002008B5FDF769F8FEF7AD
:1035100033FC0C48016841F001010160016801F0D1
:1035200001010091016841F080010160006800F034
:1035300080000090FEF79CFB4FF4FA742046FCF7E5
:1035400043FFFBE730380240F0B50B30154D20F05B
:1035500007010024144A0FE003688B420BD38B420F
:1035600005D95E1A43184768C3E9006700E043685D
:10357000136002C004E0021D10680028ECD1204650
:10358000002802D1286808B10020F0BD064A07488B
:103590001060074A121A22F00702C0E90024012035
:1035A0002860D7E77C01002078010020241A002041
:1035B000203A002000000000000000000102030487
:1035C00006070809E435000800000020800100001B
:1035D000E8020008B036000880010020A078000052
:1035E000AA3400081329221B0859041A65041A8DED
:1035F000041AB9041A09041A35041ADD04100B045C
:1036000003090412010102020216408304405726F6
:10361000020102030114050F0C1C010710172113EE
:1036200049031B0845041A41041A7504191F118225
:10363000105324F4130A06292B2A401C1C090243A8
:10364000471125C0320904195B1201130524161015
:1036500001052401180901042402020524065C1551
:1036600005820308151009040133020A1D0705012C
:1036700002432C070581070938442A40072A81079D
:10368000112B0907440A3B044413911F1408F91E27
:1036900014087D2042081A3D101A81101ACB04C16B
:1036A0001A79181A6D041A85041A61048100000041
:04000005080001C925
:00000001FF
